{
	"contracts/taskmanager1.sol": {
		"TaskManager": {
			"abi": [
				{
					"inputs": [
						{
							"internalType": "string",
							"name": "_description",
							"type": "string"
						}
					],
					"name": "addTask",
					"outputs": [],
					"stateMutability": "nonpayable",
					"type": "function"
				},
				{
					"inputs": [
						{
							"internalType": "uint256",
							"name": "_id",
							"type": "uint256"
						}
					],
					"name": "completeTask",
					"outputs": [],
					"stateMutability": "nonpayable",
					"type": "function"
				},
				{
					"inputs": [],
					"name": "getAllTasks",
					"outputs": [
						{
							"components": [
								{
									"internalType": "uint256",
									"name": "id",
									"type": "uint256"
								},
								{
									"internalType": "string",
									"name": "description",
									"type": "string"
								},
								{
									"internalType": "bool",
									"name": "isCompleted",
									"type": "bool"
								}
							],
							"internalType": "struct TaskManager.Task[]",
							"name": "",
							"type": "tuple[]"
						}
					],
					"stateMutability": "view",
					"type": "function"
				},
				{
					"inputs": [
						{
							"internalType": "uint256",
							"name": "_id",
							"type": "uint256"
						}
					],
					"name": "getTask",
					"outputs": [
						{
							"internalType": "uint256",
							"name": "",
							"type": "uint256"
						},
						{
							"internalType": "string",
							"name": "",
							"type": "string"
						},
						{
							"internalType": "bool",
							"name": "",
							"type": "bool"
						}
					],
					"stateMutability": "view",
					"type": "function"
				},
				{
					"inputs": [],
					"name": "taskCount",
					"outputs": [
						{
							"internalType": "uint256",
							"name": "",
							"type": "uint256"
						}
					],
					"stateMutability": "view",
					"type": "function"
				},
				{
					"inputs": [
						{
							"internalType": "uint256",
							"name": "",
							"type": "uint256"
						}
					],
					"name": "tasks",
					"outputs": [
						{
							"internalType": "uint256",
							"name": "id",
							"type": "uint256"
						},
						{
							"internalType": "string",
							"name": "description",
							"type": "string"
						},
						{
							"internalType": "bool",
							"name": "isCompleted",
							"type": "bool"
						}
					],
					"stateMutability": "view",
					"type": "function"
				}
			],
			"devdoc": {
				"kind": "dev",
				"methods": {},
				"version": 1
			},
			"evm": {
				"assembly": "    /* \"contracts/taskmanager1.sol\":57:1003  contract TaskManager {... */\n  mstore(0x40, 0x80)\n    /* \"contracts/taskmanager1.sol\":259:260  0 */\n  0x00\n    /* \"contracts/taskmanager1.sol\":232:260  uint256 public taskCount = 0 */\n  0x01\n  sstore\n    /* \"contracts/taskmanager1.sol\":57:1003  contract TaskManager {... */\n  callvalue\n  dup1\n  iszero\n  tag_1\n  jumpi\n  0x00\n  dup1\n  revert\ntag_1:\n  pop\n  dataSize(sub_0)\n  dup1\n  dataOffset(sub_0)\n  0x00\n  codecopy\n  0x00\n  return\nstop\n\nsub_0: assembly {\n        /* \"contracts/taskmanager1.sol\":57:1003  contract TaskManager {... */\n      mstore(0x40, 0x80)\n      callvalue\n      dup1\n      iszero\n      tag_1\n      jumpi\n      0x00\n      dup1\n      revert\n    tag_1:\n      pop\n      jumpi(tag_2, lt(calldatasize, 0x04))\n      shr(0xe0, calldataload(0x00))\n      dup1\n      0x1d65e77e\n      eq\n      tag_3\n      jumpi\n      dup1\n      0x67238562\n      eq\n      tag_4\n      jumpi\n      dup1\n      0x779900b4\n      eq\n      tag_5\n      jumpi\n      dup1\n      0x8d977672\n      eq\n      tag_6\n      jumpi\n      dup1\n      0xb6cb58a5\n      eq\n      tag_7\n      jumpi\n      dup1\n      0xe1e29558\n      eq\n      tag_8\n      jumpi\n    tag_2:\n      0x00\n      dup1\n      revert\n        /* \"contracts/taskmanager1.sol\":640:886  function getTask(uint256 _id) public view returns (uint256, string memory, bool) {... */\n    tag_3:\n      tag_9\n      0x04\n      dup1\n      calldatasize\n      sub\n      dup2\n      add\n      swap1\n      tag_10\n      swap2\n      swap1\n      tag_11\n      jump\t// in\n    tag_10:\n      tag_12\n      jump\t// in\n    tag_9:\n      mload(0x40)\n      tag_13\n      swap4\n      swap3\n      swap2\n      swap1\n      tag_14\n      jump\t// in\n    tag_13:\n      mload(0x40)\n      dup1\n      swap2\n      sub\n      swap1\n      return\n        /* \"contracts/taskmanager1.sol\":289:427  function addTask(string memory _description) public {... */\n    tag_4:\n      tag_15\n      0x04\n      dup1\n      calldatasize\n      sub\n      dup2\n      add\n      swap1\n      tag_16\n      swap2\n      swap1\n      tag_17\n      jump\t// in\n    tag_16:\n      tag_18\n      jump\t// in\n    tag_15:\n      stop\n        /* \"contracts/taskmanager1.sol\":913:1001  function getAllTasks() public view returns (Task[] memory) {... */\n    tag_5:\n      tag_19\n      tag_20\n      jump\t// in\n    tag_19:\n      mload(0x40)\n      tag_21\n      swap2\n      swap1\n      tag_22\n      jump\t// in\n    tag_21:\n      mload(0x40)\n      dup1\n      swap2\n      sub\n      swap1\n      return\n        /* \"contracts/taskmanager1.sol\":183:202  Task[] public tasks */\n    tag_6:\n      tag_23\n      0x04\n      dup1\n      calldatasize\n      sub\n      dup2\n      add\n      swap1\n      tag_24\n      swap2\n      swap1\n      tag_11\n      jump\t// in\n    tag_24:\n      tag_25\n      jump\t// in\n    tag_23:\n      mload(0x40)\n      tag_26\n      swap4\n      swap3\n      swap2\n      swap1\n      tag_14\n      jump\t// in\n    tag_26:\n      mload(0x40)\n      dup1\n      swap2\n      sub\n      swap1\n      return\n        /* \"contracts/taskmanager1.sol\":232:260  uint256 public taskCount = 0 */\n    tag_7:\n      tag_27\n      tag_28\n      jump\t// in\n    tag_27:\n      mload(0x40)\n      tag_29\n      swap2\n      swap1\n      tag_30\n      jump\t// in\n    tag_29:\n      mload(0x40)\n      dup1\n      swap2\n      sub\n      swap1\n      return\n        /* \"contracts/taskmanager1.sol\":465:610  function completeTask(uint256 _id) public {... */\n    tag_8:\n      tag_31\n      0x04\n      dup1\n      calldatasize\n      sub\n      dup2\n      add\n      swap1\n      tag_32\n      swap2\n      swap1\n      tag_11\n      jump\t// in\n    tag_32:\n      tag_33\n      jump\t// in\n    tag_31:\n      stop\n        /* \"contracts/taskmanager1.sol\":640:886  function getTask(uint256 _id) public view returns (uint256, string memory, bool) {... */\n    tag_12:\n        /* \"contracts/taskmanager1.sol\":691:698  uint256 */\n      0x00\n        /* \"contracts/taskmanager1.sol\":700:713  string memory */\n      0x60\n        /* \"contracts/taskmanager1.sol\":715:719  bool */\n      0x00\n        /* \"contracts/taskmanager1.sol\":745:754  taskCount */\n      sload(0x01)\n        /* \"contracts/taskmanager1.sol\":739:742  _id */\n      dup5\n        /* \"contracts/taskmanager1.sol\":739:754  _id < taskCount */\n      lt\n        /* \"contracts/taskmanager1.sol\":731:778  require(_id < taskCount, \"Task does not exist\") */\n      tag_35\n      jumpi\n      mload(0x40)\n      0x08c379a000000000000000000000000000000000000000000000000000000000\n      dup2\n      mstore\n      0x04\n      add\n      tag_36\n      swap1\n      tag_37\n      jump\t// in\n    tag_36:\n      mload(0x40)\n      dup1\n      swap2\n      sub\n      swap1\n      revert\n    tag_35:\n        /* \"contracts/taskmanager1.sol\":788:804  Task memory task */\n      0x00\n        /* \"contracts/taskmanager1.sol\":807:812  tasks */\n      dup1\n        /* \"contracts/taskmanager1.sol\":813:816  _id */\n      dup6\n        /* \"contracts/taskmanager1.sol\":807:817  tasks[_id] */\n      dup2\n      sload\n      dup2\n      lt\n      tag_38\n      jumpi\n      tag_39\n      tag_40\n      jump\t// in\n    tag_39:\n    tag_38:\n      swap1\n      0x00\n      mstore\n      keccak256(0x00, 0x20)\n      swap1\n      0x03\n      mul\n      add\n        /* \"contracts/taskmanager1.sol\":788:817  Task memory task = tasks[_id] */\n      mload(0x40)\n      dup1\n      0x60\n      add\n      0x40\n      mstore\n      swap1\n      dup2\n      0x00\n      dup3\n      add\n      sload\n      dup2\n      mstore\n      0x20\n      add\n      0x01\n      dup3\n      add\n      dup1\n      sload\n      tag_42\n      swap1\n      tag_43\n      jump\t// in\n    tag_42:\n      dup1\n      0x1f\n      add\n      0x20\n      dup1\n      swap2\n      div\n      mul\n      0x20\n      add\n      mload(0x40)\n      swap1\n      dup2\n      add\n      0x40\n      mstore\n      dup1\n      swap3\n      swap2\n      swap1\n      dup2\n      dup2\n      mstore\n      0x20\n      add\n      dup3\n      dup1\n      sload\n      tag_44\n      swap1\n      tag_43\n      jump\t// in\n    tag_44:\n      dup1\n      iszero\n      tag_45\n      jumpi\n      dup1\n      0x1f\n      lt\n      tag_46\n      jumpi\n      0x0100\n      dup1\n      dup4\n      sload\n      div\n      mul\n      dup4\n      mstore\n      swap2\n      0x20\n      add\n      swap2\n      jump(tag_45)\n    tag_46:\n      dup3\n      add\n      swap2\n      swap1\n      0x00\n      mstore\n      keccak256(0x00, 0x20)\n      swap1\n    tag_47:\n      dup2\n      sload\n      dup2\n      mstore\n      swap1\n      0x01\n      add\n      swap1\n      0x20\n      add\n      dup1\n      dup4\n      gt\n      tag_47\n      jumpi\n      dup3\n      swap1\n      sub\n      0x1f\n      and\n      dup3\n      add\n      swap2\n    tag_45:\n      pop\n      pop\n      pop\n      pop\n      pop\n      dup2\n      mstore\n      0x20\n      add\n      0x02\n      dup3\n      add\n      0x00\n      swap1\n      sload\n      swap1\n      0x0100\n      exp\n      swap1\n      div\n      0xff\n      and\n      iszero\n      iszero\n      iszero\n      iszero\n      dup2\n      mstore\n      pop\n      pop\n      swap1\n      pop\n        /* \"contracts/taskmanager1.sol\":835:839  task */\n      dup1\n        /* \"contracts/taskmanager1.sol\":835:842  task.id */\n      0x00\n      add\n      mload\n        /* \"contracts/taskmanager1.sol\":844:848  task */\n      dup2\n        /* \"contracts/taskmanager1.sol\":844:860  task.description */\n      0x20\n      add\n      mload\n        /* \"contracts/taskmanager1.sol\":862:866  task */\n      dup3\n        /* \"contracts/taskmanager1.sol\":862:878  task.isCompleted */\n      0x40\n      add\n      mload\n        /* \"contracts/taskmanager1.sol\":827:879  return (task.id, task.description, task.isCompleted) */\n      swap4\n      pop\n      swap4\n      pop\n      swap4\n      pop\n      pop\n        /* \"contracts/taskmanager1.sol\":640:886  function getTask(uint256 _id) public view returns (uint256, string memory, bool) {... */\n      swap2\n      swap4\n      swap1\n      swap3\n      pop\n      jump\t// out\n        /* \"contracts/taskmanager1.sol\":289:427  function addTask(string memory _description) public {... */\n    tag_18:\n        /* \"contracts/taskmanager1.sol\":351:356  tasks */\n      0x00\n        /* \"contracts/taskmanager1.sol\":362:398  Task(taskCount, _description, false) */\n      mload(0x40)\n      dup1\n      0x60\n      add\n      0x40\n      mstore\n      dup1\n        /* \"contracts/taskmanager1.sol\":367:376  taskCount */\n      sload(0x01)\n        /* \"contracts/taskmanager1.sol\":362:398  Task(taskCount, _description, false) */\n      dup2\n      mstore\n      0x20\n      add\n        /* \"contracts/taskmanager1.sol\":378:390  _description */\n      dup4\n        /* \"contracts/taskmanager1.sol\":362:398  Task(taskCount, _description, false) */\n      dup2\n      mstore\n      0x20\n      add\n        /* \"contracts/taskmanager1.sol\":392:397  false */\n      0x00\n        /* \"contracts/taskmanager1.sol\":362:398  Task(taskCount, _description, false) */\n      iszero\n      iszero\n      dup2\n      mstore\n      pop\n        /* \"contracts/taskmanager1.sol\":351:399  tasks.push(Task(taskCount, _description, false)) */\n      swap1\n      dup1\n      0x01\n      dup2\n      sload\n      add\n      dup1\n      dup3\n      sstore\n      dup1\n      swap2\n      pop\n      pop\n      0x01\n      swap1\n      sub\n      swap1\n      0x00\n      mstore\n      keccak256(0x00, 0x20)\n      swap1\n      0x03\n      mul\n      add\n      0x00\n      swap1\n      swap2\n      swap1\n      swap2\n      swap1\n      swap2\n      pop\n      0x00\n      dup3\n      add\n      mload\n      dup2\n      0x00\n      add\n      sstore\n      0x20\n      dup3\n      add\n      mload\n      dup2\n      0x01\n      add\n      swap1\n      dup2\n      tag_50\n      swap2\n      swap1\n      tag_51\n      jump\t// in\n    tag_50:\n      pop\n      0x40\n      dup3\n      add\n      mload\n      dup2\n      0x02\n      add\n      exp(0x0100, 0x00)\n      dup2\n      sload\n      dup2\n      0xff\n      mul\n      not\n      and\n      swap1\n      dup4\n      iszero\n      iszero\n      mul\n      or\n      swap1\n      sstore\n      pop\n      pop\n      pop\n        /* \"contracts/taskmanager1.sol\":409:418  taskCount */\n      0x01\n      0x00\n        /* \"contracts/taskmanager1.sol\":409:420  taskCount++ */\n      dup2\n      sload\n      dup1\n      swap3\n      swap2\n      swap1\n      tag_52\n      swap1\n      tag_53\n      jump\t// in\n    tag_52:\n      swap2\n      swap1\n      pop\n      sstore\n      pop\n        /* \"contracts/taskmanager1.sol\":289:427  function addTask(string memory _description) public {... */\n      pop\n      jump\t// out\n        /* \"contracts/taskmanager1.sol\":913:1001  function getAllTasks() public view returns (Task[] memory) {... */\n    tag_20:\n        /* \"contracts/taskmanager1.sol\":957:970  Task[] memory */\n      0x60\n        /* \"contracts/taskmanager1.sol\":989:994  tasks */\n      0x00\n        /* \"contracts/taskmanager1.sol\":982:994  return tasks */\n      dup1\n      sload\n      dup1\n      0x20\n      mul\n      0x20\n      add\n      mload(0x40)\n      swap1\n      dup2\n      add\n      0x40\n      mstore\n      dup1\n      swap3\n      swap2\n      swap1\n      dup2\n      dup2\n      mstore\n      0x20\n      add\n      0x00\n      swap1\n    tag_55:\n      dup3\n      dup3\n      lt\n      iszero\n      tag_56\n      jumpi\n      dup4\n      dup3\n      swap1\n      0x00\n      mstore\n      keccak256(0x00, 0x20)\n      swap1\n      0x03\n      mul\n      add\n      mload(0x40)\n      dup1\n      0x60\n      add\n      0x40\n      mstore\n      swap1\n      dup2\n      0x00\n      dup3\n      add\n      sload\n      dup2\n      mstore\n      0x20\n      add\n      0x01\n      dup3\n      add\n      dup1\n      sload\n      tag_58\n      swap1\n      tag_43\n      jump\t// in\n    tag_58:\n      dup1\n      0x1f\n      add\n      0x20\n      dup1\n      swap2\n      div\n      mul\n      0x20\n      add\n      mload(0x40)\n      swap1\n      dup2\n      add\n      0x40\n      mstore\n      dup1\n      swap3\n      swap2\n      swap1\n      dup2\n      dup2\n      mstore\n      0x20\n      add\n      dup3\n      dup1\n      sload\n      tag_59\n      swap1\n      tag_43\n      jump\t// in\n    tag_59:\n      dup1\n      iszero\n      tag_60\n      jumpi\n      dup1\n      0x1f\n      lt\n      tag_61\n      jumpi\n      0x0100\n      dup1\n      dup4\n      sload\n      div\n      mul\n      dup4\n      mstore\n      swap2\n      0x20\n      add\n      swap2\n      jump(tag_60)\n    tag_61:\n      dup3\n      add\n      swap2\n      swap1\n      0x00\n      mstore\n      keccak256(0x00, 0x20)\n      swap1\n    tag_62:\n      dup2\n      sload\n      dup2\n      mstore\n      swap1\n      0x01\n      add\n      swap1\n      0x20\n      add\n      dup1\n      dup4\n      gt\n      tag_62\n      jumpi\n      dup3\n      swap1\n      sub\n      0x1f\n      and\n      dup3\n      add\n      swap2\n    tag_60:\n      pop\n      pop\n      pop\n      pop\n      pop\n      dup2\n      mstore\n      0x20\n      add\n      0x02\n      dup3\n      add\n      0x00\n      swap1\n      sload\n      swap1\n      0x0100\n      exp\n      swap1\n      div\n      0xff\n      and\n      iszero\n      iszero\n      iszero\n      iszero\n      dup2\n      mstore\n      pop\n      pop\n      dup2\n      mstore\n      0x20\n      add\n      swap1\n      0x01\n      add\n      swap1\n      jump(tag_55)\n    tag_56:\n      pop\n      pop\n      pop\n      pop\n      swap1\n      pop\n        /* \"contracts/taskmanager1.sol\":913:1001  function getAllTasks() public view returns (Task[] memory) {... */\n      swap1\n      jump\t// out\n        /* \"contracts/taskmanager1.sol\":183:202  Task[] public tasks */\n    tag_25:\n      0x00\n      dup2\n      dup2\n      sload\n      dup2\n      lt\n      tag_63\n      jumpi\n      0x00\n      dup1\n      revert\n    tag_63:\n      swap1\n      0x00\n      mstore\n      keccak256(0x00, 0x20)\n      swap1\n      0x03\n      mul\n      add\n      0x00\n      swap2\n      pop\n      swap1\n      pop\n      dup1\n      0x00\n      add\n      sload\n      swap1\n      dup1\n      0x01\n      add\n      dup1\n      sload\n      tag_65\n      swap1\n      tag_43\n      jump\t// in\n    tag_65:\n      dup1\n      0x1f\n      add\n      0x20\n      dup1\n      swap2\n      div\n      mul\n      0x20\n      add\n      mload(0x40)\n      swap1\n      dup2\n      add\n      0x40\n      mstore\n      dup1\n      swap3\n      swap2\n      swap1\n      dup2\n      dup2\n      mstore\n      0x20\n      add\n      dup3\n      dup1\n      sload\n      tag_66\n      swap1\n      tag_43\n      jump\t// in\n    tag_66:\n      dup1\n      iszero\n      tag_67\n      jumpi\n      dup1\n      0x1f\n      lt\n      tag_68\n      jumpi\n      0x0100\n      dup1\n      dup4\n      sload\n      div\n      mul\n      dup4\n      mstore\n      swap2\n      0x20\n      add\n      swap2\n      jump(tag_67)\n    tag_68:\n      dup3\n      add\n      swap2\n      swap1\n      0x00\n      mstore\n      keccak256(0x00, 0x20)\n      swap1\n    tag_69:\n      dup2\n      sload\n      dup2\n      mstore\n      swap1\n      0x01\n      add\n      swap1\n      0x20\n      add\n      dup1\n      dup4\n      gt\n      tag_69\n      jumpi\n      dup3\n      swap1\n      sub\n      0x1f\n      and\n      dup3\n      add\n      swap2\n    tag_67:\n      pop\n      pop\n      pop\n      pop\n      pop\n      swap1\n      dup1\n      0x02\n      add\n      0x00\n      swap1\n      sload\n      swap1\n      0x0100\n      exp\n      swap1\n      div\n      0xff\n      and\n      swap1\n      pop\n      dup4\n      jump\t// out\n        /* \"contracts/taskmanager1.sol\":232:260  uint256 public taskCount = 0 */\n    tag_28:\n      sload(0x01)\n      dup2\n      jump\t// out\n        /* \"contracts/taskmanager1.sol\":465:610  function completeTask(uint256 _id) public {... */\n    tag_33:\n        /* \"contracts/taskmanager1.sol\":531:540  taskCount */\n      sload(0x01)\n        /* \"contracts/taskmanager1.sol\":525:528  _id */\n      dup2\n        /* \"contracts/taskmanager1.sol\":525:540  _id < taskCount */\n      lt\n        /* \"contracts/taskmanager1.sol\":517:564  require(_id < taskCount, \"Task does not exist\") */\n      tag_71\n      jumpi\n      mload(0x40)\n      0x08c379a000000000000000000000000000000000000000000000000000000000\n      dup2\n      mstore\n      0x04\n      add\n      tag_72\n      swap1\n      tag_37\n      jump\t// in\n    tag_72:\n      mload(0x40)\n      dup1\n      swap2\n      sub\n      swap1\n      revert\n    tag_71:\n        /* \"contracts/taskmanager1.sol\":599:603  true */\n      0x01\n        /* \"contracts/taskmanager1.sol\":574:579  tasks */\n      0x00\n        /* \"contracts/taskmanager1.sol\":580:583  _id */\n      dup3\n        /* \"contracts/taskmanager1.sol\":574:584  tasks[_id] */\n      dup2\n      sload\n      dup2\n      lt\n      tag_73\n      jumpi\n      tag_74\n      tag_40\n      jump\t// in\n    tag_74:\n    tag_73:\n      swap1\n      0x00\n      mstore\n      keccak256(0x00, 0x20)\n      swap1\n      0x03\n      mul\n      add\n        /* \"contracts/taskmanager1.sol\":574:596  tasks[_id].isCompleted */\n      0x02\n      add\n      0x00\n        /* \"contracts/taskmanager1.sol\":574:603  tasks[_id].isCompleted = true */\n      0x0100\n      exp\n      dup2\n      sload\n      dup2\n      0xff\n      mul\n      not\n      and\n      swap1\n      dup4\n      iszero\n      iszero\n      mul\n      or\n      swap1\n      sstore\n      pop\n        /* \"contracts/taskmanager1.sol\":465:610  function completeTask(uint256 _id) public {... */\n      pop\n      jump\t// out\n        /* \"#utility.yul\":7:82   */\n    tag_76:\n        /* \"#utility.yul\":40:46   */\n      0x00\n        /* \"#utility.yul\":73:75   */\n      0x40\n        /* \"#utility.yul\":67:76   */\n      mload\n        /* \"#utility.yul\":57:76   */\n      swap1\n      pop\n        /* \"#utility.yul\":7:82   */\n      swap1\n      jump\t// out\n        /* \"#utility.yul\":88:205   */\n    tag_77:\n        /* \"#utility.yul\":197:198   */\n      0x00\n        /* \"#utility.yul\":194:195   */\n      dup1\n        /* \"#utility.yul\":187:199   */\n      revert\n        /* \"#utility.yul\":211:328   */\n    tag_78:\n        /* \"#utility.yul\":320:321   */\n      0x00\n        /* \"#utility.yul\":317:318   */\n      dup1\n        /* \"#utility.yul\":310:322   */\n      revert\n        /* \"#utility.yul\":334:411   */\n    tag_79:\n        /* \"#utility.yul\":371:378   */\n      0x00\n        /* \"#utility.yul\":400:405   */\n      dup2\n        /* \"#utility.yul\":389:405   */\n      swap1\n      pop\n        /* \"#utility.yul\":334:411   */\n      swap2\n      swap1\n      pop\n      jump\t// out\n        /* \"#utility.yul\":417:539   */\n    tag_80:\n        /* \"#utility.yul\":490:514   */\n      tag_135\n        /* \"#utility.yul\":508:513   */\n      dup2\n        /* \"#utility.yul\":490:514   */\n      tag_79\n      jump\t// in\n    tag_135:\n        /* \"#utility.yul\":483:488   */\n      dup2\n        /* \"#utility.yul\":480:515   */\n      eq\n        /* \"#utility.yul\":470:533   */\n      tag_136\n      jumpi\n        /* \"#utility.yul\":529:530   */\n      0x00\n        /* \"#utility.yul\":526:527   */\n      dup1\n        /* \"#utility.yul\":519:531   */\n      revert\n        /* \"#utility.yul\":470:533   */\n    tag_136:\n        /* \"#utility.yul\":417:539   */\n      pop\n      jump\t// out\n        /* \"#utility.yul\":545:684   */\n    tag_81:\n        /* \"#utility.yul\":591:596   */\n      0x00\n        /* \"#utility.yul\":629:635   */\n      dup2\n        /* \"#utility.yul\":616:636   */\n      calldataload\n        /* \"#utility.yul\":607:636   */\n      swap1\n      pop\n        /* \"#utility.yul\":645:678   */\n      tag_138\n        /* \"#utility.yul\":672:677   */\n      dup2\n        /* \"#utility.yul\":645:678   */\n      tag_80\n      jump\t// in\n    tag_138:\n        /* \"#utility.yul\":545:684   */\n      swap3\n      swap2\n      pop\n      pop\n      jump\t// out\n        /* \"#utility.yul\":690:1019   */\n    tag_11:\n        /* \"#utility.yul\":749:755   */\n      0x00\n        /* \"#utility.yul\":798:800   */\n      0x20\n        /* \"#utility.yul\":786:795   */\n      dup3\n        /* \"#utility.yul\":777:784   */\n      dup5\n        /* \"#utility.yul\":773:796   */\n      sub\n        /* \"#utility.yul\":769:801   */\n      slt\n        /* \"#utility.yul\":766:885   */\n      iszero\n      tag_140\n      jumpi\n        /* \"#utility.yul\":804:883   */\n      tag_141\n      tag_77\n      jump\t// in\n    tag_141:\n        /* \"#utility.yul\":766:885   */\n    tag_140:\n        /* \"#utility.yul\":924:925   */\n      0x00\n        /* \"#utility.yul\":949:1002   */\n      tag_142\n        /* \"#utility.yul\":994:1001   */\n      dup5\n        /* \"#utility.yul\":985:991   */\n      dup3\n        /* \"#utility.yul\":974:983   */\n      dup6\n        /* \"#utility.yul\":970:992   */\n      add\n        /* \"#utility.yul\":949:1002   */\n      tag_81\n      jump\t// in\n    tag_142:\n        /* \"#utility.yul\":939:1002   */\n      swap2\n      pop\n        /* \"#utility.yul\":895:1012   */\n      pop\n        /* \"#utility.yul\":690:1019   */\n      swap3\n      swap2\n      pop\n      pop\n      jump\t// out\n        /* \"#utility.yul\":1025:1143   */\n    tag_82:\n        /* \"#utility.yul\":1112:1136   */\n      tag_144\n        /* \"#utility.yul\":1130:1135   */\n      dup2\n        /* \"#utility.yul\":1112:1136   */\n      tag_79\n      jump\t// in\n    tag_144:\n        /* \"#utility.yul\":1107:1110   */\n      dup3\n        /* \"#utility.yul\":1100:1137   */\n      mstore\n        /* \"#utility.yul\":1025:1143   */\n      pop\n      pop\n      jump\t// out\n        /* \"#utility.yul\":1149:1248   */\n    tag_83:\n        /* \"#utility.yul\":1201:1207   */\n      0x00\n        /* \"#utility.yul\":1235:1240   */\n      dup2\n        /* \"#utility.yul\":1229:1241   */\n      mload\n        /* \"#utility.yul\":1219:1241   */\n      swap1\n      pop\n        /* \"#utility.yul\":1149:1248   */\n      swap2\n      swap1\n      pop\n      jump\t// out\n        /* \"#utility.yul\":1254:1423   */\n    tag_84:\n        /* \"#utility.yul\":1338:1349   */\n      0x00\n        /* \"#utility.yul\":1372:1378   */\n      dup3\n        /* \"#utility.yul\":1367:1370   */\n      dup3\n        /* \"#utility.yul\":1360:1379   */\n      mstore\n        /* \"#utility.yul\":1412:1416   */\n      0x20\n        /* \"#utility.yul\":1407:1410   */\n      dup3\n        /* \"#utility.yul\":1403:1417   */\n      add\n        /* \"#utility.yul\":1388:1417   */\n      swap1\n      pop\n        /* \"#utility.yul\":1254:1423   */\n      swap3\n      swap2\n      pop\n      pop\n      jump\t// out\n        /* \"#utility.yul\":1429:1568   */\n    tag_85:\n        /* \"#utility.yul\":1518:1524   */\n      dup3\n        /* \"#utility.yul\":1513:1516   */\n      dup2\n        /* \"#utility.yul\":1508:1511   */\n      dup4\n        /* \"#utility.yul\":1502:1525   */\n      mcopy\n        /* \"#utility.yul\":1559:1560   */\n      0x00\n        /* \"#utility.yul\":1550:1556   */\n      dup4\n        /* \"#utility.yul\":1545:1548   */\n      dup4\n        /* \"#utility.yul\":1541:1557   */\n      add\n        /* \"#utility.yul\":1534:1561   */\n      mstore\n        /* \"#utility.yul\":1429:1568   */\n      pop\n      pop\n      pop\n      jump\t// out\n        /* \"#utility.yul\":1574:1676   */\n    tag_86:\n        /* \"#utility.yul\":1615:1621   */\n      0x00\n        /* \"#utility.yul\":1666:1668   */\n      0x1f\n        /* \"#utility.yul\":1662:1669   */\n      not\n        /* \"#utility.yul\":1657:1659   */\n      0x1f\n        /* \"#utility.yul\":1650:1655   */\n      dup4\n        /* \"#utility.yul\":1646:1660   */\n      add\n        /* \"#utility.yul\":1642:1670   */\n      and\n        /* \"#utility.yul\":1632:1670   */\n      swap1\n      pop\n        /* \"#utility.yul\":1574:1676   */\n      swap2\n      swap1\n      pop\n      jump\t// out\n        /* \"#utility.yul\":1682:2059   */\n    tag_87:\n        /* \"#utility.yul\":1770:1773   */\n      0x00\n        /* \"#utility.yul\":1798:1837   */\n      tag_150\n        /* \"#utility.yul\":1831:1836   */\n      dup3\n        /* \"#utility.yul\":1798:1837   */\n      tag_83\n      jump\t// in\n    tag_150:\n        /* \"#utility.yul\":1853:1924   */\n      tag_151\n        /* \"#utility.yul\":1917:1923   */\n      dup2\n        /* \"#utility.yul\":1912:1915   */\n      dup6\n        /* \"#utility.yul\":1853:1924   */\n      tag_84\n      jump\t// in\n    tag_151:\n        /* \"#utility.yul\":1846:1924   */\n      swap4\n      pop\n        /* \"#utility.yul\":1933:1998   */\n      tag_152\n        /* \"#utility.yul\":1991:1997   */\n      dup2\n        /* \"#utility.yul\":1986:1989   */\n      dup6\n        /* \"#utility.yul\":1979:1983   */\n      0x20\n        /* \"#utility.yul\":1972:1977   */\n      dup7\n        /* \"#utility.yul\":1968:1984   */\n      add\n        /* \"#utility.yul\":1933:1998   */\n      tag_85\n      jump\t// in\n    tag_152:\n        /* \"#utility.yul\":2023:2052   */\n      tag_153\n        /* \"#utility.yul\":2045:2051   */\n      dup2\n        /* \"#utility.yul\":2023:2052   */\n      tag_86\n      jump\t// in\n    tag_153:\n        /* \"#utility.yul\":2018:2021   */\n      dup5\n        /* \"#utility.yul\":2014:2053   */\n      add\n        /* \"#utility.yul\":2007:2053   */\n      swap2\n      pop\n        /* \"#utility.yul\":1774:2059   */\n      pop\n        /* \"#utility.yul\":1682:2059   */\n      swap3\n      swap2\n      pop\n      pop\n      jump\t// out\n        /* \"#utility.yul\":2065:2155   */\n    tag_88:\n        /* \"#utility.yul\":2099:2106   */\n      0x00\n        /* \"#utility.yul\":2142:2147   */\n      dup2\n        /* \"#utility.yul\":2135:2148   */\n      iszero\n        /* \"#utility.yul\":2128:2149   */\n      iszero\n        /* \"#utility.yul\":2117:2149   */\n      swap1\n      pop\n        /* \"#utility.yul\":2065:2155   */\n      swap2\n      swap1\n      pop\n      jump\t// out\n        /* \"#utility.yul\":2161:2270   */\n    tag_89:\n        /* \"#utility.yul\":2242:2263   */\n      tag_156\n        /* \"#utility.yul\":2257:2262   */\n      dup2\n        /* \"#utility.yul\":2242:2263   */\n      tag_88\n      jump\t// in\n    tag_156:\n        /* \"#utility.yul\":2237:2240   */\n      dup3\n        /* \"#utility.yul\":2230:2264   */\n      mstore\n        /* \"#utility.yul\":2161:2270   */\n      pop\n      pop\n      jump\t// out\n        /* \"#utility.yul\":2276:2797   */\n    tag_14:\n        /* \"#utility.yul\":2439:2443   */\n      0x00\n        /* \"#utility.yul\":2477:2479   */\n      0x60\n        /* \"#utility.yul\":2466:2475   */\n      dup3\n        /* \"#utility.yul\":2462:2480   */\n      add\n        /* \"#utility.yul\":2454:2480   */\n      swap1\n      pop\n        /* \"#utility.yul\":2490:2561   */\n      tag_158\n        /* \"#utility.yul\":2558:2559   */\n      0x00\n        /* \"#utility.yul\":2547:2556   */\n      dup4\n        /* \"#utility.yul\":2543:2560   */\n      add\n        /* \"#utility.yul\":2534:2540   */\n      dup7\n        /* \"#utility.yul\":2490:2561   */\n      tag_82\n      jump\t// in\n    tag_158:\n        /* \"#utility.yul\":2608:2617   */\n      dup2\n        /* \"#utility.yul\":2602:2606   */\n      dup2\n        /* \"#utility.yul\":2598:2618   */\n      sub\n        /* \"#utility.yul\":2593:2595   */\n      0x20\n        /* \"#utility.yul\":2582:2591   */\n      dup4\n        /* \"#utility.yul\":2578:2596   */\n      add\n        /* \"#utility.yul\":2571:2619   */\n      mstore\n        /* \"#utility.yul\":2636:2714   */\n      tag_159\n        /* \"#utility.yul\":2709:2713   */\n      dup2\n        /* \"#utility.yul\":2700:2706   */\n      dup6\n        /* \"#utility.yul\":2636:2714   */\n      tag_87\n      jump\t// in\n    tag_159:\n        /* \"#utility.yul\":2628:2714   */\n      swap1\n      pop\n        /* \"#utility.yul\":2724:2790   */\n      tag_160\n        /* \"#utility.yul\":2786:2788   */\n      0x40\n        /* \"#utility.yul\":2775:2784   */\n      dup4\n        /* \"#utility.yul\":2771:2789   */\n      add\n        /* \"#utility.yul\":2762:2768   */\n      dup5\n        /* \"#utility.yul\":2724:2790   */\n      tag_89\n      jump\t// in\n    tag_160:\n        /* \"#utility.yul\":2276:2797   */\n      swap5\n      swap4\n      pop\n      pop\n      pop\n      pop\n      jump\t// out\n        /* \"#utility.yul\":2803:2920   */\n    tag_90:\n        /* \"#utility.yul\":2912:2913   */\n      0x00\n        /* \"#utility.yul\":2909:2910   */\n      dup1\n        /* \"#utility.yul\":2902:2914   */\n      revert\n        /* \"#utility.yul\":2926:3043   */\n    tag_91:\n        /* \"#utility.yul\":3035:3036   */\n      0x00\n        /* \"#utility.yul\":3032:3033   */\n      dup1\n        /* \"#utility.yul\":3025:3037   */\n      revert\n        /* \"#utility.yul\":3049:3229   */\n    tag_92:\n        /* \"#utility.yul\":3097:3174   */\n      0x4e487b7100000000000000000000000000000000000000000000000000000000\n        /* \"#utility.yul\":3094:3095   */\n      0x00\n        /* \"#utility.yul\":3087:3175   */\n      mstore\n        /* \"#utility.yul\":3194:3198   */\n      0x41\n        /* \"#utility.yul\":3191:3192   */\n      0x04\n        /* \"#utility.yul\":3184:3199   */\n      mstore\n        /* \"#utility.yul\":3218:3222   */\n      0x24\n        /* \"#utility.yul\":3215:3216   */\n      0x00\n        /* \"#utility.yul\":3208:3223   */\n      revert\n        /* \"#utility.yul\":3235:3516   */\n    tag_93:\n        /* \"#utility.yul\":3318:3345   */\n      tag_165\n        /* \"#utility.yul\":3340:3344   */\n      dup3\n        /* \"#utility.yul\":3318:3345   */\n      tag_86\n      jump\t// in\n    tag_165:\n        /* \"#utility.yul\":3310:3316   */\n      dup2\n        /* \"#utility.yul\":3306:3346   */\n      add\n        /* \"#utility.yul\":3448:3454   */\n      dup2\n        /* \"#utility.yul\":3436:3446   */\n      dup2\n        /* \"#utility.yul\":3433:3455   */\n      lt\n        /* \"#utility.yul\":3412:3430   */\n      0xffffffffffffffff\n        /* \"#utility.yul\":3400:3410   */\n      dup3\n        /* \"#utility.yul\":3397:3431   */\n      gt\n        /* \"#utility.yul\":3394:3456   */\n      or\n        /* \"#utility.yul\":3391:3479   */\n      iszero\n      tag_166\n      jumpi\n        /* \"#utility.yul\":3459:3477   */\n      tag_167\n      tag_92\n      jump\t// in\n    tag_167:\n        /* \"#utility.yul\":3391:3479   */\n    tag_166:\n        /* \"#utility.yul\":3499:3509   */\n      dup1\n        /* \"#utility.yul\":3495:3497   */\n      0x40\n        /* \"#utility.yul\":3488:3510   */\n      mstore\n        /* \"#utility.yul\":3278:3516   */\n      pop\n        /* \"#utility.yul\":3235:3516   */\n      pop\n      pop\n      jump\t// out\n        /* \"#utility.yul\":3522:3651   */\n    tag_94:\n        /* \"#utility.yul\":3556:3562   */\n      0x00\n        /* \"#utility.yul\":3583:3603   */\n      tag_169\n      tag_76\n      jump\t// in\n    tag_169:\n        /* \"#utility.yul\":3573:3603   */\n      swap1\n      pop\n        /* \"#utility.yul\":3612:3645   */\n      tag_170\n        /* \"#utility.yul\":3640:3644   */\n      dup3\n        /* \"#utility.yul\":3632:3638   */\n      dup3\n        /* \"#utility.yul\":3612:3645   */\n      tag_93\n      jump\t// in\n    tag_170:\n        /* \"#utility.yul\":3522:3651   */\n      swap2\n      swap1\n      pop\n      jump\t// out\n        /* \"#utility.yul\":3657:3965   */\n    tag_95:\n        /* \"#utility.yul\":3719:3723   */\n      0x00\n        /* \"#utility.yul\":3809:3827   */\n      0xffffffffffffffff\n        /* \"#utility.yul\":3801:3807   */\n      dup3\n        /* \"#utility.yul\":3798:3828   */\n      gt\n        /* \"#utility.yul\":3795:3851   */\n      iszero\n      tag_172\n      jumpi\n        /* \"#utility.yul\":3831:3849   */\n      tag_173\n      tag_92\n      jump\t// in\n    tag_173:\n        /* \"#utility.yul\":3795:3851   */\n    tag_172:\n        /* \"#utility.yul\":3869:3898   */\n      tag_174\n        /* \"#utility.yul\":3891:3897   */\n      dup3\n        /* \"#utility.yul\":3869:3898   */\n      tag_86\n      jump\t// in\n    tag_174:\n        /* \"#utility.yul\":3861:3898   */\n      swap1\n      pop\n        /* \"#utility.yul\":3953:3957   */\n      0x20\n        /* \"#utility.yul\":3947:3951   */\n      dup2\n        /* \"#utility.yul\":3943:3958   */\n      add\n        /* \"#utility.yul\":3935:3958   */\n      swap1\n      pop\n        /* \"#utility.yul\":3657:3965   */\n      swap2\n      swap1\n      pop\n      jump\t// out\n        /* \"#utility.yul\":3971:4119   */\n    tag_96:\n        /* \"#utility.yul\":4069:4075   */\n      dup3\n        /* \"#utility.yul\":4064:4067   */\n      dup2\n        /* \"#utility.yul\":4059:4062   */\n      dup4\n        /* \"#utility.yul\":4046:4076   */\n      calldatacopy\n        /* \"#utility.yul\":4110:4111   */\n      0x00\n        /* \"#utility.yul\":4101:4107   */\n      dup4\n        /* \"#utility.yul\":4096:4099   */\n      dup4\n        /* \"#utility.yul\":4092:4108   */\n      add\n        /* \"#utility.yul\":4085:4112   */\n      mstore\n        /* \"#utility.yul\":3971:4119   */\n      pop\n      pop\n      pop\n      jump\t// out\n        /* \"#utility.yul\":4125:4550   */\n    tag_97:\n        /* \"#utility.yul\":4203:4208   */\n      0x00\n        /* \"#utility.yul\":4228:4294   */\n      tag_177\n        /* \"#utility.yul\":4244:4293   */\n      tag_178\n        /* \"#utility.yul\":4286:4292   */\n      dup5\n        /* \"#utility.yul\":4244:4293   */\n      tag_95\n      jump\t// in\n    tag_178:\n        /* \"#utility.yul\":4228:4294   */\n      tag_94\n      jump\t// in\n    tag_177:\n        /* \"#utility.yul\":4219:4294   */\n      swap1\n      pop\n        /* \"#utility.yul\":4317:4323   */\n      dup3\n        /* \"#utility.yul\":4310:4315   */\n      dup2\n        /* \"#utility.yul\":4303:4324   */\n      mstore\n        /* \"#utility.yul\":4355:4359   */\n      0x20\n        /* \"#utility.yul\":4348:4353   */\n      dup2\n        /* \"#utility.yul\":4344:4360   */\n      add\n        /* \"#utility.yul\":4393:4396   */\n      dup5\n        /* \"#utility.yul\":4384:4390   */\n      dup5\n        /* \"#utility.yul\":4379:4382   */\n      dup5\n        /* \"#utility.yul\":4375:4391   */\n      add\n        /* \"#utility.yul\":4372:4397   */\n      gt\n        /* \"#utility.yul\":4369:4481   */\n      iszero\n      tag_179\n      jumpi\n        /* \"#utility.yul\":4400:4479   */\n      tag_180\n      tag_91\n      jump\t// in\n    tag_180:\n        /* \"#utility.yul\":4369:4481   */\n    tag_179:\n        /* \"#utility.yul\":4490:4544   */\n      tag_181\n        /* \"#utility.yul\":4537:4543   */\n      dup5\n        /* \"#utility.yul\":4532:4535   */\n      dup3\n        /* \"#utility.yul\":4527:4530   */\n      dup6\n        /* \"#utility.yul\":4490:4544   */\n      tag_96\n      jump\t// in\n    tag_181:\n        /* \"#utility.yul\":4209:4550   */\n      pop\n        /* \"#utility.yul\":4125:4550   */\n      swap4\n      swap3\n      pop\n      pop\n      pop\n      jump\t// out\n        /* \"#utility.yul\":4570:4910   */\n    tag_98:\n        /* \"#utility.yul\":4626:4631   */\n      0x00\n        /* \"#utility.yul\":4675:4678   */\n      dup3\n        /* \"#utility.yul\":4668:4672   */\n      0x1f\n        /* \"#utility.yul\":4660:4666   */\n      dup4\n        /* \"#utility.yul\":4656:4673   */\n      add\n        /* \"#utility.yul\":4652:4679   */\n      slt\n        /* \"#utility.yul\":4642:4764   */\n      tag_183\n      jumpi\n        /* \"#utility.yul\":4683:4762   */\n      tag_184\n      tag_90\n      jump\t// in\n    tag_184:\n        /* \"#utility.yul\":4642:4764   */\n    tag_183:\n        /* \"#utility.yul\":4800:4806   */\n      dup2\n        /* \"#utility.yul\":4787:4807   */\n      calldataload\n        /* \"#utility.yul\":4825:4904   */\n      tag_185\n        /* \"#utility.yul\":4900:4903   */\n      dup5\n        /* \"#utility.yul\":4892:4898   */\n      dup3\n        /* \"#utility.yul\":4885:4889   */\n      0x20\n        /* \"#utility.yul\":4877:4883   */\n      dup7\n        /* \"#utility.yul\":4873:4890   */\n      add\n        /* \"#utility.yul\":4825:4904   */\n      tag_97\n      jump\t// in\n    tag_185:\n        /* \"#utility.yul\":4816:4904   */\n      swap2\n      pop\n        /* \"#utility.yul\":4632:4910   */\n      pop\n        /* \"#utility.yul\":4570:4910   */\n      swap3\n      swap2\n      pop\n      pop\n      jump\t// out\n        /* \"#utility.yul\":4916:5425   */\n    tag_17:\n        /* \"#utility.yul\":4985:4991   */\n      0x00\n        /* \"#utility.yul\":5034:5036   */\n      0x20\n        /* \"#utility.yul\":5022:5031   */\n      dup3\n        /* \"#utility.yul\":5013:5020   */\n      dup5\n        /* \"#utility.yul\":5009:5032   */\n      sub\n        /* \"#utility.yul\":5005:5037   */\n      slt\n        /* \"#utility.yul\":5002:5121   */\n      iszero\n      tag_187\n      jumpi\n        /* \"#utility.yul\":5040:5119   */\n      tag_188\n      tag_77\n      jump\t// in\n    tag_188:\n        /* \"#utility.yul\":5002:5121   */\n    tag_187:\n        /* \"#utility.yul\":5188:5189   */\n      0x00\n        /* \"#utility.yul\":5177:5186   */\n      dup3\n        /* \"#utility.yul\":5173:5190   */\n      add\n        /* \"#utility.yul\":5160:5191   */\n      calldataload\n        /* \"#utility.yul\":5218:5236   */\n      0xffffffffffffffff\n        /* \"#utility.yul\":5210:5216   */\n      dup2\n        /* \"#utility.yul\":5207:5237   */\n      gt\n        /* \"#utility.yul\":5204:5321   */\n      iszero\n      tag_189\n      jumpi\n        /* \"#utility.yul\":5240:5319   */\n      tag_190\n      tag_78\n      jump\t// in\n    tag_190:\n        /* \"#utility.yul\":5204:5321   */\n    tag_189:\n        /* \"#utility.yul\":5345:5408   */\n      tag_191\n        /* \"#utility.yul\":5400:5407   */\n      dup5\n        /* \"#utility.yul\":5391:5397   */\n      dup3\n        /* \"#utility.yul\":5380:5389   */\n      dup6\n        /* \"#utility.yul\":5376:5398   */\n      add\n        /* \"#utility.yul\":5345:5408   */\n      tag_98\n      jump\t// in\n    tag_191:\n        /* \"#utility.yul\":5335:5408   */\n      swap2\n      pop\n        /* \"#utility.yul\":5131:5418   */\n      pop\n        /* \"#utility.yul\":4916:5425   */\n      swap3\n      swap2\n      pop\n      pop\n      jump\t// out\n        /* \"#utility.yul\":5431:5564   */\n    tag_99:\n        /* \"#utility.yul\":5517:5523   */\n      0x00\n        /* \"#utility.yul\":5551:5556   */\n      dup2\n        /* \"#utility.yul\":5545:5557   */\n      mload\n        /* \"#utility.yul\":5535:5557   */\n      swap1\n      pop\n        /* \"#utility.yul\":5431:5564   */\n      swap2\n      swap1\n      pop\n      jump\t// out\n        /* \"#utility.yul\":5570:5773   */\n    tag_100:\n        /* \"#utility.yul\":5688:5699   */\n      0x00\n        /* \"#utility.yul\":5722:5728   */\n      dup3\n        /* \"#utility.yul\":5717:5720   */\n      dup3\n        /* \"#utility.yul\":5710:5729   */\n      mstore\n        /* \"#utility.yul\":5762:5766   */\n      0x20\n        /* \"#utility.yul\":5757:5760   */\n      dup3\n        /* \"#utility.yul\":5753:5767   */\n      add\n        /* \"#utility.yul\":5738:5767   */\n      swap1\n      pop\n        /* \"#utility.yul\":5570:5773   */\n      swap3\n      swap2\n      pop\n      pop\n      jump\t// out\n        /* \"#utility.yul\":5779:5930   */\n    tag_101:\n        /* \"#utility.yul\":5865:5869   */\n      0x00\n        /* \"#utility.yul\":5888:5891   */\n      dup2\n        /* \"#utility.yul\":5880:5891   */\n      swap1\n      pop\n        /* \"#utility.yul\":5918:5922   */\n      0x20\n        /* \"#utility.yul\":5913:5916   */\n      dup3\n        /* \"#utility.yul\":5909:5923   */\n      add\n        /* \"#utility.yul\":5901:5923   */\n      swap1\n      pop\n        /* \"#utility.yul\":5779:5930   */\n      swap2\n      swap1\n      pop\n      jump\t// out\n        /* \"#utility.yul\":5936:6044   */\n    tag_102:\n        /* \"#utility.yul\":6013:6037   */\n      tag_196\n        /* \"#utility.yul\":6031:6036   */\n      dup2\n        /* \"#utility.yul\":6013:6037   */\n      tag_79\n      jump\t// in\n    tag_196:\n        /* \"#utility.yul\":6008:6011   */\n      dup3\n        /* \"#utility.yul\":6001:6038   */\n      mstore\n        /* \"#utility.yul\":5936:6044   */\n      pop\n      pop\n      jump\t// out\n        /* \"#utility.yul\":6050:6209   */\n    tag_103:\n        /* \"#utility.yul\":6124:6135   */\n      0x00\n        /* \"#utility.yul\":6158:6164   */\n      dup3\n        /* \"#utility.yul\":6153:6156   */\n      dup3\n        /* \"#utility.yul\":6146:6165   */\n      mstore\n        /* \"#utility.yul\":6198:6202   */\n      0x20\n        /* \"#utility.yul\":6193:6196   */\n      dup3\n        /* \"#utility.yul\":6189:6203   */\n      add\n        /* \"#utility.yul\":6174:6203   */\n      swap1\n      pop\n        /* \"#utility.yul\":6050:6209   */\n      swap3\n      swap2\n      pop\n      pop\n      jump\t// out\n        /* \"#utility.yul\":6215:6572   */\n    tag_104:\n        /* \"#utility.yul\":6293:6296   */\n      0x00\n        /* \"#utility.yul\":6321:6360   */\n      tag_199\n        /* \"#utility.yul\":6354:6359   */\n      dup3\n        /* \"#utility.yul\":6321:6360   */\n      tag_83\n      jump\t// in\n    tag_199:\n        /* \"#utility.yul\":6376:6437   */\n      tag_200\n        /* \"#utility.yul\":6430:6436   */\n      dup2\n        /* \"#utility.yul\":6425:6428   */\n      dup6\n        /* \"#utility.yul\":6376:6437   */\n      tag_103\n      jump\t// in\n    tag_200:\n        /* \"#utility.yul\":6369:6437   */\n      swap4\n      pop\n        /* \"#utility.yul\":6446:6511   */\n      tag_201\n        /* \"#utility.yul\":6504:6510   */\n      dup2\n        /* \"#utility.yul\":6499:6502   */\n      dup6\n        /* \"#utility.yul\":6492:6496   */\n      0x20\n        /* \"#utility.yul\":6485:6490   */\n      dup7\n        /* \"#utility.yul\":6481:6497   */\n      add\n        /* \"#utility.yul\":6446:6511   */\n      tag_85\n      jump\t// in\n    tag_201:\n        /* \"#utility.yul\":6536:6565   */\n      tag_202\n        /* \"#utility.yul\":6558:6564   */\n      dup2\n        /* \"#utility.yul\":6536:6565   */\n      tag_86\n      jump\t// in\n    tag_202:\n        /* \"#utility.yul\":6531:6534   */\n      dup5\n        /* \"#utility.yul\":6527:6566   */\n      add\n        /* \"#utility.yul\":6520:6566   */\n      swap2\n      pop\n        /* \"#utility.yul\":6297:6572   */\n      pop\n        /* \"#utility.yul\":6215:6572   */\n      swap3\n      swap2\n      pop\n      pop\n      jump\t// out\n        /* \"#utility.yul\":6578:6677   */\n    tag_105:\n        /* \"#utility.yul\":6649:6670   */\n      tag_204\n        /* \"#utility.yul\":6664:6669   */\n      dup2\n        /* \"#utility.yul\":6649:6670   */\n      tag_88\n      jump\t// in\n    tag_204:\n        /* \"#utility.yul\":6644:6647   */\n      dup3\n        /* \"#utility.yul\":6637:6671   */\n      mstore\n        /* \"#utility.yul\":6578:6677   */\n      pop\n      pop\n      jump\t// out\n        /* \"#utility.yul\":6741:7505   */\n    tag_106:\n        /* \"#utility.yul\":6838:6841   */\n      0x00\n        /* \"#utility.yul\":6874:6878   */\n      0x60\n        /* \"#utility.yul\":6869:6872   */\n      dup4\n        /* \"#utility.yul\":6865:6879   */\n      add\n        /* \"#utility.yul\":6959:6963   */\n      0x00\n        /* \"#utility.yul\":6952:6957   */\n      dup4\n        /* \"#utility.yul\":6948:6964   */\n      add\n        /* \"#utility.yul\":6942:6965   */\n      mload\n        /* \"#utility.yul\":6978:7041   */\n      tag_206\n        /* \"#utility.yul\":7035:7039   */\n      0x00\n        /* \"#utility.yul\":7030:7033   */\n      dup7\n        /* \"#utility.yul\":7026:7040   */\n      add\n        /* \"#utility.yul\":7012:7024   */\n      dup3\n        /* \"#utility.yul\":6978:7041   */\n      tag_102\n      jump\t// in\n    tag_206:\n        /* \"#utility.yul\":6889:7051   */\n      pop\n        /* \"#utility.yul\":7140:7144   */\n      0x20\n        /* \"#utility.yul\":7133:7138   */\n      dup4\n        /* \"#utility.yul\":7129:7145   */\n      add\n        /* \"#utility.yul\":7123:7146   */\n      mload\n        /* \"#utility.yul\":7193:7196   */\n      dup5\n        /* \"#utility.yul\":7187:7191   */\n      dup3\n        /* \"#utility.yul\":7183:7197   */\n      sub\n        /* \"#utility.yul\":7176:7180   */\n      0x20\n        /* \"#utility.yul\":7171:7174   */\n      dup7\n        /* \"#utility.yul\":7167:7181   */\n      add\n        /* \"#utility.yul\":7160:7198   */\n      mstore\n        /* \"#utility.yul\":7219:7292   */\n      tag_207\n        /* \"#utility.yul\":7287:7291   */\n      dup3\n        /* \"#utility.yul\":7273:7285   */\n      dup3\n        /* \"#utility.yul\":7219:7292   */\n      tag_104\n      jump\t// in\n    tag_207:\n        /* \"#utility.yul\":7211:7292   */\n      swap2\n      pop\n        /* \"#utility.yul\":7061:7303   */\n      pop\n        /* \"#utility.yul\":7392:7396   */\n      0x40\n        /* \"#utility.yul\":7385:7390   */\n      dup4\n        /* \"#utility.yul\":7381:7397   */\n      add\n        /* \"#utility.yul\":7375:7398   */\n      mload\n        /* \"#utility.yul\":7411:7468   */\n      tag_208\n        /* \"#utility.yul\":7462:7466   */\n      0x40\n        /* \"#utility.yul\":7457:7460   */\n      dup7\n        /* \"#utility.yul\":7453:7467   */\n      add\n        /* \"#utility.yul\":7439:7451   */\n      dup3\n        /* \"#utility.yul\":7411:7468   */\n      tag_105\n      jump\t// in\n    tag_208:\n        /* \"#utility.yul\":7313:7478   */\n      pop\n        /* \"#utility.yul\":7495:7499   */\n      dup1\n        /* \"#utility.yul\":7488:7499   */\n      swap2\n      pop\n        /* \"#utility.yul\":6843:7505   */\n      pop\n        /* \"#utility.yul\":6741:7505   */\n      swap3\n      swap2\n      pop\n      pop\n      jump\t// out\n        /* \"#utility.yul\":7511:7743   */\n    tag_107:\n        /* \"#utility.yul\":7618:7628   */\n      0x00\n        /* \"#utility.yul\":7653:7737   */\n      tag_210\n        /* \"#utility.yul\":7733:7736   */\n      dup4\n        /* \"#utility.yul\":7725:7731   */\n      dup4\n        /* \"#utility.yul\":7653:7737   */\n      tag_106\n      jump\t// in\n    tag_210:\n        /* \"#utility.yul\":7639:7737   */\n      swap1\n      pop\n        /* \"#utility.yul\":7511:7743   */\n      swap3\n      swap2\n      pop\n      pop\n      jump\t// out\n        /* \"#utility.yul\":7749:7881   */\n    tag_108:\n        /* \"#utility.yul\":7838:7842   */\n      0x00\n        /* \"#utility.yul\":7870:7874   */\n      0x20\n        /* \"#utility.yul\":7865:7868   */\n      dup3\n        /* \"#utility.yul\":7861:7875   */\n      add\n        /* \"#utility.yul\":7853:7875   */\n      swap1\n      pop\n        /* \"#utility.yul\":7749:7881   */\n      swap2\n      swap1\n      pop\n      jump\t// out\n        /* \"#utility.yul\":7949:9012   */\n    tag_109:\n        /* \"#utility.yul\":8106:8109   */\n      0x00\n        /* \"#utility.yul\":8135:8208   */\n      tag_213\n        /* \"#utility.yul\":8202:8207   */\n      dup3\n        /* \"#utility.yul\":8135:8208   */\n      tag_99\n      jump\t// in\n    tag_213:\n        /* \"#utility.yul\":8224:8329   */\n      tag_214\n        /* \"#utility.yul\":8322:8328   */\n      dup2\n        /* \"#utility.yul\":8317:8320   */\n      dup6\n        /* \"#utility.yul\":8224:8329   */\n      tag_100\n      jump\t// in\n    tag_214:\n        /* \"#utility.yul\":8217:8329   */\n      swap4\n      pop\n        /* \"#utility.yul\":8355:8358   */\n      dup4\n        /* \"#utility.yul\":8400:8404   */\n      0x20\n        /* \"#utility.yul\":8392:8398   */\n      dup3\n        /* \"#utility.yul\":8388:8405   */\n      mul\n        /* \"#utility.yul\":8383:8386   */\n      dup6\n        /* \"#utility.yul\":8379:8406   */\n      add\n        /* \"#utility.yul\":8430:8505   */\n      tag_215\n        /* \"#utility.yul\":8499:8504   */\n      dup6\n        /* \"#utility.yul\":8430:8505   */\n      tag_101\n      jump\t// in\n    tag_215:\n        /* \"#utility.yul\":8528:8535   */\n      dup1\n        /* \"#utility.yul\":8559:8560   */\n      0x00\n        /* \"#utility.yul\":8544:8967   */\n    tag_216:\n        /* \"#utility.yul\":8569:8575   */\n      dup6\n        /* \"#utility.yul\":8566:8567   */\n      dup2\n        /* \"#utility.yul\":8563:8576   */\n      lt\n        /* \"#utility.yul\":8544:8967   */\n      iszero\n      tag_218\n      jumpi\n        /* \"#utility.yul\":8640:8649   */\n      dup5\n        /* \"#utility.yul\":8634:8638   */\n      dup5\n        /* \"#utility.yul\":8630:8650   */\n      sub\n        /* \"#utility.yul\":8625:8628   */\n      dup10\n        /* \"#utility.yul\":8618:8651   */\n      mstore\n        /* \"#utility.yul\":8691:8697   */\n      dup2\n        /* \"#utility.yul\":8685:8698   */\n      mload\n        /* \"#utility.yul\":8719:8821   */\n      tag_219\n        /* \"#utility.yul\":8816:8820   */\n      dup6\n        /* \"#utility.yul\":8801:8814   */\n      dup3\n        /* \"#utility.yul\":8719:8821   */\n      tag_107\n      jump\t// in\n    tag_219:\n        /* \"#utility.yul\":8711:8821   */\n      swap5\n      pop\n        /* \"#utility.yul\":8844:8923   */\n      tag_220\n        /* \"#utility.yul\":8916:8922   */\n      dup4\n        /* \"#utility.yul\":8844:8923   */\n      tag_108\n      jump\t// in\n    tag_220:\n        /* \"#utility.yul\":8834:8923   */\n      swap3\n      pop\n        /* \"#utility.yul\":8952:8956   */\n      0x20\n        /* \"#utility.yul\":8947:8950   */\n      dup11\n        /* \"#utility.yul\":8943:8957   */\n      add\n        /* \"#utility.yul\":8936:8957   */\n      swap10\n      pop\n        /* \"#utility.yul\":8604:8967   */\n      pop\n        /* \"#utility.yul\":8591:8592   */\n      0x01\n        /* \"#utility.yul\":8588:8589   */\n      dup2\n        /* \"#utility.yul\":8584:8593   */\n      add\n        /* \"#utility.yul\":8579:8593   */\n      swap1\n      pop\n        /* \"#utility.yul\":8544:8967   */\n      jump(tag_216)\n    tag_218:\n        /* \"#utility.yul\":8548:8562   */\n      pop\n        /* \"#utility.yul\":8983:8987   */\n      dup3\n        /* \"#utility.yul\":8976:8987   */\n      swap8\n      pop\n        /* \"#utility.yul\":9003:9006   */\n      dup8\n        /* \"#utility.yul\":8996:9006   */\n      swap6\n      pop\n        /* \"#utility.yul\":8111:9012   */\n      pop\n      pop\n      pop\n      pop\n      pop\n        /* \"#utility.yul\":7949:9012   */\n      swap3\n      swap2\n      pop\n      pop\n      jump\t// out\n        /* \"#utility.yul\":9018:9467   */\n    tag_22:\n        /* \"#utility.yul\":9199:9203   */\n      0x00\n        /* \"#utility.yul\":9237:9239   */\n      0x20\n        /* \"#utility.yul\":9226:9235   */\n      dup3\n        /* \"#utility.yul\":9222:9240   */\n      add\n        /* \"#utility.yul\":9214:9240   */\n      swap1\n      pop\n        /* \"#utility.yul\":9286:9295   */\n      dup2\n        /* \"#utility.yul\":9280:9284   */\n      dup2\n        /* \"#utility.yul\":9276:9296   */\n      sub\n        /* \"#utility.yul\":9272:9273   */\n      0x00\n        /* \"#utility.yul\":9261:9270   */\n      dup4\n        /* \"#utility.yul\":9257:9274   */\n      add\n        /* \"#utility.yul\":9250:9297   */\n      mstore\n        /* \"#utility.yul\":9314:9460   */\n      tag_222\n        /* \"#utility.yul\":9455:9459   */\n      dup2\n        /* \"#utility.yul\":9446:9452   */\n      dup5\n        /* \"#utility.yul\":9314:9460   */\n      tag_109\n      jump\t// in\n    tag_222:\n        /* \"#utility.yul\":9306:9460   */\n      swap1\n      pop\n        /* \"#utility.yul\":9018:9467   */\n      swap3\n      swap2\n      pop\n      pop\n      jump\t// out\n        /* \"#utility.yul\":9473:9695   */\n    tag_30:\n        /* \"#utility.yul\":9566:9570   */\n      0x00\n        /* \"#utility.yul\":9604:9606   */\n      0x20\n        /* \"#utility.yul\":9593:9602   */\n      dup3\n        /* \"#utility.yul\":9589:9607   */\n      add\n        /* \"#utility.yul\":9581:9607   */\n      swap1\n      pop\n        /* \"#utility.yul\":9617:9688   */\n      tag_224\n        /* \"#utility.yul\":9685:9686   */\n      0x00\n        /* \"#utility.yul\":9674:9683   */\n      dup4\n        /* \"#utility.yul\":9670:9687   */\n      add\n        /* \"#utility.yul\":9661:9667   */\n      dup5\n        /* \"#utility.yul\":9617:9688   */\n      tag_82\n      jump\t// in\n    tag_224:\n        /* \"#utility.yul\":9473:9695   */\n      swap3\n      swap2\n      pop\n      pop\n      jump\t// out\n        /* \"#utility.yul\":9701:9870   */\n    tag_110:\n        /* \"#utility.yul\":9841:9862   */\n      0x5461736b20646f6573206e6f7420657869737400000000000000000000000000\n        /* \"#utility.yul\":9837:9838   */\n      0x00\n        /* \"#utility.yul\":9829:9835   */\n      dup3\n        /* \"#utility.yul\":9825:9839   */\n      add\n        /* \"#utility.yul\":9818:9863   */\n      mstore\n        /* \"#utility.yul\":9701:9870   */\n      pop\n      jump\t// out\n        /* \"#utility.yul\":9876:10242   */\n    tag_111:\n        /* \"#utility.yul\":10018:10021   */\n      0x00\n        /* \"#utility.yul\":10039:10106   */\n      tag_227\n        /* \"#utility.yul\":10103:10105   */\n      0x13\n        /* \"#utility.yul\":10098:10101   */\n      dup4\n        /* \"#utility.yul\":10039:10106   */\n      tag_84\n      jump\t// in\n    tag_227:\n        /* \"#utility.yul\":10032:10106   */\n      swap2\n      pop\n        /* \"#utility.yul\":10115:10208   */\n      tag_228\n        /* \"#utility.yul\":10204:10207   */\n      dup3\n        /* \"#utility.yul\":10115:10208   */\n      tag_110\n      jump\t// in\n    tag_228:\n        /* \"#utility.yul\":10233:10235   */\n      0x20\n        /* \"#utility.yul\":10228:10231   */\n      dup3\n        /* \"#utility.yul\":10224:10236   */\n      add\n        /* \"#utility.yul\":10217:10236   */\n      swap1\n      pop\n        /* \"#utility.yul\":9876:10242   */\n      swap2\n      swap1\n      pop\n      jump\t// out\n        /* \"#utility.yul\":10248:10667   */\n    tag_37:\n        /* \"#utility.yul\":10414:10418   */\n      0x00\n        /* \"#utility.yul\":10452:10454   */\n      0x20\n        /* \"#utility.yul\":10441:10450   */\n      dup3\n        /* \"#utility.yul\":10437:10455   */\n      add\n        /* \"#utility.yul\":10429:10455   */\n      swap1\n      pop\n        /* \"#utility.yul\":10501:10510   */\n      dup2\n        /* \"#utility.yul\":10495:10499   */\n      dup2\n        /* \"#utility.yul\":10491:10511   */\n      sub\n        /* \"#utility.yul\":10487:10488   */\n      0x00\n        /* \"#utility.yul\":10476:10485   */\n      dup4\n        /* \"#utility.yul\":10472:10489   */\n      add\n        /* \"#utility.yul\":10465:10512   */\n      mstore\n        /* \"#utility.yul\":10529:10660   */\n      tag_230\n        /* \"#utility.yul\":10655:10659   */\n      dup2\n        /* \"#utility.yul\":10529:10660   */\n      tag_111\n      jump\t// in\n    tag_230:\n        /* \"#utility.yul\":10521:10660   */\n      swap1\n      pop\n        /* \"#utility.yul\":10248:10667   */\n      swap2\n      swap1\n      pop\n      jump\t// out\n        /* \"#utility.yul\":10673:10853   */\n    tag_40:\n        /* \"#utility.yul\":10721:10798   */\n      0x4e487b7100000000000000000000000000000000000000000000000000000000\n        /* \"#utility.yul\":10718:10719   */\n      0x00\n        /* \"#utility.yul\":10711:10799   */\n      mstore\n        /* \"#utility.yul\":10818:10822   */\n      0x32\n        /* \"#utility.yul\":10815:10816   */\n      0x04\n        /* \"#utility.yul\":10808:10823   */\n      mstore\n        /* \"#utility.yul\":10842:10846   */\n      0x24\n        /* \"#utility.yul\":10839:10840   */\n      0x00\n        /* \"#utility.yul\":10832:10847   */\n      revert\n        /* \"#utility.yul\":10859:11039   */\n    tag_112:\n        /* \"#utility.yul\":10907:10984   */\n      0x4e487b7100000000000000000000000000000000000000000000000000000000\n        /* \"#utility.yul\":10904:10905   */\n      0x00\n        /* \"#utility.yul\":10897:10985   */\n      mstore\n        /* \"#utility.yul\":11004:11008   */\n      0x22\n        /* \"#utility.yul\":11001:11002   */\n      0x04\n        /* \"#utility.yul\":10994:11009   */\n      mstore\n        /* \"#utility.yul\":11028:11032   */\n      0x24\n        /* \"#utility.yul\":11025:11026   */\n      0x00\n        /* \"#utility.yul\":11018:11033   */\n      revert\n        /* \"#utility.yul\":11045:11365   */\n    tag_43:\n        /* \"#utility.yul\":11089:11095   */\n      0x00\n        /* \"#utility.yul\":11126:11127   */\n      0x02\n        /* \"#utility.yul\":11120:11124   */\n      dup3\n        /* \"#utility.yul\":11116:11128   */\n      div\n        /* \"#utility.yul\":11106:11128   */\n      swap1\n      pop\n        /* \"#utility.yul\":11173:11174   */\n      0x01\n        /* \"#utility.yul\":11167:11171   */\n      dup3\n        /* \"#utility.yul\":11163:11175   */\n      and\n        /* \"#utility.yul\":11194:11212   */\n      dup1\n        /* \"#utility.yul\":11184:11265   */\n      tag_234\n      jumpi\n        /* \"#utility.yul\":11250:11254   */\n      0x7f\n        /* \"#utility.yul\":11242:11248   */\n      dup3\n        /* \"#utility.yul\":11238:11255   */\n      and\n        /* \"#utility.yul\":11228:11255   */\n      swap2\n      pop\n        /* \"#utility.yul\":11184:11265   */\n    tag_234:\n        /* \"#utility.yul\":11312:11314   */\n      0x20\n        /* \"#utility.yul\":11304:11310   */\n      dup3\n        /* \"#utility.yul\":11301:11315   */\n      lt\n        /* \"#utility.yul\":11281:11299   */\n      dup2\n        /* \"#utility.yul\":11278:11316   */\n      sub\n        /* \"#utility.yul\":11275:11359   */\n      tag_235\n      jumpi\n        /* \"#utility.yul\":11331:11349   */\n      tag_236\n      tag_112\n      jump\t// in\n    tag_236:\n        /* \"#utility.yul\":11275:11359   */\n    tag_235:\n        /* \"#utility.yul\":11096:11365   */\n      pop\n        /* \"#utility.yul\":11045:11365   */\n      swap2\n      swap1\n      pop\n      jump\t// out\n        /* \"#utility.yul\":11371:11512   */\n    tag_113:\n        /* \"#utility.yul\":11420:11424   */\n      0x00\n        /* \"#utility.yul\":11443:11446   */\n      dup2\n        /* \"#utility.yul\":11435:11446   */\n      swap1\n      pop\n        /* \"#utility.yul\":11466:11469   */\n      dup2\n        /* \"#utility.yul\":11463:11464   */\n      0x00\n        /* \"#utility.yul\":11456:11470   */\n      mstore\n        /* \"#utility.yul\":11500:11504   */\n      0x20\n        /* \"#utility.yul\":11497:11498   */\n      0x00\n        /* \"#utility.yul\":11487:11505   */\n      keccak256\n        /* \"#utility.yul\":11479:11505   */\n      swap1\n      pop\n        /* \"#utility.yul\":11371:11512   */\n      swap2\n      swap1\n      pop\n      jump\t// out\n        /* \"#utility.yul\":11518:11611   */\n    tag_114:\n        /* \"#utility.yul\":11555:11561   */\n      0x00\n        /* \"#utility.yul\":11602:11604   */\n      0x20\n        /* \"#utility.yul\":11597:11599   */\n      0x1f\n        /* \"#utility.yul\":11590:11595   */\n      dup4\n        /* \"#utility.yul\":11586:11600   */\n      add\n        /* \"#utility.yul\":11582:11605   */\n      div\n        /* \"#utility.yul\":11572:11605   */\n      swap1\n      pop\n        /* \"#utility.yul\":11518:11611   */\n      swap2\n      swap1\n      pop\n      jump\t// out\n        /* \"#utility.yul\":11617:11724   */\n    tag_115:\n        /* \"#utility.yul\":11661:11669   */\n      0x00\n        /* \"#utility.yul\":11711:11716   */\n      dup3\n        /* \"#utility.yul\":11705:11709   */\n      dup3\n        /* \"#utility.yul\":11701:11717   */\n      shl\n        /* \"#utility.yul\":11680:11717   */\n      swap1\n      pop\n        /* \"#utility.yul\":11617:11724   */\n      swap3\n      swap2\n      pop\n      pop\n      jump\t// out\n        /* \"#utility.yul\":11730:12123   */\n    tag_116:\n        /* \"#utility.yul\":11799:11805   */\n      0x00\n        /* \"#utility.yul\":11849:11850   */\n      0x08\n        /* \"#utility.yul\":11837:11847   */\n      dup4\n        /* \"#utility.yul\":11833:11851   */\n      mul\n        /* \"#utility.yul\":11872:11969   */\n      tag_241\n        /* \"#utility.yul\":11902:11968   */\n      0xffffffffffffffffffffffffffffffffffffffffffffffffffffffffffffffff\n        /* \"#utility.yul\":11891:11900   */\n      dup3\n        /* \"#utility.yul\":11872:11969   */\n      tag_115\n      jump\t// in\n    tag_241:\n        /* \"#utility.yul\":11990:12029   */\n      tag_242\n        /* \"#utility.yul\":12020:12028   */\n      dup7\n        /* \"#utility.yul\":12009:12018   */\n      dup4\n        /* \"#utility.yul\":11990:12029   */\n      tag_115\n      jump\t// in\n    tag_242:\n        /* \"#utility.yul\":11978:12029   */\n      swap6\n      pop\n        /* \"#utility.yul\":12062:12066   */\n      dup1\n        /* \"#utility.yul\":12058:12067   */\n      not\n        /* \"#utility.yul\":12051:12056   */\n      dup5\n        /* \"#utility.yul\":12047:12068   */\n      and\n        /* \"#utility.yul\":12038:12068   */\n      swap4\n      pop\n        /* \"#utility.yul\":12111:12115   */\n      dup1\n        /* \"#utility.yul\":12101:12109   */\n      dup7\n        /* \"#utility.yul\":12097:12116   */\n      and\n        /* \"#utility.yul\":12090:12095   */\n      dup5\n        /* \"#utility.yul\":12087:12117   */\n      or\n        /* \"#utility.yul\":12077:12117   */\n      swap3\n      pop\n        /* \"#utility.yul\":11806:12123   */\n      pop\n      pop\n        /* \"#utility.yul\":11730:12123   */\n      swap4\n      swap3\n      pop\n      pop\n      pop\n      jump\t// out\n        /* \"#utility.yul\":12129:12189   */\n    tag_117:\n        /* \"#utility.yul\":12157:12160   */\n      0x00\n        /* \"#utility.yul\":12178:12183   */\n      dup2\n        /* \"#utility.yul\":12171:12183   */\n      swap1\n      pop\n        /* \"#utility.yul\":12129:12189   */\n      swap2\n      swap1\n      pop\n      jump\t// out\n        /* \"#utility.yul\":12195:12337   */\n    tag_118:\n        /* \"#utility.yul\":12245:12254   */\n      0x00\n        /* \"#utility.yul\":12278:12331   */\n      tag_245\n        /* \"#utility.yul\":12296:12330   */\n      tag_246\n        /* \"#utility.yul\":12305:12329   */\n      tag_247\n        /* \"#utility.yul\":12323:12328   */\n      dup5\n        /* \"#utility.yul\":12305:12329   */\n      tag_79\n      jump\t// in\n    tag_247:\n        /* \"#utility.yul\":12296:12330   */\n      tag_117\n      jump\t// in\n    tag_246:\n        /* \"#utility.yul\":12278:12331   */\n      tag_79\n      jump\t// in\n    tag_245:\n        /* \"#utility.yul\":12265:12331   */\n      swap1\n      pop\n        /* \"#utility.yul\":12195:12337   */\n      swap2\n      swap1\n      pop\n      jump\t// out\n        /* \"#utility.yul\":12343:12418   */\n    tag_119:\n        /* \"#utility.yul\":12386:12389   */\n      0x00\n        /* \"#utility.yul\":12407:12412   */\n      dup2\n        /* \"#utility.yul\":12400:12412   */\n      swap1\n      pop\n        /* \"#utility.yul\":12343:12418   */\n      swap2\n      swap1\n      pop\n      jump\t// out\n        /* \"#utility.yul\":12424:12693   */\n    tag_120:\n        /* \"#utility.yul\":12534:12573   */\n      tag_250\n        /* \"#utility.yul\":12565:12572   */\n      dup4\n        /* \"#utility.yul\":12534:12573   */\n      tag_118\n      jump\t// in\n    tag_250:\n        /* \"#utility.yul\":12595:12686   */\n      tag_251\n        /* \"#utility.yul\":12644:12685   */\n      tag_252\n        /* \"#utility.yul\":12668:12684   */\n      dup3\n        /* \"#utility.yul\":12644:12685   */\n      tag_119\n      jump\t// in\n    tag_252:\n        /* \"#utility.yul\":12636:12642   */\n      dup5\n        /* \"#utility.yul\":12629:12633   */\n      dup5\n        /* \"#utility.yul\":12623:12634   */\n      sload\n        /* \"#utility.yul\":12595:12686   */\n      tag_116\n      jump\t// in\n    tag_251:\n        /* \"#utility.yul\":12589:12593   */\n      dup3\n        /* \"#utility.yul\":12582:12687   */\n      sstore\n        /* \"#utility.yul\":12500:12693   */\n      pop\n        /* \"#utility.yul\":12424:12693   */\n      pop\n      pop\n      pop\n      jump\t// out\n        /* \"#utility.yul\":12699:12772   */\n    tag_121:\n        /* \"#utility.yul\":12744:12747   */\n      0x00\n        /* \"#utility.yul\":12699:12772   */\n      swap1\n      jump\t// out\n        /* \"#utility.yul\":12778:12967   */\n    tag_122:\n        /* \"#utility.yul\":12855:12887   */\n      tag_255\n      tag_121\n      jump\t// in\n    tag_255:\n        /* \"#utility.yul\":12896:12961   */\n      tag_256\n        /* \"#utility.yul\":12954:12960   */\n      dup2\n        /* \"#utility.yul\":12946:12952   */\n      dup5\n        /* \"#utility.yul\":12940:12944   */\n      dup5\n        /* \"#utility.yul\":12896:12961   */\n      tag_120\n      jump\t// in\n    tag_256:\n        /* \"#utility.yul\":12831:12967   */\n      pop\n        /* \"#utility.yul\":12778:12967   */\n      pop\n      pop\n      jump\t// out\n        /* \"#utility.yul\":12973:13159   */\n    tag_123:\n        /* \"#utility.yul\":13033:13153   */\n    tag_258:\n        /* \"#utility.yul\":13050:13053   */\n      dup2\n        /* \"#utility.yul\":13043:13048   */\n      dup2\n        /* \"#utility.yul\":13040:13054   */\n      lt\n        /* \"#utility.yul\":13033:13153   */\n      iszero\n      tag_260\n      jumpi\n        /* \"#utility.yul\":13104:13143   */\n      tag_261\n        /* \"#utility.yul\":13141:13142   */\n      0x00\n        /* \"#utility.yul\":13134:13139   */\n      dup3\n        /* \"#utility.yul\":13104:13143   */\n      tag_122\n      jump\t// in\n    tag_261:\n        /* \"#utility.yul\":13077:13078   */\n      0x01\n        /* \"#utility.yul\":13070:13075   */\n      dup2\n        /* \"#utility.yul\":13066:13079   */\n      add\n        /* \"#utility.yul\":13057:13079   */\n      swap1\n      pop\n        /* \"#utility.yul\":13033:13153   */\n      jump(tag_258)\n    tag_260:\n        /* \"#utility.yul\":12973:13159   */\n      pop\n      pop\n      jump\t// out\n        /* \"#utility.yul\":13165:13708   */\n    tag_124:\n        /* \"#utility.yul\":13266:13268   */\n      0x1f\n        /* \"#utility.yul\":13261:13264   */\n      dup3\n        /* \"#utility.yul\":13258:13269   */\n      gt\n        /* \"#utility.yul\":13255:13701   */\n      iszero\n      tag_263\n      jumpi\n        /* \"#utility.yul\":13300:13338   */\n      tag_264\n        /* \"#utility.yul\":13332:13337   */\n      dup2\n        /* \"#utility.yul\":13300:13338   */\n      tag_113\n      jump\t// in\n    tag_264:\n        /* \"#utility.yul\":13384:13413   */\n      tag_265\n        /* \"#utility.yul\":13402:13412   */\n      dup5\n        /* \"#utility.yul\":13384:13413   */\n      tag_114\n      jump\t// in\n    tag_265:\n        /* \"#utility.yul\":13374:13382   */\n      dup2\n        /* \"#utility.yul\":13370:13414   */\n      add\n        /* \"#utility.yul\":13567:13569   */\n      0x20\n        /* \"#utility.yul\":13555:13565   */\n      dup6\n        /* \"#utility.yul\":13552:13570   */\n      lt\n        /* \"#utility.yul\":13549:13598   */\n      iszero\n      tag_266\n      jumpi\n        /* \"#utility.yul\":13588:13596   */\n      dup2\n        /* \"#utility.yul\":13573:13596   */\n      swap1\n      pop\n        /* \"#utility.yul\":13549:13598   */\n    tag_266:\n        /* \"#utility.yul\":13611:13691   */\n      tag_267\n        /* \"#utility.yul\":13667:13689   */\n      tag_268\n        /* \"#utility.yul\":13685:13688   */\n      dup6\n        /* \"#utility.yul\":13667:13689   */\n      tag_114\n      jump\t// in\n    tag_268:\n        /* \"#utility.yul\":13657:13665   */\n      dup4\n        /* \"#utility.yul\":13653:13690   */\n      add\n        /* \"#utility.yul\":13640:13651   */\n      dup3\n        /* \"#utility.yul\":13611:13691   */\n      tag_123\n      jump\t// in\n    tag_267:\n        /* \"#utility.yul\":13270:13701   */\n      pop\n      pop\n        /* \"#utility.yul\":13255:13701   */\n    tag_263:\n        /* \"#utility.yul\":13165:13708   */\n      pop\n      pop\n      pop\n      jump\t// out\n        /* \"#utility.yul\":13714:13831   */\n    tag_125:\n        /* \"#utility.yul\":13768:13776   */\n      0x00\n        /* \"#utility.yul\":13818:13823   */\n      dup3\n        /* \"#utility.yul\":13812:13816   */\n      dup3\n        /* \"#utility.yul\":13808:13824   */\n      shr\n        /* \"#utility.yul\":13787:13824   */\n      swap1\n      pop\n        /* \"#utility.yul\":13714:13831   */\n      swap3\n      swap2\n      pop\n      pop\n      jump\t// out\n        /* \"#utility.yul\":13837:14006   */\n    tag_126:\n        /* \"#utility.yul\":13881:13887   */\n      0x00\n        /* \"#utility.yul\":13914:13965   */\n      tag_271\n        /* \"#utility.yul\":13962:13963   */\n      0x00\n        /* \"#utility.yul\":13958:13964   */\n      not\n        /* \"#utility.yul\":13950:13955   */\n      dup5\n        /* \"#utility.yul\":13947:13948   */\n      0x08\n        /* \"#utility.yul\":13943:13956   */\n      mul\n        /* \"#utility.yul\":13914:13965   */\n      tag_125\n      jump\t// in\n    tag_271:\n        /* \"#utility.yul\":13910:13966   */\n      not\n        /* \"#utility.yul\":13995:13999   */\n      dup1\n        /* \"#utility.yul\":13989:13993   */\n      dup4\n        /* \"#utility.yul\":13985:14000   */\n      and\n        /* \"#utility.yul\":13975:14000   */\n      swap2\n      pop\n        /* \"#utility.yul\":13888:14006   */\n      pop\n        /* \"#utility.yul\":13837:14006   */\n      swap3\n      swap2\n      pop\n      pop\n      jump\t// out\n        /* \"#utility.yul\":14011:14306   */\n    tag_127:\n        /* \"#utility.yul\":14087:14091   */\n      0x00\n        /* \"#utility.yul\":14233:14262   */\n      tag_273\n        /* \"#utility.yul\":14258:14261   */\n      dup4\n        /* \"#utility.yul\":14252:14256   */\n      dup4\n        /* \"#utility.yul\":14233:14262   */\n      tag_126\n      jump\t// in\n    tag_273:\n        /* \"#utility.yul\":14225:14262   */\n      swap2\n      pop\n        /* \"#utility.yul\":14295:14298   */\n      dup3\n        /* \"#utility.yul\":14292:14293   */\n      0x02\n        /* \"#utility.yul\":14288:14299   */\n      mul\n        /* \"#utility.yul\":14282:14286   */\n      dup3\n        /* \"#utility.yul\":14279:14300   */\n      or\n        /* \"#utility.yul\":14271:14300   */\n      swap1\n      pop\n        /* \"#utility.yul\":14011:14306   */\n      swap3\n      swap2\n      pop\n      pop\n      jump\t// out\n        /* \"#utility.yul\":14311:15706   */\n    tag_51:\n        /* \"#utility.yul\":14428:14465   */\n      tag_275\n        /* \"#utility.yul\":14461:14464   */\n      dup3\n        /* \"#utility.yul\":14428:14465   */\n      tag_83\n      jump\t// in\n    tag_275:\n        /* \"#utility.yul\":14530:14548   */\n      0xffffffffffffffff\n        /* \"#utility.yul\":14522:14528   */\n      dup2\n        /* \"#utility.yul\":14519:14549   */\n      gt\n        /* \"#utility.yul\":14516:14572   */\n      iszero\n      tag_276\n      jumpi\n        /* \"#utility.yul\":14552:14570   */\n      tag_277\n      tag_92\n      jump\t// in\n    tag_277:\n        /* \"#utility.yul\":14516:14572   */\n    tag_276:\n        /* \"#utility.yul\":14596:14634   */\n      tag_278\n        /* \"#utility.yul\":14628:14632   */\n      dup3\n        /* \"#utility.yul\":14622:14633   */\n      sload\n        /* \"#utility.yul\":14596:14634   */\n      tag_43\n      jump\t// in\n    tag_278:\n        /* \"#utility.yul\":14681:14748   */\n      tag_279\n        /* \"#utility.yul\":14741:14747   */\n      dup3\n        /* \"#utility.yul\":14733:14739   */\n      dup3\n        /* \"#utility.yul\":14727:14731   */\n      dup6\n        /* \"#utility.yul\":14681:14748   */\n      tag_124\n      jump\t// in\n    tag_279:\n        /* \"#utility.yul\":14775:14776   */\n      0x00\n        /* \"#utility.yul\":14799:14803   */\n      0x20\n        /* \"#utility.yul\":14786:14803   */\n      swap1\n      pop\n        /* \"#utility.yul\":14831:14833   */\n      0x1f\n        /* \"#utility.yul\":14823:14829   */\n      dup4\n        /* \"#utility.yul\":14820:14834   */\n      gt\n        /* \"#utility.yul\":14848:14849   */\n      0x01\n        /* \"#utility.yul\":14843:15461   */\n      dup2\n      eq\n      tag_281\n      jumpi\n        /* \"#utility.yul\":15505:15506   */\n      0x00\n        /* \"#utility.yul\":15522:15528   */\n      dup5\n        /* \"#utility.yul\":15519:15596   */\n      iszero\n      tag_282\n      jumpi\n        /* \"#utility.yul\":15571:15580   */\n      dup3\n        /* \"#utility.yul\":15566:15569   */\n      dup8\n        /* \"#utility.yul\":15562:15581   */\n      add\n        /* \"#utility.yul\":15556:15582   */\n      mload\n        /* \"#utility.yul\":15547:15582   */\n      swap1\n      pop\n        /* \"#utility.yul\":15519:15596   */\n    tag_282:\n        /* \"#utility.yul\":15622:15689   */\n      tag_283\n        /* \"#utility.yul\":15682:15688   */\n      dup6\n        /* \"#utility.yul\":15675:15680   */\n      dup3\n        /* \"#utility.yul\":15622:15689   */\n      tag_127\n      jump\t// in\n    tag_283:\n        /* \"#utility.yul\":15616:15620   */\n      dup7\n        /* \"#utility.yul\":15609:15690   */\n      sstore\n        /* \"#utility.yul\":15478:15700   */\n      pop\n        /* \"#utility.yul\":14813:15700   */\n      jump(tag_280)\n        /* \"#utility.yul\":14843:15461   */\n    tag_281:\n        /* \"#utility.yul\":14895:14899   */\n      0x1f\n        /* \"#utility.yul\":14891:14900   */\n      not\n        /* \"#utility.yul\":14883:14889   */\n      dup5\n        /* \"#utility.yul\":14879:14901   */\n      and\n        /* \"#utility.yul\":14929:14966   */\n      tag_284\n        /* \"#utility.yul\":14961:14965   */\n      dup7\n        /* \"#utility.yul\":14929:14966   */\n      tag_113\n      jump\t// in\n    tag_284:\n        /* \"#utility.yul\":14988:14989   */\n      0x00\n        /* \"#utility.yul\":15002:15210   */\n    tag_285:\n        /* \"#utility.yul\":15016:15023   */\n      dup3\n        /* \"#utility.yul\":15013:15014   */\n      dup2\n        /* \"#utility.yul\":15010:15024   */\n      lt\n        /* \"#utility.yul\":15002:15210   */\n      iszero\n      tag_287\n      jumpi\n        /* \"#utility.yul\":15095:15104   */\n      dup5\n        /* \"#utility.yul\":15090:15093   */\n      dup10\n        /* \"#utility.yul\":15086:15105   */\n      add\n        /* \"#utility.yul\":15080:15106   */\n      mload\n        /* \"#utility.yul\":15072:15078   */\n      dup3\n        /* \"#utility.yul\":15065:15107   */\n      sstore\n        /* \"#utility.yul\":15146:15147   */\n      0x01\n        /* \"#utility.yul\":15138:15144   */\n      dup3\n        /* \"#utility.yul\":15134:15148   */\n      add\n        /* \"#utility.yul\":15124:15148   */\n      swap2\n      pop\n        /* \"#utility.yul\":15193:15195   */\n      0x20\n        /* \"#utility.yul\":15182:15191   */\n      dup6\n        /* \"#utility.yul\":15178:15196   */\n      add\n        /* \"#utility.yul\":15165:15196   */\n      swap5\n      pop\n        /* \"#utility.yul\":15039:15043   */\n      0x20\n        /* \"#utility.yul\":15036:15037   */\n      dup2\n        /* \"#utility.yul\":15032:15044   */\n      add\n        /* \"#utility.yul\":15027:15044   */\n      swap1\n      pop\n        /* \"#utility.yul\":15002:15210   */\n      jump(tag_285)\n    tag_287:\n        /* \"#utility.yul\":15238:15244   */\n      dup7\n        /* \"#utility.yul\":15229:15236   */\n      dup4\n        /* \"#utility.yul\":15226:15245   */\n      lt\n        /* \"#utility.yul\":15223:15402   */\n      iszero\n      tag_288\n      jumpi\n        /* \"#utility.yul\":15296:15305   */\n      dup5\n        /* \"#utility.yul\":15291:15294   */\n      dup10\n        /* \"#utility.yul\":15287:15306   */\n      add\n        /* \"#utility.yul\":15281:15307   */\n      mload\n        /* \"#utility.yul\":15339:15387   */\n      tag_289\n        /* \"#utility.yul\":15381:15385   */\n      0x1f\n        /* \"#utility.yul\":15373:15379   */\n      dup10\n        /* \"#utility.yul\":15369:15386   */\n      and\n        /* \"#utility.yul\":15358:15367   */\n      dup3\n        /* \"#utility.yul\":15339:15387   */\n      tag_126\n      jump\t// in\n    tag_289:\n        /* \"#utility.yul\":15331:15337   */\n      dup4\n        /* \"#utility.yul\":15324:15388   */\n      sstore\n        /* \"#utility.yul\":15246:15402   */\n      pop\n        /* \"#utility.yul\":15223:15402   */\n    tag_288:\n        /* \"#utility.yul\":15448:15449   */\n      0x01\n        /* \"#utility.yul\":15444:15445   */\n      0x02\n        /* \"#utility.yul\":15436:15442   */\n      dup9\n        /* \"#utility.yul\":15432:15446   */\n      mul\n        /* \"#utility.yul\":15428:15450   */\n      add\n        /* \"#utility.yul\":15422:15426   */\n      dup9\n        /* \"#utility.yul\":15415:15451   */\n      sstore\n        /* \"#utility.yul\":14850:15461   */\n      pop\n      pop\n      pop\n        /* \"#utility.yul\":14813:15700   */\n    tag_280:\n      pop\n        /* \"#utility.yul\":14403:15706   */\n      pop\n      pop\n      pop\n        /* \"#utility.yul\":14311:15706   */\n      pop\n      pop\n      jump\t// out\n        /* \"#utility.yul\":15712:15892   */\n    tag_128:\n        /* \"#utility.yul\":15760:15837   */\n      0x4e487b7100000000000000000000000000000000000000000000000000000000\n        /* \"#utility.yul\":15757:15758   */\n      0x00\n        /* \"#utility.yul\":15750:15838   */\n      mstore\n        /* \"#utility.yul\":15857:15861   */\n      0x11\n        /* \"#utility.yul\":15854:15855   */\n      0x04\n        /* \"#utility.yul\":15847:15862   */\n      mstore\n        /* \"#utility.yul\":15881:15885   */\n      0x24\n        /* \"#utility.yul\":15878:15879   */\n      0x00\n        /* \"#utility.yul\":15871:15886   */\n      revert\n        /* \"#utility.yul\":15898:16131   */\n    tag_53:\n        /* \"#utility.yul\":15937:15940   */\n      0x00\n        /* \"#utility.yul\":15960:15984   */\n      tag_292\n        /* \"#utility.yul\":15978:15983   */\n      dup3\n        /* \"#utility.yul\":15960:15984   */\n      tag_79\n      jump\t// in\n    tag_292:\n        /* \"#utility.yul\":15951:15984   */\n      swap2\n      pop\n        /* \"#utility.yul\":16006:16072   */\n      0xffffffffffffffffffffffffffffffffffffffffffffffffffffffffffffffff\n        /* \"#utility.yul\":15999:16004   */\n      dup3\n        /* \"#utility.yul\":15996:16073   */\n      sub\n        /* \"#utility.yul\":15993:16096   */\n      tag_293\n      jumpi\n        /* \"#utility.yul\":16076:16094   */\n      tag_294\n      tag_128\n      jump\t// in\n    tag_294:\n        /* \"#utility.yul\":15993:16096   */\n    tag_293:\n        /* \"#utility.yul\":16123:16124   */\n      0x01\n        /* \"#utility.yul\":16116:16121   */\n      dup3\n        /* \"#utility.yul\":16112:16125   */\n      add\n        /* \"#utility.yul\":16105:16125   */\n      swap1\n      pop\n        /* \"#utility.yul\":15898:16131   */\n      swap2\n      swap1\n      pop\n      jump\t// out\n\n    auxdata: 0xa264697066735822122036e615517cf0c4813cebc2f64083ed69c96b66f53ad5ff7dad992cc2ce4fb16864736f6c634300081a0033\n}\n",
				"bytecode": {
					"linkReferences": {},
					"object": "60806040525f6001553480156012575f80fd5b50610de0806100205f395ff3fe608060405234801561000f575f80fd5b5060043610610060575f3560e01c80631d65e77e146100645780636723856214610096578063779900b4146100b25780638d977672146100d0578063b6cb58a514610102578063e1e2955814610120575b5f80fd5b61007e600480360381019061007991906105be565b61013c565b60405161008d93929190610682565b60405180910390f35b6100b060048036038101906100ab91906107ea565b610280565b005b6100ba61031f565b6040516100c7919061099f565b60405180910390f35b6100ea60048036038101906100e591906105be565b61042d565b6040516100f993929190610682565b60405180910390f35b61010a6104f3565b60405161011791906109bf565b60405180910390f35b61013a600480360381019061013591906105be565b6104f9565b005b5f60605f6001548410610184576040517f08c379a000000000000000000000000000000000000000000000000000000000815260040161017b90610a22565b60405180910390fd5b5f80858154811061019857610197610a40565b5b905f5260205f2090600302016040518060600160405290815f82015481526020016001820180546101c890610a9a565b80601f01602080910402602001604051908101604052809291908181526020018280546101f490610a9a565b801561023f5780601f106102165761010080835404028352916020019161023f565b820191905f5260205f20905b81548152906001019060200180831161022257829003601f168201915b50505050508152602001600282015f9054906101000a900460ff1615151515815250509050805f015181602001518260400151935093509350509193909250565b5f604051806060016040528060015481526020018381526020015f1515815250908060018154018082558091505060019003905f5260205f2090600302015f909190919091505f820151815f015560208201518160010190816102e39190610c67565b506040820151816002015f6101000a81548160ff021916908315150217905550505060015f81548092919061031790610d63565b919050555050565b60605f805480602002602001604051908101604052809291908181526020015f905b82821015610424578382905f5260205f2090600302016040518060600160405290815f820154815260200160018201805461037b90610a9a565b80601f01602080910402602001604051908101604052809291908181526020018280546103a790610a9a565b80156103f25780601f106103c9576101008083540402835291602001916103f2565b820191905f5260205f20905b8154815290600101906020018083116103d557829003601f168201915b50505050508152602001600282015f9054906101000a900460ff16151515158152505081526020019060010190610341565b50505050905090565b5f818154811061043b575f80fd5b905f5260205f2090600302015f91509050805f01549080600101805461046090610a9a565b80601f016020809104026020016040519081016040528092919081815260200182805461048c90610a9a565b80156104d75780601f106104ae576101008083540402835291602001916104d7565b820191905f5260205f20905b8154815290600101906020018083116104ba57829003601f168201915b505050505090806002015f9054906101000a900460ff16905083565b60015481565b600154811061053d576040517f08c379a000000000000000000000000000000000000000000000000000000000815260040161053490610a22565b60405180910390fd5b60015f828154811061055257610551610a40565b5b905f5260205f2090600302016002015f6101000a81548160ff02191690831515021790555050565b5f604051905090565b5f80fd5b5f80fd5b5f819050919050565b61059d8161058b565b81146105a7575f80fd5b50565b5f813590506105b881610594565b92915050565b5f602082840312156105d3576105d2610583565b5b5f6105e0848285016105aa565b91505092915050565b6105f28161058b565b82525050565b5f81519050919050565b5f82825260208201905092915050565b8281835e5f83830152505050565b5f601f19601f8301169050919050565b5f61063a826105f8565b6106448185610602565b9350610654818560208601610612565b61065d81610620565b840191505092915050565b5f8115159050919050565b61067c81610668565b82525050565b5f6060820190506106955f8301866105e9565b81810360208301526106a78185610630565b90506106b66040830184610673565b949350505050565b5f80fd5b5f80fd5b7f4e487b71000000000000000000000000000000000000000000000000000000005f52604160045260245ffd5b6106fc82610620565b810181811067ffffffffffffffff8211171561071b5761071a6106c6565b5b80604052505050565b5f61072d61057a565b905061073982826106f3565b919050565b5f67ffffffffffffffff821115610758576107576106c6565b5b61076182610620565b9050602081019050919050565b828183375f83830152505050565b5f61078e6107898461073e565b610724565b9050828152602081018484840111156107aa576107a96106c2565b5b6107b584828561076e565b509392505050565b5f82601f8301126107d1576107d06106be565b5b81356107e184826020860161077c565b91505092915050565b5f602082840312156107ff576107fe610583565b5b5f82013567ffffffffffffffff81111561081c5761081b610587565b5b610828848285016107bd565b91505092915050565b5f81519050919050565b5f82825260208201905092915050565b5f819050602082019050919050565b6108638161058b565b82525050565b5f82825260208201905092915050565b5f610883826105f8565b61088d8185610869565b935061089d818560208601610612565b6108a681610620565b840191505092915050565b6108ba81610668565b82525050565b5f606083015f8301516108d55f86018261085a565b50602083015184820360208601526108ed8282610879565b915050604083015161090260408601826108b1565b508091505092915050565b5f61091883836108c0565b905092915050565b5f602082019050919050565b5f61093682610831565b610940818561083b565b9350836020820285016109528561084b565b805f5b8581101561098d578484038952815161096e858261090d565b945061097983610920565b925060208a01995050600181019050610955565b50829750879550505050505092915050565b5f6020820190508181035f8301526109b7818461092c565b905092915050565b5f6020820190506109d25f8301846105e9565b92915050565b7f5461736b20646f6573206e6f74206578697374000000000000000000000000005f82015250565b5f610a0c601383610602565b9150610a17826109d8565b602082019050919050565b5f6020820190508181035f830152610a3981610a00565b9050919050565b7f4e487b71000000000000000000000000000000000000000000000000000000005f52603260045260245ffd5b7f4e487b71000000000000000000000000000000000000000000000000000000005f52602260045260245ffd5b5f6002820490506001821680610ab157607f821691505b602082108103610ac457610ac3610a6d565b5b50919050565b5f819050815f5260205f209050919050565b5f6020601f8301049050919050565b5f82821b905092915050565b5f60088302610b267fffffffffffffffffffffffffffffffffffffffffffffffffffffffffffffffff82610aeb565b610b308683610aeb565b95508019841693508086168417925050509392505050565b5f819050919050565b5f610b6b610b66610b618461058b565b610b48565b61058b565b9050919050565b5f819050919050565b610b8483610b51565b610b98610b9082610b72565b848454610af7565b825550505050565b5f90565b610bac610ba0565b610bb7818484610b7b565b505050565b5b81811015610bda57610bcf5f82610ba4565b600181019050610bbd565b5050565b601f821115610c1f57610bf081610aca565b610bf984610adc565b81016020851015610c08578190505b610c1c610c1485610adc565b830182610bbc565b50505b505050565b5f82821c905092915050565b5f610c3f5f1984600802610c24565b1980831691505092915050565b5f610c578383610c30565b9150826002028217905092915050565b610c70826105f8565b67ffffffffffffffff811115610c8957610c886106c6565b5b610c938254610a9a565b610c9e828285610bde565b5f60209050601f831160018114610ccf575f8415610cbd578287015190505b610cc78582610c4c565b865550610d2e565b601f198416610cdd86610aca565b5f5b82811015610d0457848901518255600182019150602085019450602081019050610cdf565b86831015610d215784890151610d1d601f891682610c30565b8355505b6001600288020188555050505b505050505050565b7f4e487b71000000000000000000000000000000000000000000000000000000005f52601160045260245ffd5b5f610d6d8261058b565b91507fffffffffffffffffffffffffffffffffffffffffffffffffffffffffffffffff8203610d9f57610d9e610d36565b5b60018201905091905056fea264697066735822122036e615517cf0c4813cebc2f64083ed69c96b66f53ad5ff7dad992cc2ce4fb16864736f6c634300081a0033",
					"opcodes": "PUSH1 0x80 PUSH1 0x40 MSTORE PUSH0 PUSH1 0x1 SSTORE CALLVALUE DUP1 ISZERO PUSH1 0x12 JUMPI PUSH0 DUP1 REVERT JUMPDEST POP PUSH2 0xDE0 DUP1 PUSH2 0x20 PUSH0 CODECOPY PUSH0 RETURN INVALID PUSH1 0x80 PUSH1 0x40 MSTORE CALLVALUE DUP1 ISZERO PUSH2 0xF JUMPI PUSH0 DUP1 REVERT JUMPDEST POP PUSH1 0x4 CALLDATASIZE LT PUSH2 0x60 JUMPI PUSH0 CALLDATALOAD PUSH1 0xE0 SHR DUP1 PUSH4 0x1D65E77E EQ PUSH2 0x64 JUMPI DUP1 PUSH4 0x67238562 EQ PUSH2 0x96 JUMPI DUP1 PUSH4 0x779900B4 EQ PUSH2 0xB2 JUMPI DUP1 PUSH4 0x8D977672 EQ PUSH2 0xD0 JUMPI DUP1 PUSH4 0xB6CB58A5 EQ PUSH2 0x102 JUMPI DUP1 PUSH4 0xE1E29558 EQ PUSH2 0x120 JUMPI JUMPDEST PUSH0 DUP1 REVERT JUMPDEST PUSH2 0x7E PUSH1 0x4 DUP1 CALLDATASIZE SUB DUP2 ADD SWAP1 PUSH2 0x79 SWAP2 SWAP1 PUSH2 0x5BE JUMP JUMPDEST PUSH2 0x13C JUMP JUMPDEST PUSH1 0x40 MLOAD PUSH2 0x8D SWAP4 SWAP3 SWAP2 SWAP1 PUSH2 0x682 JUMP JUMPDEST PUSH1 0x40 MLOAD DUP1 SWAP2 SUB SWAP1 RETURN JUMPDEST PUSH2 0xB0 PUSH1 0x4 DUP1 CALLDATASIZE SUB DUP2 ADD SWAP1 PUSH2 0xAB SWAP2 SWAP1 PUSH2 0x7EA JUMP JUMPDEST PUSH2 0x280 JUMP JUMPDEST STOP JUMPDEST PUSH2 0xBA PUSH2 0x31F JUMP JUMPDEST PUSH1 0x40 MLOAD PUSH2 0xC7 SWAP2 SWAP1 PUSH2 0x99F JUMP JUMPDEST PUSH1 0x40 MLOAD DUP1 SWAP2 SUB SWAP1 RETURN JUMPDEST PUSH2 0xEA PUSH1 0x4 DUP1 CALLDATASIZE SUB DUP2 ADD SWAP1 PUSH2 0xE5 SWAP2 SWAP1 PUSH2 0x5BE JUMP JUMPDEST PUSH2 0x42D JUMP JUMPDEST PUSH1 0x40 MLOAD PUSH2 0xF9 SWAP4 SWAP3 SWAP2 SWAP1 PUSH2 0x682 JUMP JUMPDEST PUSH1 0x40 MLOAD DUP1 SWAP2 SUB SWAP1 RETURN JUMPDEST PUSH2 0x10A PUSH2 0x4F3 JUMP JUMPDEST PUSH1 0x40 MLOAD PUSH2 0x117 SWAP2 SWAP1 PUSH2 0x9BF JUMP JUMPDEST PUSH1 0x40 MLOAD DUP1 SWAP2 SUB SWAP1 RETURN JUMPDEST PUSH2 0x13A PUSH1 0x4 DUP1 CALLDATASIZE SUB DUP2 ADD SWAP1 PUSH2 0x135 SWAP2 SWAP1 PUSH2 0x5BE JUMP JUMPDEST PUSH2 0x4F9 JUMP JUMPDEST STOP JUMPDEST PUSH0 PUSH1 0x60 PUSH0 PUSH1 0x1 SLOAD DUP5 LT PUSH2 0x184 JUMPI PUSH1 0x40 MLOAD PUSH32 0x8C379A000000000000000000000000000000000000000000000000000000000 DUP2 MSTORE PUSH1 0x4 ADD PUSH2 0x17B SWAP1 PUSH2 0xA22 JUMP JUMPDEST PUSH1 0x40 MLOAD DUP1 SWAP2 SUB SWAP1 REVERT JUMPDEST PUSH0 DUP1 DUP6 DUP2 SLOAD DUP2 LT PUSH2 0x198 JUMPI PUSH2 0x197 PUSH2 0xA40 JUMP JUMPDEST JUMPDEST SWAP1 PUSH0 MSTORE PUSH1 0x20 PUSH0 KECCAK256 SWAP1 PUSH1 0x3 MUL ADD PUSH1 0x40 MLOAD DUP1 PUSH1 0x60 ADD PUSH1 0x40 MSTORE SWAP1 DUP2 PUSH0 DUP3 ADD SLOAD DUP2 MSTORE PUSH1 0x20 ADD PUSH1 0x1 DUP3 ADD DUP1 SLOAD PUSH2 0x1C8 SWAP1 PUSH2 0xA9A JUMP JUMPDEST DUP1 PUSH1 0x1F ADD PUSH1 0x20 DUP1 SWAP2 DIV MUL PUSH1 0x20 ADD PUSH1 0x40 MLOAD SWAP1 DUP2 ADD PUSH1 0x40 MSTORE DUP1 SWAP3 SWAP2 SWAP1 DUP2 DUP2 MSTORE PUSH1 0x20 ADD DUP3 DUP1 SLOAD PUSH2 0x1F4 SWAP1 PUSH2 0xA9A JUMP JUMPDEST DUP1 ISZERO PUSH2 0x23F JUMPI DUP1 PUSH1 0x1F LT PUSH2 0x216 JUMPI PUSH2 0x100 DUP1 DUP4 SLOAD DIV MUL DUP4 MSTORE SWAP2 PUSH1 0x20 ADD SWAP2 PUSH2 0x23F JUMP JUMPDEST DUP3 ADD SWAP2 SWAP1 PUSH0 MSTORE PUSH1 0x20 PUSH0 KECCAK256 SWAP1 JUMPDEST DUP2 SLOAD DUP2 MSTORE SWAP1 PUSH1 0x1 ADD SWAP1 PUSH1 0x20 ADD DUP1 DUP4 GT PUSH2 0x222 JUMPI DUP3 SWAP1 SUB PUSH1 0x1F AND DUP3 ADD SWAP2 JUMPDEST POP POP POP POP POP DUP2 MSTORE PUSH1 0x20 ADD PUSH1 0x2 DUP3 ADD PUSH0 SWAP1 SLOAD SWAP1 PUSH2 0x100 EXP SWAP1 DIV PUSH1 0xFF AND ISZERO ISZERO ISZERO ISZERO DUP2 MSTORE POP POP SWAP1 POP DUP1 PUSH0 ADD MLOAD DUP2 PUSH1 0x20 ADD MLOAD DUP3 PUSH1 0x40 ADD MLOAD SWAP4 POP SWAP4 POP SWAP4 POP POP SWAP2 SWAP4 SWAP1 SWAP3 POP JUMP JUMPDEST PUSH0 PUSH1 0x40 MLOAD DUP1 PUSH1 0x60 ADD PUSH1 0x40 MSTORE DUP1 PUSH1 0x1 SLOAD DUP2 MSTORE PUSH1 0x20 ADD DUP4 DUP2 MSTORE PUSH1 0x20 ADD PUSH0 ISZERO ISZERO DUP2 MSTORE POP SWAP1 DUP1 PUSH1 0x1 DUP2 SLOAD ADD DUP1 DUP3 SSTORE DUP1 SWAP2 POP POP PUSH1 0x1 SWAP1 SUB SWAP1 PUSH0 MSTORE PUSH1 0x20 PUSH0 KECCAK256 SWAP1 PUSH1 0x3 MUL ADD PUSH0 SWAP1 SWAP2 SWAP1 SWAP2 SWAP1 SWAP2 POP PUSH0 DUP3 ADD MLOAD DUP2 PUSH0 ADD SSTORE PUSH1 0x20 DUP3 ADD MLOAD DUP2 PUSH1 0x1 ADD SWAP1 DUP2 PUSH2 0x2E3 SWAP2 SWAP1 PUSH2 0xC67 JUMP JUMPDEST POP PUSH1 0x40 DUP3 ADD MLOAD DUP2 PUSH1 0x2 ADD PUSH0 PUSH2 0x100 EXP DUP2 SLOAD DUP2 PUSH1 0xFF MUL NOT AND SWAP1 DUP4 ISZERO ISZERO MUL OR SWAP1 SSTORE POP POP POP PUSH1 0x1 PUSH0 DUP2 SLOAD DUP1 SWAP3 SWAP2 SWAP1 PUSH2 0x317 SWAP1 PUSH2 0xD63 JUMP JUMPDEST SWAP2 SWAP1 POP SSTORE POP POP JUMP JUMPDEST PUSH1 0x60 PUSH0 DUP1 SLOAD DUP1 PUSH1 0x20 MUL PUSH1 0x20 ADD PUSH1 0x40 MLOAD SWAP1 DUP2 ADD PUSH1 0x40 MSTORE DUP1 SWAP3 SWAP2 SWAP1 DUP2 DUP2 MSTORE PUSH1 0x20 ADD PUSH0 SWAP1 JUMPDEST DUP3 DUP3 LT ISZERO PUSH2 0x424 JUMPI DUP4 DUP3 SWAP1 PUSH0 MSTORE PUSH1 0x20 PUSH0 KECCAK256 SWAP1 PUSH1 0x3 MUL ADD PUSH1 0x40 MLOAD DUP1 PUSH1 0x60 ADD PUSH1 0x40 MSTORE SWAP1 DUP2 PUSH0 DUP3 ADD SLOAD DUP2 MSTORE PUSH1 0x20 ADD PUSH1 0x1 DUP3 ADD DUP1 SLOAD PUSH2 0x37B SWAP1 PUSH2 0xA9A JUMP JUMPDEST DUP1 PUSH1 0x1F ADD PUSH1 0x20 DUP1 SWAP2 DIV MUL PUSH1 0x20 ADD PUSH1 0x40 MLOAD SWAP1 DUP2 ADD PUSH1 0x40 MSTORE DUP1 SWAP3 SWAP2 SWAP1 DUP2 DUP2 MSTORE PUSH1 0x20 ADD DUP3 DUP1 SLOAD PUSH2 0x3A7 SWAP1 PUSH2 0xA9A JUMP JUMPDEST DUP1 ISZERO PUSH2 0x3F2 JUMPI DUP1 PUSH1 0x1F LT PUSH2 0x3C9 JUMPI PUSH2 0x100 DUP1 DUP4 SLOAD DIV MUL DUP4 MSTORE SWAP2 PUSH1 0x20 ADD SWAP2 PUSH2 0x3F2 JUMP JUMPDEST DUP3 ADD SWAP2 SWAP1 PUSH0 MSTORE PUSH1 0x20 PUSH0 KECCAK256 SWAP1 JUMPDEST DUP2 SLOAD DUP2 MSTORE SWAP1 PUSH1 0x1 ADD SWAP1 PUSH1 0x20 ADD DUP1 DUP4 GT PUSH2 0x3D5 JUMPI DUP3 SWAP1 SUB PUSH1 0x1F AND DUP3 ADD SWAP2 JUMPDEST POP POP POP POP POP DUP2 MSTORE PUSH1 0x20 ADD PUSH1 0x2 DUP3 ADD PUSH0 SWAP1 SLOAD SWAP1 PUSH2 0x100 EXP SWAP1 DIV PUSH1 0xFF AND ISZERO ISZERO ISZERO ISZERO DUP2 MSTORE POP POP DUP2 MSTORE PUSH1 0x20 ADD SWAP1 PUSH1 0x1 ADD SWAP1 PUSH2 0x341 JUMP JUMPDEST POP POP POP POP SWAP1 POP SWAP1 JUMP JUMPDEST PUSH0 DUP2 DUP2 SLOAD DUP2 LT PUSH2 0x43B JUMPI PUSH0 DUP1 REVERT JUMPDEST SWAP1 PUSH0 MSTORE PUSH1 0x20 PUSH0 KECCAK256 SWAP1 PUSH1 0x3 MUL ADD PUSH0 SWAP2 POP SWAP1 POP DUP1 PUSH0 ADD SLOAD SWAP1 DUP1 PUSH1 0x1 ADD DUP1 SLOAD PUSH2 0x460 SWAP1 PUSH2 0xA9A JUMP JUMPDEST DUP1 PUSH1 0x1F ADD PUSH1 0x20 DUP1 SWAP2 DIV MUL PUSH1 0x20 ADD PUSH1 0x40 MLOAD SWAP1 DUP2 ADD PUSH1 0x40 MSTORE DUP1 SWAP3 SWAP2 SWAP1 DUP2 DUP2 MSTORE PUSH1 0x20 ADD DUP3 DUP1 SLOAD PUSH2 0x48C SWAP1 PUSH2 0xA9A JUMP JUMPDEST DUP1 ISZERO PUSH2 0x4D7 JUMPI DUP1 PUSH1 0x1F LT PUSH2 0x4AE JUMPI PUSH2 0x100 DUP1 DUP4 SLOAD DIV MUL DUP4 MSTORE SWAP2 PUSH1 0x20 ADD SWAP2 PUSH2 0x4D7 JUMP JUMPDEST DUP3 ADD SWAP2 SWAP1 PUSH0 MSTORE PUSH1 0x20 PUSH0 KECCAK256 SWAP1 JUMPDEST DUP2 SLOAD DUP2 MSTORE SWAP1 PUSH1 0x1 ADD SWAP1 PUSH1 0x20 ADD DUP1 DUP4 GT PUSH2 0x4BA JUMPI DUP3 SWAP1 SUB PUSH1 0x1F AND DUP3 ADD SWAP2 JUMPDEST POP POP POP POP POP SWAP1 DUP1 PUSH1 0x2 ADD PUSH0 SWAP1 SLOAD SWAP1 PUSH2 0x100 EXP SWAP1 DIV PUSH1 0xFF AND SWAP1 POP DUP4 JUMP JUMPDEST PUSH1 0x1 SLOAD DUP2 JUMP JUMPDEST PUSH1 0x1 SLOAD DUP2 LT PUSH2 0x53D JUMPI PUSH1 0x40 MLOAD PUSH32 0x8C379A000000000000000000000000000000000000000000000000000000000 DUP2 MSTORE PUSH1 0x4 ADD PUSH2 0x534 SWAP1 PUSH2 0xA22 JUMP JUMPDEST PUSH1 0x40 MLOAD DUP1 SWAP2 SUB SWAP1 REVERT JUMPDEST PUSH1 0x1 PUSH0 DUP3 DUP2 SLOAD DUP2 LT PUSH2 0x552 JUMPI PUSH2 0x551 PUSH2 0xA40 JUMP JUMPDEST JUMPDEST SWAP1 PUSH0 MSTORE PUSH1 0x20 PUSH0 KECCAK256 SWAP1 PUSH1 0x3 MUL ADD PUSH1 0x2 ADD PUSH0 PUSH2 0x100 EXP DUP2 SLOAD DUP2 PUSH1 0xFF MUL NOT AND SWAP1 DUP4 ISZERO ISZERO MUL OR SWAP1 SSTORE POP POP JUMP JUMPDEST PUSH0 PUSH1 0x40 MLOAD SWAP1 POP SWAP1 JUMP JUMPDEST PUSH0 DUP1 REVERT JUMPDEST PUSH0 DUP1 REVERT JUMPDEST PUSH0 DUP2 SWAP1 POP SWAP2 SWAP1 POP JUMP JUMPDEST PUSH2 0x59D DUP2 PUSH2 0x58B JUMP JUMPDEST DUP2 EQ PUSH2 0x5A7 JUMPI PUSH0 DUP1 REVERT JUMPDEST POP JUMP JUMPDEST PUSH0 DUP2 CALLDATALOAD SWAP1 POP PUSH2 0x5B8 DUP2 PUSH2 0x594 JUMP JUMPDEST SWAP3 SWAP2 POP POP JUMP JUMPDEST PUSH0 PUSH1 0x20 DUP3 DUP5 SUB SLT ISZERO PUSH2 0x5D3 JUMPI PUSH2 0x5D2 PUSH2 0x583 JUMP JUMPDEST JUMPDEST PUSH0 PUSH2 0x5E0 DUP5 DUP3 DUP6 ADD PUSH2 0x5AA JUMP JUMPDEST SWAP2 POP POP SWAP3 SWAP2 POP POP JUMP JUMPDEST PUSH2 0x5F2 DUP2 PUSH2 0x58B JUMP JUMPDEST DUP3 MSTORE POP POP JUMP JUMPDEST PUSH0 DUP2 MLOAD SWAP1 POP SWAP2 SWAP1 POP JUMP JUMPDEST PUSH0 DUP3 DUP3 MSTORE PUSH1 0x20 DUP3 ADD SWAP1 POP SWAP3 SWAP2 POP POP JUMP JUMPDEST DUP3 DUP2 DUP4 MCOPY PUSH0 DUP4 DUP4 ADD MSTORE POP POP POP JUMP JUMPDEST PUSH0 PUSH1 0x1F NOT PUSH1 0x1F DUP4 ADD AND SWAP1 POP SWAP2 SWAP1 POP JUMP JUMPDEST PUSH0 PUSH2 0x63A DUP3 PUSH2 0x5F8 JUMP JUMPDEST PUSH2 0x644 DUP2 DUP6 PUSH2 0x602 JUMP JUMPDEST SWAP4 POP PUSH2 0x654 DUP2 DUP6 PUSH1 0x20 DUP7 ADD PUSH2 0x612 JUMP JUMPDEST PUSH2 0x65D DUP2 PUSH2 0x620 JUMP JUMPDEST DUP5 ADD SWAP2 POP POP SWAP3 SWAP2 POP POP JUMP JUMPDEST PUSH0 DUP2 ISZERO ISZERO SWAP1 POP SWAP2 SWAP1 POP JUMP JUMPDEST PUSH2 0x67C DUP2 PUSH2 0x668 JUMP JUMPDEST DUP3 MSTORE POP POP JUMP JUMPDEST PUSH0 PUSH1 0x60 DUP3 ADD SWAP1 POP PUSH2 0x695 PUSH0 DUP4 ADD DUP7 PUSH2 0x5E9 JUMP JUMPDEST DUP2 DUP2 SUB PUSH1 0x20 DUP4 ADD MSTORE PUSH2 0x6A7 DUP2 DUP6 PUSH2 0x630 JUMP JUMPDEST SWAP1 POP PUSH2 0x6B6 PUSH1 0x40 DUP4 ADD DUP5 PUSH2 0x673 JUMP JUMPDEST SWAP5 SWAP4 POP POP POP POP JUMP JUMPDEST PUSH0 DUP1 REVERT JUMPDEST PUSH0 DUP1 REVERT JUMPDEST PUSH32 0x4E487B7100000000000000000000000000000000000000000000000000000000 PUSH0 MSTORE PUSH1 0x41 PUSH1 0x4 MSTORE PUSH1 0x24 PUSH0 REVERT JUMPDEST PUSH2 0x6FC DUP3 PUSH2 0x620 JUMP JUMPDEST DUP2 ADD DUP2 DUP2 LT PUSH8 0xFFFFFFFFFFFFFFFF DUP3 GT OR ISZERO PUSH2 0x71B JUMPI PUSH2 0x71A PUSH2 0x6C6 JUMP JUMPDEST JUMPDEST DUP1 PUSH1 0x40 MSTORE POP POP POP JUMP JUMPDEST PUSH0 PUSH2 0x72D PUSH2 0x57A JUMP JUMPDEST SWAP1 POP PUSH2 0x739 DUP3 DUP3 PUSH2 0x6F3 JUMP JUMPDEST SWAP2 SWAP1 POP JUMP JUMPDEST PUSH0 PUSH8 0xFFFFFFFFFFFFFFFF DUP3 GT ISZERO PUSH2 0x758 JUMPI PUSH2 0x757 PUSH2 0x6C6 JUMP JUMPDEST JUMPDEST PUSH2 0x761 DUP3 PUSH2 0x620 JUMP JUMPDEST SWAP1 POP PUSH1 0x20 DUP2 ADD SWAP1 POP SWAP2 SWAP1 POP JUMP JUMPDEST DUP3 DUP2 DUP4 CALLDATACOPY PUSH0 DUP4 DUP4 ADD MSTORE POP POP POP JUMP JUMPDEST PUSH0 PUSH2 0x78E PUSH2 0x789 DUP5 PUSH2 0x73E JUMP JUMPDEST PUSH2 0x724 JUMP JUMPDEST SWAP1 POP DUP3 DUP2 MSTORE PUSH1 0x20 DUP2 ADD DUP5 DUP5 DUP5 ADD GT ISZERO PUSH2 0x7AA JUMPI PUSH2 0x7A9 PUSH2 0x6C2 JUMP JUMPDEST JUMPDEST PUSH2 0x7B5 DUP5 DUP3 DUP6 PUSH2 0x76E JUMP JUMPDEST POP SWAP4 SWAP3 POP POP POP JUMP JUMPDEST PUSH0 DUP3 PUSH1 0x1F DUP4 ADD SLT PUSH2 0x7D1 JUMPI PUSH2 0x7D0 PUSH2 0x6BE JUMP JUMPDEST JUMPDEST DUP2 CALLDATALOAD PUSH2 0x7E1 DUP5 DUP3 PUSH1 0x20 DUP7 ADD PUSH2 0x77C JUMP JUMPDEST SWAP2 POP POP SWAP3 SWAP2 POP POP JUMP JUMPDEST PUSH0 PUSH1 0x20 DUP3 DUP5 SUB SLT ISZERO PUSH2 0x7FF JUMPI PUSH2 0x7FE PUSH2 0x583 JUMP JUMPDEST JUMPDEST PUSH0 DUP3 ADD CALLDATALOAD PUSH8 0xFFFFFFFFFFFFFFFF DUP2 GT ISZERO PUSH2 0x81C JUMPI PUSH2 0x81B PUSH2 0x587 JUMP JUMPDEST JUMPDEST PUSH2 0x828 DUP5 DUP3 DUP6 ADD PUSH2 0x7BD JUMP JUMPDEST SWAP2 POP POP SWAP3 SWAP2 POP POP JUMP JUMPDEST PUSH0 DUP2 MLOAD SWAP1 POP SWAP2 SWAP1 POP JUMP JUMPDEST PUSH0 DUP3 DUP3 MSTORE PUSH1 0x20 DUP3 ADD SWAP1 POP SWAP3 SWAP2 POP POP JUMP JUMPDEST PUSH0 DUP2 SWAP1 POP PUSH1 0x20 DUP3 ADD SWAP1 POP SWAP2 SWAP1 POP JUMP JUMPDEST PUSH2 0x863 DUP2 PUSH2 0x58B JUMP JUMPDEST DUP3 MSTORE POP POP JUMP JUMPDEST PUSH0 DUP3 DUP3 MSTORE PUSH1 0x20 DUP3 ADD SWAP1 POP SWAP3 SWAP2 POP POP JUMP JUMPDEST PUSH0 PUSH2 0x883 DUP3 PUSH2 0x5F8 JUMP JUMPDEST PUSH2 0x88D DUP2 DUP6 PUSH2 0x869 JUMP JUMPDEST SWAP4 POP PUSH2 0x89D DUP2 DUP6 PUSH1 0x20 DUP7 ADD PUSH2 0x612 JUMP JUMPDEST PUSH2 0x8A6 DUP2 PUSH2 0x620 JUMP JUMPDEST DUP5 ADD SWAP2 POP POP SWAP3 SWAP2 POP POP JUMP JUMPDEST PUSH2 0x8BA DUP2 PUSH2 0x668 JUMP JUMPDEST DUP3 MSTORE POP POP JUMP JUMPDEST PUSH0 PUSH1 0x60 DUP4 ADD PUSH0 DUP4 ADD MLOAD PUSH2 0x8D5 PUSH0 DUP7 ADD DUP3 PUSH2 0x85A JUMP JUMPDEST POP PUSH1 0x20 DUP4 ADD MLOAD DUP5 DUP3 SUB PUSH1 0x20 DUP7 ADD MSTORE PUSH2 0x8ED DUP3 DUP3 PUSH2 0x879 JUMP JUMPDEST SWAP2 POP POP PUSH1 0x40 DUP4 ADD MLOAD PUSH2 0x902 PUSH1 0x40 DUP7 ADD DUP3 PUSH2 0x8B1 JUMP JUMPDEST POP DUP1 SWAP2 POP POP SWAP3 SWAP2 POP POP JUMP JUMPDEST PUSH0 PUSH2 0x918 DUP4 DUP4 PUSH2 0x8C0 JUMP JUMPDEST SWAP1 POP SWAP3 SWAP2 POP POP JUMP JUMPDEST PUSH0 PUSH1 0x20 DUP3 ADD SWAP1 POP SWAP2 SWAP1 POP JUMP JUMPDEST PUSH0 PUSH2 0x936 DUP3 PUSH2 0x831 JUMP JUMPDEST PUSH2 0x940 DUP2 DUP6 PUSH2 0x83B JUMP JUMPDEST SWAP4 POP DUP4 PUSH1 0x20 DUP3 MUL DUP6 ADD PUSH2 0x952 DUP6 PUSH2 0x84B JUMP JUMPDEST DUP1 PUSH0 JUMPDEST DUP6 DUP2 LT ISZERO PUSH2 0x98D JUMPI DUP5 DUP5 SUB DUP10 MSTORE DUP2 MLOAD PUSH2 0x96E DUP6 DUP3 PUSH2 0x90D JUMP JUMPDEST SWAP5 POP PUSH2 0x979 DUP4 PUSH2 0x920 JUMP JUMPDEST SWAP3 POP PUSH1 0x20 DUP11 ADD SWAP10 POP POP PUSH1 0x1 DUP2 ADD SWAP1 POP PUSH2 0x955 JUMP JUMPDEST POP DUP3 SWAP8 POP DUP8 SWAP6 POP POP POP POP POP POP SWAP3 SWAP2 POP POP JUMP JUMPDEST PUSH0 PUSH1 0x20 DUP3 ADD SWAP1 POP DUP2 DUP2 SUB PUSH0 DUP4 ADD MSTORE PUSH2 0x9B7 DUP2 DUP5 PUSH2 0x92C JUMP JUMPDEST SWAP1 POP SWAP3 SWAP2 POP POP JUMP JUMPDEST PUSH0 PUSH1 0x20 DUP3 ADD SWAP1 POP PUSH2 0x9D2 PUSH0 DUP4 ADD DUP5 PUSH2 0x5E9 JUMP JUMPDEST SWAP3 SWAP2 POP POP JUMP JUMPDEST PUSH32 0x5461736B20646F6573206E6F7420657869737400000000000000000000000000 PUSH0 DUP3 ADD MSTORE POP JUMP JUMPDEST PUSH0 PUSH2 0xA0C PUSH1 0x13 DUP4 PUSH2 0x602 JUMP JUMPDEST SWAP2 POP PUSH2 0xA17 DUP3 PUSH2 0x9D8 JUMP JUMPDEST PUSH1 0x20 DUP3 ADD SWAP1 POP SWAP2 SWAP1 POP JUMP JUMPDEST PUSH0 PUSH1 0x20 DUP3 ADD SWAP1 POP DUP2 DUP2 SUB PUSH0 DUP4 ADD MSTORE PUSH2 0xA39 DUP2 PUSH2 0xA00 JUMP JUMPDEST SWAP1 POP SWAP2 SWAP1 POP JUMP JUMPDEST PUSH32 0x4E487B7100000000000000000000000000000000000000000000000000000000 PUSH0 MSTORE PUSH1 0x32 PUSH1 0x4 MSTORE PUSH1 0x24 PUSH0 REVERT JUMPDEST PUSH32 0x4E487B7100000000000000000000000000000000000000000000000000000000 PUSH0 MSTORE PUSH1 0x22 PUSH1 0x4 MSTORE PUSH1 0x24 PUSH0 REVERT JUMPDEST PUSH0 PUSH1 0x2 DUP3 DIV SWAP1 POP PUSH1 0x1 DUP3 AND DUP1 PUSH2 0xAB1 JUMPI PUSH1 0x7F DUP3 AND SWAP2 POP JUMPDEST PUSH1 0x20 DUP3 LT DUP2 SUB PUSH2 0xAC4 JUMPI PUSH2 0xAC3 PUSH2 0xA6D JUMP JUMPDEST JUMPDEST POP SWAP2 SWAP1 POP JUMP JUMPDEST PUSH0 DUP2 SWAP1 POP DUP2 PUSH0 MSTORE PUSH1 0x20 PUSH0 KECCAK256 SWAP1 POP SWAP2 SWAP1 POP JUMP JUMPDEST PUSH0 PUSH1 0x20 PUSH1 0x1F DUP4 ADD DIV SWAP1 POP SWAP2 SWAP1 POP JUMP JUMPDEST PUSH0 DUP3 DUP3 SHL SWAP1 POP SWAP3 SWAP2 POP POP JUMP JUMPDEST PUSH0 PUSH1 0x8 DUP4 MUL PUSH2 0xB26 PUSH32 0xFFFFFFFFFFFFFFFFFFFFFFFFFFFFFFFFFFFFFFFFFFFFFFFFFFFFFFFFFFFFFFFF DUP3 PUSH2 0xAEB JUMP JUMPDEST PUSH2 0xB30 DUP7 DUP4 PUSH2 0xAEB JUMP JUMPDEST SWAP6 POP DUP1 NOT DUP5 AND SWAP4 POP DUP1 DUP7 AND DUP5 OR SWAP3 POP POP POP SWAP4 SWAP3 POP POP POP JUMP JUMPDEST PUSH0 DUP2 SWAP1 POP SWAP2 SWAP1 POP JUMP JUMPDEST PUSH0 PUSH2 0xB6B PUSH2 0xB66 PUSH2 0xB61 DUP5 PUSH2 0x58B JUMP JUMPDEST PUSH2 0xB48 JUMP JUMPDEST PUSH2 0x58B JUMP JUMPDEST SWAP1 POP SWAP2 SWAP1 POP JUMP JUMPDEST PUSH0 DUP2 SWAP1 POP SWAP2 SWAP1 POP JUMP JUMPDEST PUSH2 0xB84 DUP4 PUSH2 0xB51 JUMP JUMPDEST PUSH2 0xB98 PUSH2 0xB90 DUP3 PUSH2 0xB72 JUMP JUMPDEST DUP5 DUP5 SLOAD PUSH2 0xAF7 JUMP JUMPDEST DUP3 SSTORE POP POP POP POP JUMP JUMPDEST PUSH0 SWAP1 JUMP JUMPDEST PUSH2 0xBAC PUSH2 0xBA0 JUMP JUMPDEST PUSH2 0xBB7 DUP2 DUP5 DUP5 PUSH2 0xB7B JUMP JUMPDEST POP POP POP JUMP JUMPDEST JUMPDEST DUP2 DUP2 LT ISZERO PUSH2 0xBDA JUMPI PUSH2 0xBCF PUSH0 DUP3 PUSH2 0xBA4 JUMP JUMPDEST PUSH1 0x1 DUP2 ADD SWAP1 POP PUSH2 0xBBD JUMP JUMPDEST POP POP JUMP JUMPDEST PUSH1 0x1F DUP3 GT ISZERO PUSH2 0xC1F JUMPI PUSH2 0xBF0 DUP2 PUSH2 0xACA JUMP JUMPDEST PUSH2 0xBF9 DUP5 PUSH2 0xADC JUMP JUMPDEST DUP2 ADD PUSH1 0x20 DUP6 LT ISZERO PUSH2 0xC08 JUMPI DUP2 SWAP1 POP JUMPDEST PUSH2 0xC1C PUSH2 0xC14 DUP6 PUSH2 0xADC JUMP JUMPDEST DUP4 ADD DUP3 PUSH2 0xBBC JUMP JUMPDEST POP POP JUMPDEST POP POP POP JUMP JUMPDEST PUSH0 DUP3 DUP3 SHR SWAP1 POP SWAP3 SWAP2 POP POP JUMP JUMPDEST PUSH0 PUSH2 0xC3F PUSH0 NOT DUP5 PUSH1 0x8 MUL PUSH2 0xC24 JUMP JUMPDEST NOT DUP1 DUP4 AND SWAP2 POP POP SWAP3 SWAP2 POP POP JUMP JUMPDEST PUSH0 PUSH2 0xC57 DUP4 DUP4 PUSH2 0xC30 JUMP JUMPDEST SWAP2 POP DUP3 PUSH1 0x2 MUL DUP3 OR SWAP1 POP SWAP3 SWAP2 POP POP JUMP JUMPDEST PUSH2 0xC70 DUP3 PUSH2 0x5F8 JUMP JUMPDEST PUSH8 0xFFFFFFFFFFFFFFFF DUP2 GT ISZERO PUSH2 0xC89 JUMPI PUSH2 0xC88 PUSH2 0x6C6 JUMP JUMPDEST JUMPDEST PUSH2 0xC93 DUP3 SLOAD PUSH2 0xA9A JUMP JUMPDEST PUSH2 0xC9E DUP3 DUP3 DUP6 PUSH2 0xBDE JUMP JUMPDEST PUSH0 PUSH1 0x20 SWAP1 POP PUSH1 0x1F DUP4 GT PUSH1 0x1 DUP2 EQ PUSH2 0xCCF JUMPI PUSH0 DUP5 ISZERO PUSH2 0xCBD JUMPI DUP3 DUP8 ADD MLOAD SWAP1 POP JUMPDEST PUSH2 0xCC7 DUP6 DUP3 PUSH2 0xC4C JUMP JUMPDEST DUP7 SSTORE POP PUSH2 0xD2E JUMP JUMPDEST PUSH1 0x1F NOT DUP5 AND PUSH2 0xCDD DUP7 PUSH2 0xACA JUMP JUMPDEST PUSH0 JUMPDEST DUP3 DUP2 LT ISZERO PUSH2 0xD04 JUMPI DUP5 DUP10 ADD MLOAD DUP3 SSTORE PUSH1 0x1 DUP3 ADD SWAP2 POP PUSH1 0x20 DUP6 ADD SWAP5 POP PUSH1 0x20 DUP2 ADD SWAP1 POP PUSH2 0xCDF JUMP JUMPDEST DUP7 DUP4 LT ISZERO PUSH2 0xD21 JUMPI DUP5 DUP10 ADD MLOAD PUSH2 0xD1D PUSH1 0x1F DUP10 AND DUP3 PUSH2 0xC30 JUMP JUMPDEST DUP4 SSTORE POP JUMPDEST PUSH1 0x1 PUSH1 0x2 DUP9 MUL ADD DUP9 SSTORE POP POP POP JUMPDEST POP POP POP POP POP POP JUMP JUMPDEST PUSH32 0x4E487B7100000000000000000000000000000000000000000000000000000000 PUSH0 MSTORE PUSH1 0x11 PUSH1 0x4 MSTORE PUSH1 0x24 PUSH0 REVERT JUMPDEST PUSH0 PUSH2 0xD6D DUP3 PUSH2 0x58B JUMP JUMPDEST SWAP2 POP PUSH32 0xFFFFFFFFFFFFFFFFFFFFFFFFFFFFFFFFFFFFFFFFFFFFFFFFFFFFFFFFFFFFFFFF DUP3 SUB PUSH2 0xD9F JUMPI PUSH2 0xD9E PUSH2 0xD36 JUMP JUMPDEST JUMPDEST PUSH1 0x1 DUP3 ADD SWAP1 POP SWAP2 SWAP1 POP JUMP INVALID LOG2 PUSH5 0x6970667358 0x22 SLT KECCAK256 CALLDATASIZE 0xE6 ISZERO MLOAD PUSH29 0xF0C4813CEBC2F64083ED69C96B66F53AD5FF7DAD992CC2CE4FB1686473 PUSH16 0x6C634300081A00330000000000000000 "
				},
				"gasEstimates": {
					"creation": {
						"codeDepositCost": "710400",
						"executionCost": "5744",
						"totalCost": "716144"
					},
					"external": {
						"addTask(string)": "infinite",
						"completeTask(uint256)": "29072",
						"getAllTasks()": "infinite",
						"getTask(uint256)": "infinite",
						"taskCount()": "2491",
						"tasks(uint256)": "infinite"
					}
				},
				"methodIdentifiers": {
					"addTask(string)": "67238562",
					"completeTask(uint256)": "e1e29558",
					"getAllTasks()": "779900b4",
					"getTask(uint256)": "1d65e77e",
					"taskCount()": "b6cb58a5",
					"tasks(uint256)": "8d977672"
				}
			},
			"storageLayout": {
				"storage": [
					{
						"astId": 12,
						"contract": "contracts/taskmanager1.sol:TaskManager",
						"label": "tasks",
						"offset": 0,
						"slot": "0",
						"type": "t_array(t_struct(Task)8_storage)dyn_storage"
					},
					{
						"astId": 15,
						"contract": "contracts/taskmanager1.sol:TaskManager",
						"label": "taskCount",
						"offset": 0,
						"slot": "1",
						"type": "t_uint256"
					}
				],
				"types": {
					"t_array(t_struct(Task)8_storage)dyn_storage": {
						"base": "t_struct(Task)8_storage",
						"encoding": "dynamic_array",
						"label": "struct TaskManager.Task[]",
						"numberOfBytes": "32"
					},
					"t_bool": {
						"encoding": "inplace",
						"label": "bool",
						"numberOfBytes": "1"
					},
					"t_string_storage": {
						"encoding": "bytes",
						"label": "string",
						"numberOfBytes": "32"
					},
					"t_struct(Task)8_storage": {
						"encoding": "inplace",
						"label": "struct TaskManager.Task",
						"members": [
							{
								"astId": 3,
								"contract": "contracts/taskmanager1.sol:TaskManager",
								"label": "id",
								"offset": 0,
								"slot": "0",
								"type": "t_uint256"
							},
							{
								"astId": 5,
								"contract": "contracts/taskmanager1.sol:TaskManager",
								"label": "description",
								"offset": 0,
								"slot": "1",
								"type": "t_string_storage"
							},
							{
								"astId": 7,
								"contract": "contracts/taskmanager1.sol:TaskManager",
								"label": "isCompleted",
								"offset": 0,
								"slot": "2",
								"type": "t_bool"
							}
						],
						"numberOfBytes": "96"
					},
					"t_uint256": {
						"encoding": "inplace",
						"label": "uint256",
						"numberOfBytes": "32"
					}
				}
			},
			"userdoc": {
				"kind": "user",
				"methods": {},
				"version": 1
			}
		}
	}
}