{
	"contracts/mappingexample.sol": {
		"MyToken": {
			"abi": [
				{
					"inputs": [],
					"stateMutability": "nonpayable",
					"type": "constructor"
				},
				{
					"anonymous": false,
					"inputs": [
						{
							"indexed": true,
							"internalType": "address",
							"name": "from",
							"type": "address"
						},
						{
							"indexed": true,
							"internalType": "address",
							"name": "to",
							"type": "address"
						},
						{
							"indexed": false,
							"internalType": "uint256",
							"name": "amount",
							"type": "uint256"
						}
					],
					"name": "Transfer",
					"type": "event"
				},
				{
					"inputs": [
						{
							"internalType": "address",
							"name": "",
							"type": "address"
						}
					],
					"name": "balances",
					"outputs": [
						{
							"internalType": "uint256",
							"name": "",
							"type": "uint256"
						}
					],
					"stateMutability": "view",
					"type": "function"
				},
				{
					"inputs": [
						{
							"internalType": "address",
							"name": "from",
							"type": "address"
						},
						{
							"internalType": "uint256",
							"name": "amount",
							"type": "uint256"
						}
					],
					"name": "burn",
					"outputs": [],
					"stateMutability": "nonpayable",
					"type": "function"
				},
				{
					"inputs": [
						{
							"internalType": "address",
							"name": "to",
							"type": "address"
						},
						{
							"internalType": "uint256",
							"name": "amount",
							"type": "uint256"
						}
					],
					"name": "mint",
					"outputs": [],
					"stateMutability": "nonpayable",
					"type": "function"
				},
				{
					"inputs": [],
					"name": "owner",
					"outputs": [
						{
							"internalType": "address",
							"name": "",
							"type": "address"
						}
					],
					"stateMutability": "view",
					"type": "function"
				},
				{
					"inputs": [
						{
							"internalType": "address",
							"name": "to",
							"type": "address"
						},
						{
							"internalType": "uint256",
							"name": "amount",
							"type": "uint256"
						}
					],
					"name": "transfer",
					"outputs": [],
					"stateMutability": "nonpayable",
					"type": "function"
				}
			],
			"devdoc": {
				"kind": "dev",
				"methods": {},
				"version": 1
			},
			"evm": {
				"assembly": "    /* \"contracts/mappingexample.sol\":57:1164  contract MyToken {... */\n  mstore(0x40, 0x80)\n    /* \"contracts/mappingexample.sol\":385:434  constructor() {... */\n  callvalue\n  dup1\n  iszero\n  tag_1\n  jumpi\n  0x00\n  dup1\n  revert\ntag_1:\n  pop\n    /* \"contracts/mappingexample.sol\":417:427  msg.sender */\n  caller\n    /* \"contracts/mappingexample.sol\":409:414  owner */\n  0x01\n  0x00\n    /* \"contracts/mappingexample.sol\":409:427  owner = msg.sender */\n  0x0100\n  exp\n  dup2\n  sload\n  dup2\n  0xffffffffffffffffffffffffffffffffffffffff\n  mul\n  not\n  and\n  swap1\n  dup4\n  0xffffffffffffffffffffffffffffffffffffffff\n  and\n  mul\n  or\n  swap1\n  sstore\n  pop\n    /* \"contracts/mappingexample.sol\":57:1164  contract MyToken {... */\n  dataSize(sub_0)\n  dup1\n  dataOffset(sub_0)\n  0x00\n  codecopy\n  0x00\n  return\nstop\n\nsub_0: assembly {\n        /* \"contracts/mappingexample.sol\":57:1164  contract MyToken {... */\n      mstore(0x40, 0x80)\n      callvalue\n      dup1\n      iszero\n      tag_1\n      jumpi\n      0x00\n      dup1\n      revert\n    tag_1:\n      pop\n      jumpi(tag_2, lt(calldatasize, 0x04))\n      shr(0xe0, calldataload(0x00))\n      dup1\n      0x27e235e3\n      eq\n      tag_3\n      jumpi\n      dup1\n      0x40c10f19\n      eq\n      tag_4\n      jumpi\n      dup1\n      0x8da5cb5b\n      eq\n      tag_5\n      jumpi\n      dup1\n      0x9dc29fac\n      eq\n      tag_6\n      jumpi\n      dup1\n      0xa9059cbb\n      eq\n      tag_7\n      jumpi\n    tag_2:\n      0x00\n      dup1\n      revert\n        /* \"contracts/mappingexample.sol\":80:123  mapping(address => uint256) public balances */\n    tag_3:\n      tag_8\n      0x04\n      dup1\n      calldatasize\n      sub\n      dup2\n      add\n      swap1\n      tag_9\n      swap2\n      swap1\n      tag_10\n      jump\t// in\n    tag_9:\n      tag_11\n      jump\t// in\n    tag_8:\n      mload(0x40)\n      tag_12\n      swap2\n      swap1\n      tag_13\n      jump\t// in\n    tag_12:\n      mload(0x40)\n      dup1\n      swap2\n      sub\n      swap1\n      return\n        /* \"contracts/mappingexample.sol\":472:617  function mint(address to, uint256 amount) public onlyOwner {... */\n    tag_4:\n      tag_14\n      0x04\n      dup1\n      calldatasize\n      sub\n      dup2\n      add\n      swap1\n      tag_15\n      swap2\n      swap1\n      tag_16\n      jump\t// in\n    tag_15:\n      tag_17\n      jump\t// in\n    tag_14:\n      stop\n        /* \"contracts/mappingexample.sol\":129:149  address public owner */\n    tag_5:\n      tag_18\n      tag_19\n      jump\t// in\n    tag_18:\n      mload(0x40)\n      tag_20\n      swap2\n      swap1\n      tag_21\n      jump\t// in\n    tag_20:\n      mload(0x40)\n      dup1\n      swap2\n      sub\n      swap1\n      return\n        /* \"contracts/mappingexample.sol\":936:1162  function burn(address from, uint256 amount) public onlyOwner {... */\n    tag_6:\n      tag_22\n      0x04\n      dup1\n      calldatasize\n      sub\n      dup2\n      add\n      swap1\n      tag_23\n      swap2\n      swap1\n      tag_16\n      jump\t// in\n    tag_23:\n      tag_24\n      jump\t// in\n    tag_22:\n      stop\n        /* \"contracts/mappingexample.sol\":646:898  function transfer(address to, uint256 amount) public {... */\n    tag_7:\n      tag_25\n      0x04\n      dup1\n      calldatasize\n      sub\n      dup2\n      add\n      swap1\n      tag_26\n      swap2\n      swap1\n      tag_16\n      jump\t// in\n    tag_26:\n      tag_27\n      jump\t// in\n    tag_25:\n      stop\n        /* \"contracts/mappingexample.sol\":80:123  mapping(address => uint256) public balances */\n    tag_11:\n      mstore(0x20, 0x00)\n      dup1\n      0x00\n      mstore\n      keccak256(0x00, 0x40)\n      0x00\n      swap2\n      pop\n      swap1\n      pop\n      sload\n      dup2\n      jump\t// out\n        /* \"contracts/mappingexample.sol\":472:617  function mint(address to, uint256 amount) public onlyOwner {... */\n    tag_17:\n        /* \"contracts/mappingexample.sol\":318:323  owner */\n      0x01\n      0x00\n      swap1\n      sload\n      swap1\n      0x0100\n      exp\n      swap1\n      div\n      0xffffffffffffffffffffffffffffffffffffffff\n      and\n        /* \"contracts/mappingexample.sol\":304:323  msg.sender == owner */\n      0xffffffffffffffffffffffffffffffffffffffff\n      and\n        /* \"contracts/mappingexample.sol\":304:314  msg.sender */\n      caller\n        /* \"contracts/mappingexample.sol\":304:323  msg.sender == owner */\n      0xffffffffffffffffffffffffffffffffffffffff\n      and\n      eq\n        /* \"contracts/mappingexample.sol\":296:342  require(msg.sender == owner, \"Not the owner!\") */\n      tag_29\n      jumpi\n      mload(0x40)\n      0x08c379a000000000000000000000000000000000000000000000000000000000\n      dup2\n      mstore\n      0x04\n      add\n      tag_30\n      swap1\n      tag_31\n      jump\t// in\n    tag_30:\n      mload(0x40)\n      dup1\n      swap2\n      sub\n      swap1\n      revert\n    tag_29:\n        /* \"contracts/mappingexample.sol\":557:563  amount */\n      dup1\n        /* \"contracts/mappingexample.sol\":541:549  balances */\n      0x00\n        /* \"contracts/mappingexample.sol\":541:553  balances[to] */\n      dup1\n        /* \"contracts/mappingexample.sol\":550:552  to */\n      dup5\n        /* \"contracts/mappingexample.sol\":541:553  balances[to] */\n      0xffffffffffffffffffffffffffffffffffffffff\n      and\n      0xffffffffffffffffffffffffffffffffffffffff\n      and\n      dup2\n      mstore\n      0x20\n      add\n      swap1\n      dup2\n      mstore\n      0x20\n      add\n      0x00\n      keccak256\n      0x00\n        /* \"contracts/mappingexample.sol\":541:563  balances[to] += amount */\n      dup3\n      dup3\n      sload\n      tag_33\n      swap2\n      swap1\n      tag_34\n      jump\t// in\n    tag_33:\n      swap3\n      pop\n      pop\n      dup2\n      swap1\n      sstore\n      pop\n        /* \"contracts/mappingexample.sol\":599:601  to */\n      dup2\n        /* \"contracts/mappingexample.sol\":578:610  Transfer(address(0), to, amount) */\n      0xffffffffffffffffffffffffffffffffffffffff\n      and\n        /* \"contracts/mappingexample.sol\":595:596  0 */\n      0x00\n        /* \"contracts/mappingexample.sol\":578:610  Transfer(address(0), to, amount) */\n      0xffffffffffffffffffffffffffffffffffffffff\n      and\n      0xddf252ad1be2c89b69c2b068fc378daa952ba7f163c4a11628f55a4df523b3ef\n        /* \"contracts/mappingexample.sol\":603:609  amount */\n      dup4\n        /* \"contracts/mappingexample.sol\":578:610  Transfer(address(0), to, amount) */\n      mload(0x40)\n      tag_35\n      swap2\n      swap1\n      tag_13\n      jump\t// in\n    tag_35:\n      mload(0x40)\n      dup1\n      swap2\n      sub\n      swap1\n      log3\n        /* \"contracts/mappingexample.sol\":472:617  function mint(address to, uint256 amount) public onlyOwner {... */\n      pop\n      pop\n      jump\t// out\n        /* \"contracts/mappingexample.sol\":129:149  address public owner */\n    tag_19:\n      0x01\n      0x00\n      swap1\n      sload\n      swap1\n      0x0100\n      exp\n      swap1\n      div\n      0xffffffffffffffffffffffffffffffffffffffff\n      and\n      dup2\n      jump\t// out\n        /* \"contracts/mappingexample.sol\":936:1162  function burn(address from, uint256 amount) public onlyOwner {... */\n    tag_24:\n        /* \"contracts/mappingexample.sol\":318:323  owner */\n      0x01\n      0x00\n      swap1\n      sload\n      swap1\n      0x0100\n      exp\n      swap1\n      div\n      0xffffffffffffffffffffffffffffffffffffffff\n      and\n        /* \"contracts/mappingexample.sol\":304:323  msg.sender == owner */\n      0xffffffffffffffffffffffffffffffffffffffff\n      and\n        /* \"contracts/mappingexample.sol\":304:314  msg.sender */\n      caller\n        /* \"contracts/mappingexample.sol\":304:323  msg.sender == owner */\n      0xffffffffffffffffffffffffffffffffffffffff\n      and\n      eq\n        /* \"contracts/mappingexample.sol\":296:342  require(msg.sender == owner, \"Not the owner!\") */\n      tag_37\n      jumpi\n      mload(0x40)\n      0x08c379a000000000000000000000000000000000000000000000000000000000\n      dup2\n      mstore\n      0x04\n      add\n      tag_38\n      swap1\n      tag_31\n      jump\t// in\n    tag_38:\n      mload(0x40)\n      dup1\n      swap2\n      sub\n      swap1\n      revert\n    tag_37:\n        /* \"contracts/mappingexample.sol\":1033:1039  amount */\n      dup1\n        /* \"contracts/mappingexample.sol\":1015:1023  balances */\n      0x00\n        /* \"contracts/mappingexample.sol\":1015:1029  balances[from] */\n      dup1\n        /* \"contracts/mappingexample.sol\":1024:1028  from */\n      dup5\n        /* \"contracts/mappingexample.sol\":1015:1029  balances[from] */\n      0xffffffffffffffffffffffffffffffffffffffff\n      and\n      0xffffffffffffffffffffffffffffffffffffffff\n      and\n      dup2\n      mstore\n      0x20\n      add\n      swap1\n      dup2\n      mstore\n      0x20\n      add\n      0x00\n      keccak256\n      sload\n        /* \"contracts/mappingexample.sol\":1015:1039  balances[from] >= amount */\n      lt\n      iszero\n        /* \"contracts/mappingexample.sol\":1007:1072  require(balances[from] >= amount, \"Insufficient balance to burn\") */\n      tag_40\n      jumpi\n      mload(0x40)\n      0x08c379a000000000000000000000000000000000000000000000000000000000\n      dup2\n      mstore\n      0x04\n      add\n      tag_41\n      swap1\n      tag_42\n      jump\t// in\n    tag_41:\n      mload(0x40)\n      dup1\n      swap2\n      sub\n      swap1\n      revert\n    tag_40:\n        /* \"contracts/mappingexample.sol\":1100:1106  amount */\n      dup1\n        /* \"contracts/mappingexample.sol\":1082:1090  balances */\n      0x00\n        /* \"contracts/mappingexample.sol\":1082:1096  balances[from] */\n      dup1\n        /* \"contracts/mappingexample.sol\":1091:1095  from */\n      dup5\n        /* \"contracts/mappingexample.sol\":1082:1096  balances[from] */\n      0xffffffffffffffffffffffffffffffffffffffff\n      and\n      0xffffffffffffffffffffffffffffffffffffffff\n      and\n      dup2\n      mstore\n      0x20\n      add\n      swap1\n      dup2\n      mstore\n      0x20\n      add\n      0x00\n      keccak256\n      0x00\n        /* \"contracts/mappingexample.sol\":1082:1106  balances[from] -= amount */\n      dup3\n      dup3\n      sload\n      tag_43\n      swap2\n      swap1\n      tag_44\n      jump\t// in\n    tag_43:\n      swap3\n      pop\n      pop\n      dup2\n      swap1\n      sstore\n      pop\n        /* \"contracts/mappingexample.sol\":1144:1145  0 */\n      0x00\n        /* \"contracts/mappingexample.sol\":1121:1155  Transfer(from, address(0), amount) */\n      0xffffffffffffffffffffffffffffffffffffffff\n      and\n        /* \"contracts/mappingexample.sol\":1130:1134  from */\n      dup3\n        /* \"contracts/mappingexample.sol\":1121:1155  Transfer(from, address(0), amount) */\n      0xffffffffffffffffffffffffffffffffffffffff\n      and\n      0xddf252ad1be2c89b69c2b068fc378daa952ba7f163c4a11628f55a4df523b3ef\n        /* \"contracts/mappingexample.sol\":1148:1154  amount */\n      dup4\n        /* \"contracts/mappingexample.sol\":1121:1155  Transfer(from, address(0), amount) */\n      mload(0x40)\n      tag_45\n      swap2\n      swap1\n      tag_13\n      jump\t// in\n    tag_45:\n      mload(0x40)\n      dup1\n      swap2\n      sub\n      swap1\n      log3\n        /* \"contracts/mappingexample.sol\":936:1162  function burn(address from, uint256 amount) public onlyOwner {... */\n      pop\n      pop\n      jump\t// out\n        /* \"contracts/mappingexample.sol\":646:898  function transfer(address to, uint256 amount) public {... */\n    tag_27:\n        /* \"contracts/mappingexample.sol\":741:747  amount */\n      dup1\n        /* \"contracts/mappingexample.sol\":717:725  balances */\n      0x00\n        /* \"contracts/mappingexample.sol\":717:737  balances[msg.sender] */\n      dup1\n        /* \"contracts/mappingexample.sol\":726:736  msg.sender */\n      caller\n        /* \"contracts/mappingexample.sol\":717:737  balances[msg.sender] */\n      0xffffffffffffffffffffffffffffffffffffffff\n      and\n      0xffffffffffffffffffffffffffffffffffffffff\n      and\n      dup2\n      mstore\n      0x20\n      add\n      swap1\n      dup2\n      mstore\n      0x20\n      add\n      0x00\n      keccak256\n      sload\n        /* \"contracts/mappingexample.sol\":717:747  balances[msg.sender] >= amount */\n      lt\n      iszero\n        /* \"contracts/mappingexample.sol\":709:772  require(balances[msg.sender] >= amount, \"Insufficient balance\") */\n      tag_47\n      jumpi\n      mload(0x40)\n      0x08c379a000000000000000000000000000000000000000000000000000000000\n      dup2\n      mstore\n      0x04\n      add\n      tag_48\n      swap1\n      tag_49\n      jump\t// in\n    tag_48:\n      mload(0x40)\n      dup1\n      swap2\n      sub\n      swap1\n      revert\n    tag_47:\n        /* \"contracts/mappingexample.sol\":806:812  amount */\n      dup1\n        /* \"contracts/mappingexample.sol\":782:790  balances */\n      0x00\n        /* \"contracts/mappingexample.sol\":782:802  balances[msg.sender] */\n      dup1\n        /* \"contracts/mappingexample.sol\":791:801  msg.sender */\n      caller\n        /* \"contracts/mappingexample.sol\":782:802  balances[msg.sender] */\n      0xffffffffffffffffffffffffffffffffffffffff\n      and\n      0xffffffffffffffffffffffffffffffffffffffff\n      and\n      dup2\n      mstore\n      0x20\n      add\n      swap1\n      dup2\n      mstore\n      0x20\n      add\n      0x00\n      keccak256\n      0x00\n        /* \"contracts/mappingexample.sol\":782:812  balances[msg.sender] -= amount */\n      dup3\n      dup3\n      sload\n      tag_50\n      swap2\n      swap1\n      tag_44\n      jump\t// in\n    tag_50:\n      swap3\n      pop\n      pop\n      dup2\n      swap1\n      sstore\n      pop\n        /* \"contracts/mappingexample.sol\":838:844  amount */\n      dup1\n        /* \"contracts/mappingexample.sol\":822:830  balances */\n      0x00\n        /* \"contracts/mappingexample.sol\":822:834  balances[to] */\n      dup1\n        /* \"contracts/mappingexample.sol\":831:833  to */\n      dup5\n        /* \"contracts/mappingexample.sol\":822:834  balances[to] */\n      0xffffffffffffffffffffffffffffffffffffffff\n      and\n      0xffffffffffffffffffffffffffffffffffffffff\n      and\n      dup2\n      mstore\n      0x20\n      add\n      swap1\n      dup2\n      mstore\n      0x20\n      add\n      0x00\n      keccak256\n      0x00\n        /* \"contracts/mappingexample.sol\":822:844  balances[to] += amount */\n      dup3\n      dup3\n      sload\n      tag_51\n      swap2\n      swap1\n      tag_34\n      jump\t// in\n    tag_51:\n      swap3\n      pop\n      pop\n      dup2\n      swap1\n      sstore\n      pop\n        /* \"contracts/mappingexample.sol\":880:882  to */\n      dup2\n        /* \"contracts/mappingexample.sol\":859:891  Transfer(msg.sender, to, amount) */\n      0xffffffffffffffffffffffffffffffffffffffff\n      and\n        /* \"contracts/mappingexample.sol\":868:878  msg.sender */\n      caller\n        /* \"contracts/mappingexample.sol\":859:891  Transfer(msg.sender, to, amount) */\n      0xffffffffffffffffffffffffffffffffffffffff\n      and\n      0xddf252ad1be2c89b69c2b068fc378daa952ba7f163c4a11628f55a4df523b3ef\n        /* \"contracts/mappingexample.sol\":884:890  amount */\n      dup4\n        /* \"contracts/mappingexample.sol\":859:891  Transfer(msg.sender, to, amount) */\n      mload(0x40)\n      tag_52\n      swap2\n      swap1\n      tag_13\n      jump\t// in\n    tag_52:\n      mload(0x40)\n      dup1\n      swap2\n      sub\n      swap1\n      log3\n        /* \"contracts/mappingexample.sol\":646:898  function transfer(address to, uint256 amount) public {... */\n      pop\n      pop\n      jump\t// out\n        /* \"#utility.yul\":88:205   */\n    tag_54:\n        /* \"#utility.yul\":197:198   */\n      0x00\n        /* \"#utility.yul\":194:195   */\n      dup1\n        /* \"#utility.yul\":187:199   */\n      revert\n        /* \"#utility.yul\":334:460   */\n    tag_56:\n        /* \"#utility.yul\":371:378   */\n      0x00\n        /* \"#utility.yul\":411:453   */\n      0xffffffffffffffffffffffffffffffffffffffff\n        /* \"#utility.yul\":404:409   */\n      dup3\n        /* \"#utility.yul\":400:454   */\n      and\n        /* \"#utility.yul\":389:454   */\n      swap1\n      pop\n        /* \"#utility.yul\":334:460   */\n      swap2\n      swap1\n      pop\n      jump\t// out\n        /* \"#utility.yul\":466:562   */\n    tag_57:\n        /* \"#utility.yul\":503:510   */\n      0x00\n        /* \"#utility.yul\":532:556   */\n      tag_79\n        /* \"#utility.yul\":550:555   */\n      dup3\n        /* \"#utility.yul\":532:556   */\n      tag_56\n      jump\t// in\n    tag_79:\n        /* \"#utility.yul\":521:556   */\n      swap1\n      pop\n        /* \"#utility.yul\":466:562   */\n      swap2\n      swap1\n      pop\n      jump\t// out\n        /* \"#utility.yul\":568:690   */\n    tag_58:\n        /* \"#utility.yul\":641:665   */\n      tag_81\n        /* \"#utility.yul\":659:664   */\n      dup2\n        /* \"#utility.yul\":641:665   */\n      tag_57\n      jump\t// in\n    tag_81:\n        /* \"#utility.yul\":634:639   */\n      dup2\n        /* \"#utility.yul\":631:666   */\n      eq\n        /* \"#utility.yul\":621:684   */\n      tag_82\n      jumpi\n        /* \"#utility.yul\":680:681   */\n      0x00\n        /* \"#utility.yul\":677:678   */\n      dup1\n        /* \"#utility.yul\":670:682   */\n      revert\n        /* \"#utility.yul\":621:684   */\n    tag_82:\n        /* \"#utility.yul\":568:690   */\n      pop\n      jump\t// out\n        /* \"#utility.yul\":696:835   */\n    tag_59:\n        /* \"#utility.yul\":742:747   */\n      0x00\n        /* \"#utility.yul\":780:786   */\n      dup2\n        /* \"#utility.yul\":767:787   */\n      calldataload\n        /* \"#utility.yul\":758:787   */\n      swap1\n      pop\n        /* \"#utility.yul\":796:829   */\n      tag_84\n        /* \"#utility.yul\":823:828   */\n      dup2\n        /* \"#utility.yul\":796:829   */\n      tag_58\n      jump\t// in\n    tag_84:\n        /* \"#utility.yul\":696:835   */\n      swap3\n      swap2\n      pop\n      pop\n      jump\t// out\n        /* \"#utility.yul\":841:1170   */\n    tag_10:\n        /* \"#utility.yul\":900:906   */\n      0x00\n        /* \"#utility.yul\":949:951   */\n      0x20\n        /* \"#utility.yul\":937:946   */\n      dup3\n        /* \"#utility.yul\":928:935   */\n      dup5\n        /* \"#utility.yul\":924:947   */\n      sub\n        /* \"#utility.yul\":920:952   */\n      slt\n        /* \"#utility.yul\":917:1036   */\n      iszero\n      tag_86\n      jumpi\n        /* \"#utility.yul\":955:1034   */\n      tag_87\n      tag_54\n      jump\t// in\n    tag_87:\n        /* \"#utility.yul\":917:1036   */\n    tag_86:\n        /* \"#utility.yul\":1075:1076   */\n      0x00\n        /* \"#utility.yul\":1100:1153   */\n      tag_88\n        /* \"#utility.yul\":1145:1152   */\n      dup5\n        /* \"#utility.yul\":1136:1142   */\n      dup3\n        /* \"#utility.yul\":1125:1134   */\n      dup6\n        /* \"#utility.yul\":1121:1143   */\n      add\n        /* \"#utility.yul\":1100:1153   */\n      tag_59\n      jump\t// in\n    tag_88:\n        /* \"#utility.yul\":1090:1153   */\n      swap2\n      pop\n        /* \"#utility.yul\":1046:1163   */\n      pop\n        /* \"#utility.yul\":841:1170   */\n      swap3\n      swap2\n      pop\n      pop\n      jump\t// out\n        /* \"#utility.yul\":1176:1253   */\n    tag_60:\n        /* \"#utility.yul\":1213:1220   */\n      0x00\n        /* \"#utility.yul\":1242:1247   */\n      dup2\n        /* \"#utility.yul\":1231:1247   */\n      swap1\n      pop\n        /* \"#utility.yul\":1176:1253   */\n      swap2\n      swap1\n      pop\n      jump\t// out\n        /* \"#utility.yul\":1259:1377   */\n    tag_61:\n        /* \"#utility.yul\":1346:1370   */\n      tag_91\n        /* \"#utility.yul\":1364:1369   */\n      dup2\n        /* \"#utility.yul\":1346:1370   */\n      tag_60\n      jump\t// in\n    tag_91:\n        /* \"#utility.yul\":1341:1344   */\n      dup3\n        /* \"#utility.yul\":1334:1371   */\n      mstore\n        /* \"#utility.yul\":1259:1377   */\n      pop\n      pop\n      jump\t// out\n        /* \"#utility.yul\":1383:1605   */\n    tag_13:\n        /* \"#utility.yul\":1476:1480   */\n      0x00\n        /* \"#utility.yul\":1514:1516   */\n      0x20\n        /* \"#utility.yul\":1503:1512   */\n      dup3\n        /* \"#utility.yul\":1499:1517   */\n      add\n        /* \"#utility.yul\":1491:1517   */\n      swap1\n      pop\n        /* \"#utility.yul\":1527:1598   */\n      tag_93\n        /* \"#utility.yul\":1595:1596   */\n      0x00\n        /* \"#utility.yul\":1584:1593   */\n      dup4\n        /* \"#utility.yul\":1580:1597   */\n      add\n        /* \"#utility.yul\":1571:1577   */\n      dup5\n        /* \"#utility.yul\":1527:1598   */\n      tag_61\n      jump\t// in\n    tag_93:\n        /* \"#utility.yul\":1383:1605   */\n      swap3\n      swap2\n      pop\n      pop\n      jump\t// out\n        /* \"#utility.yul\":1611:1733   */\n    tag_62:\n        /* \"#utility.yul\":1684:1708   */\n      tag_95\n        /* \"#utility.yul\":1702:1707   */\n      dup2\n        /* \"#utility.yul\":1684:1708   */\n      tag_60\n      jump\t// in\n    tag_95:\n        /* \"#utility.yul\":1677:1682   */\n      dup2\n        /* \"#utility.yul\":1674:1709   */\n      eq\n        /* \"#utility.yul\":1664:1727   */\n      tag_96\n      jumpi\n        /* \"#utility.yul\":1723:1724   */\n      0x00\n        /* \"#utility.yul\":1720:1721   */\n      dup1\n        /* \"#utility.yul\":1713:1725   */\n      revert\n        /* \"#utility.yul\":1664:1727   */\n    tag_96:\n        /* \"#utility.yul\":1611:1733   */\n      pop\n      jump\t// out\n        /* \"#utility.yul\":1739:1878   */\n    tag_63:\n        /* \"#utility.yul\":1785:1790   */\n      0x00\n        /* \"#utility.yul\":1823:1829   */\n      dup2\n        /* \"#utility.yul\":1810:1830   */\n      calldataload\n        /* \"#utility.yul\":1801:1830   */\n      swap1\n      pop\n        /* \"#utility.yul\":1839:1872   */\n      tag_98\n        /* \"#utility.yul\":1866:1871   */\n      dup2\n        /* \"#utility.yul\":1839:1872   */\n      tag_62\n      jump\t// in\n    tag_98:\n        /* \"#utility.yul\":1739:1878   */\n      swap3\n      swap2\n      pop\n      pop\n      jump\t// out\n        /* \"#utility.yul\":1884:2358   */\n    tag_16:\n        /* \"#utility.yul\":1952:1958   */\n      0x00\n        /* \"#utility.yul\":1960:1966   */\n      dup1\n        /* \"#utility.yul\":2009:2011   */\n      0x40\n        /* \"#utility.yul\":1997:2006   */\n      dup4\n        /* \"#utility.yul\":1988:1995   */\n      dup6\n        /* \"#utility.yul\":1984:2007   */\n      sub\n        /* \"#utility.yul\":1980:2012   */\n      slt\n        /* \"#utility.yul\":1977:2096   */\n      iszero\n      tag_100\n      jumpi\n        /* \"#utility.yul\":2015:2094   */\n      tag_101\n      tag_54\n      jump\t// in\n    tag_101:\n        /* \"#utility.yul\":1977:2096   */\n    tag_100:\n        /* \"#utility.yul\":2135:2136   */\n      0x00\n        /* \"#utility.yul\":2160:2213   */\n      tag_102\n        /* \"#utility.yul\":2205:2212   */\n      dup6\n        /* \"#utility.yul\":2196:2202   */\n      dup3\n        /* \"#utility.yul\":2185:2194   */\n      dup7\n        /* \"#utility.yul\":2181:2203   */\n      add\n        /* \"#utility.yul\":2160:2213   */\n      tag_59\n      jump\t// in\n    tag_102:\n        /* \"#utility.yul\":2150:2213   */\n      swap3\n      pop\n        /* \"#utility.yul\":2106:2223   */\n      pop\n        /* \"#utility.yul\":2262:2264   */\n      0x20\n        /* \"#utility.yul\":2288:2341   */\n      tag_103\n        /* \"#utility.yul\":2333:2340   */\n      dup6\n        /* \"#utility.yul\":2324:2330   */\n      dup3\n        /* \"#utility.yul\":2313:2322   */\n      dup7\n        /* \"#utility.yul\":2309:2331   */\n      add\n        /* \"#utility.yul\":2288:2341   */\n      tag_63\n      jump\t// in\n    tag_103:\n        /* \"#utility.yul\":2278:2341   */\n      swap2\n      pop\n        /* \"#utility.yul\":2233:2351   */\n      pop\n        /* \"#utility.yul\":1884:2358   */\n      swap3\n      pop\n      swap3\n      swap1\n      pop\n      jump\t// out\n        /* \"#utility.yul\":2364:2482   */\n    tag_64:\n        /* \"#utility.yul\":2451:2475   */\n      tag_105\n        /* \"#utility.yul\":2469:2474   */\n      dup2\n        /* \"#utility.yul\":2451:2475   */\n      tag_57\n      jump\t// in\n    tag_105:\n        /* \"#utility.yul\":2446:2449   */\n      dup3\n        /* \"#utility.yul\":2439:2476   */\n      mstore\n        /* \"#utility.yul\":2364:2482   */\n      pop\n      pop\n      jump\t// out\n        /* \"#utility.yul\":2488:2710   */\n    tag_21:\n        /* \"#utility.yul\":2581:2585   */\n      0x00\n        /* \"#utility.yul\":2619:2621   */\n      0x20\n        /* \"#utility.yul\":2608:2617   */\n      dup3\n        /* \"#utility.yul\":2604:2622   */\n      add\n        /* \"#utility.yul\":2596:2622   */\n      swap1\n      pop\n        /* \"#utility.yul\":2632:2703   */\n      tag_107\n        /* \"#utility.yul\":2700:2701   */\n      0x00\n        /* \"#utility.yul\":2689:2698   */\n      dup4\n        /* \"#utility.yul\":2685:2702   */\n      add\n        /* \"#utility.yul\":2676:2682   */\n      dup5\n        /* \"#utility.yul\":2632:2703   */\n      tag_64\n      jump\t// in\n    tag_107:\n        /* \"#utility.yul\":2488:2710   */\n      swap3\n      swap2\n      pop\n      pop\n      jump\t// out\n        /* \"#utility.yul\":2716:2885   */\n    tag_65:\n        /* \"#utility.yul\":2800:2811   */\n      0x00\n        /* \"#utility.yul\":2834:2840   */\n      dup3\n        /* \"#utility.yul\":2829:2832   */\n      dup3\n        /* \"#utility.yul\":2822:2841   */\n      mstore\n        /* \"#utility.yul\":2874:2878   */\n      0x20\n        /* \"#utility.yul\":2869:2872   */\n      dup3\n        /* \"#utility.yul\":2865:2879   */\n      add\n        /* \"#utility.yul\":2850:2879   */\n      swap1\n      pop\n        /* \"#utility.yul\":2716:2885   */\n      swap3\n      swap2\n      pop\n      pop\n      jump\t// out\n        /* \"#utility.yul\":2891:3055   */\n    tag_66:\n        /* \"#utility.yul\":3031:3047   */\n      0x4e6f7420746865206f776e657221000000000000000000000000000000000000\n        /* \"#utility.yul\":3027:3028   */\n      0x00\n        /* \"#utility.yul\":3019:3025   */\n      dup3\n        /* \"#utility.yul\":3015:3029   */\n      add\n        /* \"#utility.yul\":3008:3048   */\n      mstore\n        /* \"#utility.yul\":2891:3055   */\n      pop\n      jump\t// out\n        /* \"#utility.yul\":3061:3427   */\n    tag_67:\n        /* \"#utility.yul\":3203:3206   */\n      0x00\n        /* \"#utility.yul\":3224:3291   */\n      tag_111\n        /* \"#utility.yul\":3288:3290   */\n      0x0e\n        /* \"#utility.yul\":3283:3286   */\n      dup4\n        /* \"#utility.yul\":3224:3291   */\n      tag_65\n      jump\t// in\n    tag_111:\n        /* \"#utility.yul\":3217:3291   */\n      swap2\n      pop\n        /* \"#utility.yul\":3300:3393   */\n      tag_112\n        /* \"#utility.yul\":3389:3392   */\n      dup3\n        /* \"#utility.yul\":3300:3393   */\n      tag_66\n      jump\t// in\n    tag_112:\n        /* \"#utility.yul\":3418:3420   */\n      0x20\n        /* \"#utility.yul\":3413:3416   */\n      dup3\n        /* \"#utility.yul\":3409:3421   */\n      add\n        /* \"#utility.yul\":3402:3421   */\n      swap1\n      pop\n        /* \"#utility.yul\":3061:3427   */\n      swap2\n      swap1\n      pop\n      jump\t// out\n        /* \"#utility.yul\":3433:3852   */\n    tag_31:\n        /* \"#utility.yul\":3599:3603   */\n      0x00\n        /* \"#utility.yul\":3637:3639   */\n      0x20\n        /* \"#utility.yul\":3626:3635   */\n      dup3\n        /* \"#utility.yul\":3622:3640   */\n      add\n        /* \"#utility.yul\":3614:3640   */\n      swap1\n      pop\n        /* \"#utility.yul\":3686:3695   */\n      dup2\n        /* \"#utility.yul\":3680:3684   */\n      dup2\n        /* \"#utility.yul\":3676:3696   */\n      sub\n        /* \"#utility.yul\":3672:3673   */\n      0x00\n        /* \"#utility.yul\":3661:3670   */\n      dup4\n        /* \"#utility.yul\":3657:3674   */\n      add\n        /* \"#utility.yul\":3650:3697   */\n      mstore\n        /* \"#utility.yul\":3714:3845   */\n      tag_114\n        /* \"#utility.yul\":3840:3844   */\n      dup2\n        /* \"#utility.yul\":3714:3845   */\n      tag_67\n      jump\t// in\n    tag_114:\n        /* \"#utility.yul\":3706:3845   */\n      swap1\n      pop\n        /* \"#utility.yul\":3433:3852   */\n      swap2\n      swap1\n      pop\n      jump\t// out\n        /* \"#utility.yul\":3858:4038   */\n    tag_68:\n        /* \"#utility.yul\":3906:3983   */\n      0x4e487b7100000000000000000000000000000000000000000000000000000000\n        /* \"#utility.yul\":3903:3904   */\n      0x00\n        /* \"#utility.yul\":3896:3984   */\n      mstore\n        /* \"#utility.yul\":4003:4007   */\n      0x11\n        /* \"#utility.yul\":4000:4001   */\n      0x04\n        /* \"#utility.yul\":3993:4008   */\n      mstore\n        /* \"#utility.yul\":4027:4031   */\n      0x24\n        /* \"#utility.yul\":4024:4025   */\n      0x00\n        /* \"#utility.yul\":4017:4032   */\n      revert\n        /* \"#utility.yul\":4044:4235   */\n    tag_34:\n        /* \"#utility.yul\":4084:4087   */\n      0x00\n        /* \"#utility.yul\":4103:4123   */\n      tag_117\n        /* \"#utility.yul\":4121:4122   */\n      dup3\n        /* \"#utility.yul\":4103:4123   */\n      tag_60\n      jump\t// in\n    tag_117:\n        /* \"#utility.yul\":4098:4123   */\n      swap2\n      pop\n        /* \"#utility.yul\":4137:4157   */\n      tag_118\n        /* \"#utility.yul\":4155:4156   */\n      dup4\n        /* \"#utility.yul\":4137:4157   */\n      tag_60\n      jump\t// in\n    tag_118:\n        /* \"#utility.yul\":4132:4157   */\n      swap3\n      pop\n        /* \"#utility.yul\":4180:4181   */\n      dup3\n        /* \"#utility.yul\":4177:4178   */\n      dup3\n        /* \"#utility.yul\":4173:4182   */\n      add\n        /* \"#utility.yul\":4166:4182   */\n      swap1\n      pop\n        /* \"#utility.yul\":4201:4204   */\n      dup1\n        /* \"#utility.yul\":4198:4199   */\n      dup3\n        /* \"#utility.yul\":4195:4205   */\n      gt\n        /* \"#utility.yul\":4192:4228   */\n      iszero\n      tag_119\n      jumpi\n        /* \"#utility.yul\":4208:4226   */\n      tag_120\n      tag_68\n      jump\t// in\n    tag_120:\n        /* \"#utility.yul\":4192:4228   */\n    tag_119:\n        /* \"#utility.yul\":4044:4235   */\n      swap3\n      swap2\n      pop\n      pop\n      jump\t// out\n        /* \"#utility.yul\":4241:4419   */\n    tag_69:\n        /* \"#utility.yul\":4381:4411   */\n      0x496e73756666696369656e742062616c616e636520746f206275726e00000000\n        /* \"#utility.yul\":4377:4378   */\n      0x00\n        /* \"#utility.yul\":4369:4375   */\n      dup3\n        /* \"#utility.yul\":4365:4379   */\n      add\n        /* \"#utility.yul\":4358:4412   */\n      mstore\n        /* \"#utility.yul\":4241:4419   */\n      pop\n      jump\t// out\n        /* \"#utility.yul\":4425:4791   */\n    tag_70:\n        /* \"#utility.yul\":4567:4570   */\n      0x00\n        /* \"#utility.yul\":4588:4655   */\n      tag_123\n        /* \"#utility.yul\":4652:4654   */\n      0x1c\n        /* \"#utility.yul\":4647:4650   */\n      dup4\n        /* \"#utility.yul\":4588:4655   */\n      tag_65\n      jump\t// in\n    tag_123:\n        /* \"#utility.yul\":4581:4655   */\n      swap2\n      pop\n        /* \"#utility.yul\":4664:4757   */\n      tag_124\n        /* \"#utility.yul\":4753:4756   */\n      dup3\n        /* \"#utility.yul\":4664:4757   */\n      tag_69\n      jump\t// in\n    tag_124:\n        /* \"#utility.yul\":4782:4784   */\n      0x20\n        /* \"#utility.yul\":4777:4780   */\n      dup3\n        /* \"#utility.yul\":4773:4785   */\n      add\n        /* \"#utility.yul\":4766:4785   */\n      swap1\n      pop\n        /* \"#utility.yul\":4425:4791   */\n      swap2\n      swap1\n      pop\n      jump\t// out\n        /* \"#utility.yul\":4797:5216   */\n    tag_42:\n        /* \"#utility.yul\":4963:4967   */\n      0x00\n        /* \"#utility.yul\":5001:5003   */\n      0x20\n        /* \"#utility.yul\":4990:4999   */\n      dup3\n        /* \"#utility.yul\":4986:5004   */\n      add\n        /* \"#utility.yul\":4978:5004   */\n      swap1\n      pop\n        /* \"#utility.yul\":5050:5059   */\n      dup2\n        /* \"#utility.yul\":5044:5048   */\n      dup2\n        /* \"#utility.yul\":5040:5060   */\n      sub\n        /* \"#utility.yul\":5036:5037   */\n      0x00\n        /* \"#utility.yul\":5025:5034   */\n      dup4\n        /* \"#utility.yul\":5021:5038   */\n      add\n        /* \"#utility.yul\":5014:5061   */\n      mstore\n        /* \"#utility.yul\":5078:5209   */\n      tag_126\n        /* \"#utility.yul\":5204:5208   */\n      dup2\n        /* \"#utility.yul\":5078:5209   */\n      tag_70\n      jump\t// in\n    tag_126:\n        /* \"#utility.yul\":5070:5209   */\n      swap1\n      pop\n        /* \"#utility.yul\":4797:5216   */\n      swap2\n      swap1\n      pop\n      jump\t// out\n        /* \"#utility.yul\":5222:5416   */\n    tag_44:\n        /* \"#utility.yul\":5262:5266   */\n      0x00\n        /* \"#utility.yul\":5282:5302   */\n      tag_128\n        /* \"#utility.yul\":5300:5301   */\n      dup3\n        /* \"#utility.yul\":5282:5302   */\n      tag_60\n      jump\t// in\n    tag_128:\n        /* \"#utility.yul\":5277:5302   */\n      swap2\n      pop\n        /* \"#utility.yul\":5316:5336   */\n      tag_129\n        /* \"#utility.yul\":5334:5335   */\n      dup4\n        /* \"#utility.yul\":5316:5336   */\n      tag_60\n      jump\t// in\n    tag_129:\n        /* \"#utility.yul\":5311:5336   */\n      swap3\n      pop\n        /* \"#utility.yul\":5360:5361   */\n      dup3\n        /* \"#utility.yul\":5357:5358   */\n      dup3\n        /* \"#utility.yul\":5353:5362   */\n      sub\n        /* \"#utility.yul\":5345:5362   */\n      swap1\n      pop\n        /* \"#utility.yul\":5384:5385   */\n      dup2\n        /* \"#utility.yul\":5378:5382   */\n      dup2\n        /* \"#utility.yul\":5375:5386   */\n      gt\n        /* \"#utility.yul\":5372:5409   */\n      iszero\n      tag_130\n      jumpi\n        /* \"#utility.yul\":5389:5407   */\n      tag_131\n      tag_68\n      jump\t// in\n    tag_131:\n        /* \"#utility.yul\":5372:5409   */\n    tag_130:\n        /* \"#utility.yul\":5222:5416   */\n      swap3\n      swap2\n      pop\n      pop\n      jump\t// out\n        /* \"#utility.yul\":5422:5592   */\n    tag_71:\n        /* \"#utility.yul\":5562:5584   */\n      0x496e73756666696369656e742062616c616e6365000000000000000000000000\n        /* \"#utility.yul\":5558:5559   */\n      0x00\n        /* \"#utility.yul\":5550:5556   */\n      dup3\n        /* \"#utility.yul\":5546:5560   */\n      add\n        /* \"#utility.yul\":5539:5585   */\n      mstore\n        /* \"#utility.yul\":5422:5592   */\n      pop\n      jump\t// out\n        /* \"#utility.yul\":5598:5964   */\n    tag_72:\n        /* \"#utility.yul\":5740:5743   */\n      0x00\n        /* \"#utility.yul\":5761:5828   */\n      tag_134\n        /* \"#utility.yul\":5825:5827   */\n      0x14\n        /* \"#utility.yul\":5820:5823   */\n      dup4\n        /* \"#utility.yul\":5761:5828   */\n      tag_65\n      jump\t// in\n    tag_134:\n        /* \"#utility.yul\":5754:5828   */\n      swap2\n      pop\n        /* \"#utility.yul\":5837:5930   */\n      tag_135\n        /* \"#utility.yul\":5926:5929   */\n      dup3\n        /* \"#utility.yul\":5837:5930   */\n      tag_71\n      jump\t// in\n    tag_135:\n        /* \"#utility.yul\":5955:5957   */\n      0x20\n        /* \"#utility.yul\":5950:5953   */\n      dup3\n        /* \"#utility.yul\":5946:5958   */\n      add\n        /* \"#utility.yul\":5939:5958   */\n      swap1\n      pop\n        /* \"#utility.yul\":5598:5964   */\n      swap2\n      swap1\n      pop\n      jump\t// out\n        /* \"#utility.yul\":5970:6389   */\n    tag_49:\n        /* \"#utility.yul\":6136:6140   */\n      0x00\n        /* \"#utility.yul\":6174:6176   */\n      0x20\n        /* \"#utility.yul\":6163:6172   */\n      dup3\n        /* \"#utility.yul\":6159:6177   */\n      add\n        /* \"#utility.yul\":6151:6177   */\n      swap1\n      pop\n        /* \"#utility.yul\":6223:6232   */\n      dup2\n        /* \"#utility.yul\":6217:6221   */\n      dup2\n        /* \"#utility.yul\":6213:6233   */\n      sub\n        /* \"#utility.yul\":6209:6210   */\n      0x00\n        /* \"#utility.yul\":6198:6207   */\n      dup4\n        /* \"#utility.yul\":6194:6211   */\n      add\n        /* \"#utility.yul\":6187:6234   */\n      mstore\n        /* \"#utility.yul\":6251:6382   */\n      tag_137\n        /* \"#utility.yul\":6377:6381   */\n      dup2\n        /* \"#utility.yul\":6251:6382   */\n      tag_72\n      jump\t// in\n    tag_137:\n        /* \"#utility.yul\":6243:6382   */\n      swap1\n      pop\n        /* \"#utility.yul\":5970:6389   */\n      swap2\n      swap1\n      pop\n      jump\t// out\n\n    auxdata: 0xa264697066735822122085aa73aad0f90a1f0412d3aed71a1eb8ed832ee60b1e7fb976c94d69b84d740764736f6c634300081a0033\n}\n",
				"bytecode": {
					"linkReferences": {},
					"object": "6080604052348015600e575f80fd5b503360015f6101000a81548173ffffffffffffffffffffffffffffffffffffffff021916908373ffffffffffffffffffffffffffffffffffffffff16021790555061092e8061005c5f395ff3fe608060405234801561000f575f80fd5b5060043610610055575f3560e01c806327e235e31461005957806340c10f19146100895780638da5cb5b146100a55780639dc29fac146100c3578063a9059cbb146100df575b5f80fd5b610073600480360381019061006e9190610631565b6100fb565b6040516100809190610674565b60405180910390f35b6100a3600480360381019061009e91906106b7565b61010f565b005b6100ad610259565b6040516100ba9190610704565b60405180910390f35b6100dd60048036038101906100d891906106b7565b61027e565b005b6100f960048036038101906100f491906106b7565b610447565b005b5f602052805f5260405f205f915090505481565b60015f9054906101000a900473ffffffffffffffffffffffffffffffffffffffff1673ffffffffffffffffffffffffffffffffffffffff163373ffffffffffffffffffffffffffffffffffffffff161461019e576040517f08c379a000000000000000000000000000000000000000000000000000000000815260040161019590610777565b60405180910390fd5b805f808473ffffffffffffffffffffffffffffffffffffffff1673ffffffffffffffffffffffffffffffffffffffff1681526020019081526020015f205f8282546101e991906107c2565b925050819055508173ffffffffffffffffffffffffffffffffffffffff165f73ffffffffffffffffffffffffffffffffffffffff167fddf252ad1be2c89b69c2b068fc378daa952ba7f163c4a11628f55a4df523b3ef8360405161024d9190610674565b60405180910390a35050565b60015f9054906101000a900473ffffffffffffffffffffffffffffffffffffffff1681565b60015f9054906101000a900473ffffffffffffffffffffffffffffffffffffffff1673ffffffffffffffffffffffffffffffffffffffff163373ffffffffffffffffffffffffffffffffffffffff161461030d576040517f08c379a000000000000000000000000000000000000000000000000000000000815260040161030490610777565b60405180910390fd5b805f808473ffffffffffffffffffffffffffffffffffffffff1673ffffffffffffffffffffffffffffffffffffffff1681526020019081526020015f2054101561038c576040517f08c379a00000000000000000000000000000000000000000000000000000000081526004016103839061083f565b60405180910390fd5b805f808473ffffffffffffffffffffffffffffffffffffffff1673ffffffffffffffffffffffffffffffffffffffff1681526020019081526020015f205f8282546103d7919061085d565b925050819055505f73ffffffffffffffffffffffffffffffffffffffff168273ffffffffffffffffffffffffffffffffffffffff167fddf252ad1be2c89b69c2b068fc378daa952ba7f163c4a11628f55a4df523b3ef8360405161043b9190610674565b60405180910390a35050565b805f803373ffffffffffffffffffffffffffffffffffffffff1673ffffffffffffffffffffffffffffffffffffffff1681526020019081526020015f205410156104c6576040517f08c379a00000000000000000000000000000000000000000000000000000000081526004016104bd906108da565b60405180910390fd5b805f803373ffffffffffffffffffffffffffffffffffffffff1673ffffffffffffffffffffffffffffffffffffffff1681526020019081526020015f205f828254610511919061085d565b92505081905550805f808473ffffffffffffffffffffffffffffffffffffffff1673ffffffffffffffffffffffffffffffffffffffff1681526020019081526020015f205f82825461056391906107c2565b925050819055508173ffffffffffffffffffffffffffffffffffffffff163373ffffffffffffffffffffffffffffffffffffffff167fddf252ad1be2c89b69c2b068fc378daa952ba7f163c4a11628f55a4df523b3ef836040516105c79190610674565b60405180910390a35050565b5f80fd5b5f73ffffffffffffffffffffffffffffffffffffffff82169050919050565b5f610600826105d7565b9050919050565b610610816105f6565b811461061a575f80fd5b50565b5f8135905061062b81610607565b92915050565b5f60208284031215610646576106456105d3565b5b5f6106538482850161061d565b91505092915050565b5f819050919050565b61066e8161065c565b82525050565b5f6020820190506106875f830184610665565b92915050565b6106968161065c565b81146106a0575f80fd5b50565b5f813590506106b18161068d565b92915050565b5f80604083850312156106cd576106cc6105d3565b5b5f6106da8582860161061d565b92505060206106eb858286016106a3565b9150509250929050565b6106fe816105f6565b82525050565b5f6020820190506107175f8301846106f5565b92915050565b5f82825260208201905092915050565b7f4e6f7420746865206f776e6572210000000000000000000000000000000000005f82015250565b5f610761600e8361071d565b915061076c8261072d565b602082019050919050565b5f6020820190508181035f83015261078e81610755565b9050919050565b7f4e487b71000000000000000000000000000000000000000000000000000000005f52601160045260245ffd5b5f6107cc8261065c565b91506107d78361065c565b92508282019050808211156107ef576107ee610795565b5b92915050565b7f496e73756666696369656e742062616c616e636520746f206275726e000000005f82015250565b5f610829601c8361071d565b9150610834826107f5565b602082019050919050565b5f6020820190508181035f8301526108568161081d565b9050919050565b5f6108678261065c565b91506108728361065c565b925082820390508181111561088a57610889610795565b5b92915050565b7f496e73756666696369656e742062616c616e63650000000000000000000000005f82015250565b5f6108c460148361071d565b91506108cf82610890565b602082019050919050565b5f6020820190508181035f8301526108f1816108b8565b905091905056fea264697066735822122085aa73aad0f90a1f0412d3aed71a1eb8ed832ee60b1e7fb976c94d69b84d740764736f6c634300081a0033",
					"opcodes": "PUSH1 0x80 PUSH1 0x40 MSTORE CALLVALUE DUP1 ISZERO PUSH1 0xE JUMPI PUSH0 DUP1 REVERT JUMPDEST POP CALLER PUSH1 0x1 PUSH0 PUSH2 0x100 EXP DUP2 SLOAD DUP2 PUSH20 0xFFFFFFFFFFFFFFFFFFFFFFFFFFFFFFFFFFFFFFFF MUL NOT AND SWAP1 DUP4 PUSH20 0xFFFFFFFFFFFFFFFFFFFFFFFFFFFFFFFFFFFFFFFF AND MUL OR SWAP1 SSTORE POP PUSH2 0x92E DUP1 PUSH2 0x5C PUSH0 CODECOPY PUSH0 RETURN INVALID PUSH1 0x80 PUSH1 0x40 MSTORE CALLVALUE DUP1 ISZERO PUSH2 0xF JUMPI PUSH0 DUP1 REVERT JUMPDEST POP PUSH1 0x4 CALLDATASIZE LT PUSH2 0x55 JUMPI PUSH0 CALLDATALOAD PUSH1 0xE0 SHR DUP1 PUSH4 0x27E235E3 EQ PUSH2 0x59 JUMPI DUP1 PUSH4 0x40C10F19 EQ PUSH2 0x89 JUMPI DUP1 PUSH4 0x8DA5CB5B EQ PUSH2 0xA5 JUMPI DUP1 PUSH4 0x9DC29FAC EQ PUSH2 0xC3 JUMPI DUP1 PUSH4 0xA9059CBB EQ PUSH2 0xDF JUMPI JUMPDEST PUSH0 DUP1 REVERT JUMPDEST PUSH2 0x73 PUSH1 0x4 DUP1 CALLDATASIZE SUB DUP2 ADD SWAP1 PUSH2 0x6E SWAP2 SWAP1 PUSH2 0x631 JUMP JUMPDEST PUSH2 0xFB JUMP JUMPDEST PUSH1 0x40 MLOAD PUSH2 0x80 SWAP2 SWAP1 PUSH2 0x674 JUMP JUMPDEST PUSH1 0x40 MLOAD DUP1 SWAP2 SUB SWAP1 RETURN JUMPDEST PUSH2 0xA3 PUSH1 0x4 DUP1 CALLDATASIZE SUB DUP2 ADD SWAP1 PUSH2 0x9E SWAP2 SWAP1 PUSH2 0x6B7 JUMP JUMPDEST PUSH2 0x10F JUMP JUMPDEST STOP JUMPDEST PUSH2 0xAD PUSH2 0x259 JUMP JUMPDEST PUSH1 0x40 MLOAD PUSH2 0xBA SWAP2 SWAP1 PUSH2 0x704 JUMP JUMPDEST PUSH1 0x40 MLOAD DUP1 SWAP2 SUB SWAP1 RETURN JUMPDEST PUSH2 0xDD PUSH1 0x4 DUP1 CALLDATASIZE SUB DUP2 ADD SWAP1 PUSH2 0xD8 SWAP2 SWAP1 PUSH2 0x6B7 JUMP JUMPDEST PUSH2 0x27E JUMP JUMPDEST STOP JUMPDEST PUSH2 0xF9 PUSH1 0x4 DUP1 CALLDATASIZE SUB DUP2 ADD SWAP1 PUSH2 0xF4 SWAP2 SWAP1 PUSH2 0x6B7 JUMP JUMPDEST PUSH2 0x447 JUMP JUMPDEST STOP JUMPDEST PUSH0 PUSH1 0x20 MSTORE DUP1 PUSH0 MSTORE PUSH1 0x40 PUSH0 KECCAK256 PUSH0 SWAP2 POP SWAP1 POP SLOAD DUP2 JUMP JUMPDEST PUSH1 0x1 PUSH0 SWAP1 SLOAD SWAP1 PUSH2 0x100 EXP SWAP1 DIV PUSH20 0xFFFFFFFFFFFFFFFFFFFFFFFFFFFFFFFFFFFFFFFF AND PUSH20 0xFFFFFFFFFFFFFFFFFFFFFFFFFFFFFFFFFFFFFFFF AND CALLER PUSH20 0xFFFFFFFFFFFFFFFFFFFFFFFFFFFFFFFFFFFFFFFF AND EQ PUSH2 0x19E JUMPI PUSH1 0x40 MLOAD PUSH32 0x8C379A000000000000000000000000000000000000000000000000000000000 DUP2 MSTORE PUSH1 0x4 ADD PUSH2 0x195 SWAP1 PUSH2 0x777 JUMP JUMPDEST PUSH1 0x40 MLOAD DUP1 SWAP2 SUB SWAP1 REVERT JUMPDEST DUP1 PUSH0 DUP1 DUP5 PUSH20 0xFFFFFFFFFFFFFFFFFFFFFFFFFFFFFFFFFFFFFFFF AND PUSH20 0xFFFFFFFFFFFFFFFFFFFFFFFFFFFFFFFFFFFFFFFF AND DUP2 MSTORE PUSH1 0x20 ADD SWAP1 DUP2 MSTORE PUSH1 0x20 ADD PUSH0 KECCAK256 PUSH0 DUP3 DUP3 SLOAD PUSH2 0x1E9 SWAP2 SWAP1 PUSH2 0x7C2 JUMP JUMPDEST SWAP3 POP POP DUP2 SWAP1 SSTORE POP DUP2 PUSH20 0xFFFFFFFFFFFFFFFFFFFFFFFFFFFFFFFFFFFFFFFF AND PUSH0 PUSH20 0xFFFFFFFFFFFFFFFFFFFFFFFFFFFFFFFFFFFFFFFF AND PUSH32 0xDDF252AD1BE2C89B69C2B068FC378DAA952BA7F163C4A11628F55A4DF523B3EF DUP4 PUSH1 0x40 MLOAD PUSH2 0x24D SWAP2 SWAP1 PUSH2 0x674 JUMP JUMPDEST PUSH1 0x40 MLOAD DUP1 SWAP2 SUB SWAP1 LOG3 POP POP JUMP JUMPDEST PUSH1 0x1 PUSH0 SWAP1 SLOAD SWAP1 PUSH2 0x100 EXP SWAP1 DIV PUSH20 0xFFFFFFFFFFFFFFFFFFFFFFFFFFFFFFFFFFFFFFFF AND DUP2 JUMP JUMPDEST PUSH1 0x1 PUSH0 SWAP1 SLOAD SWAP1 PUSH2 0x100 EXP SWAP1 DIV PUSH20 0xFFFFFFFFFFFFFFFFFFFFFFFFFFFFFFFFFFFFFFFF AND PUSH20 0xFFFFFFFFFFFFFFFFFFFFFFFFFFFFFFFFFFFFFFFF AND CALLER PUSH20 0xFFFFFFFFFFFFFFFFFFFFFFFFFFFFFFFFFFFFFFFF AND EQ PUSH2 0x30D JUMPI PUSH1 0x40 MLOAD PUSH32 0x8C379A000000000000000000000000000000000000000000000000000000000 DUP2 MSTORE PUSH1 0x4 ADD PUSH2 0x304 SWAP1 PUSH2 0x777 JUMP JUMPDEST PUSH1 0x40 MLOAD DUP1 SWAP2 SUB SWAP1 REVERT JUMPDEST DUP1 PUSH0 DUP1 DUP5 PUSH20 0xFFFFFFFFFFFFFFFFFFFFFFFFFFFFFFFFFFFFFFFF AND PUSH20 0xFFFFFFFFFFFFFFFFFFFFFFFFFFFFFFFFFFFFFFFF AND DUP2 MSTORE PUSH1 0x20 ADD SWAP1 DUP2 MSTORE PUSH1 0x20 ADD PUSH0 KECCAK256 SLOAD LT ISZERO PUSH2 0x38C JUMPI PUSH1 0x40 MLOAD PUSH32 0x8C379A000000000000000000000000000000000000000000000000000000000 DUP2 MSTORE PUSH1 0x4 ADD PUSH2 0x383 SWAP1 PUSH2 0x83F JUMP JUMPDEST PUSH1 0x40 MLOAD DUP1 SWAP2 SUB SWAP1 REVERT JUMPDEST DUP1 PUSH0 DUP1 DUP5 PUSH20 0xFFFFFFFFFFFFFFFFFFFFFFFFFFFFFFFFFFFFFFFF AND PUSH20 0xFFFFFFFFFFFFFFFFFFFFFFFFFFFFFFFFFFFFFFFF AND DUP2 MSTORE PUSH1 0x20 ADD SWAP1 DUP2 MSTORE PUSH1 0x20 ADD PUSH0 KECCAK256 PUSH0 DUP3 DUP3 SLOAD PUSH2 0x3D7 SWAP2 SWAP1 PUSH2 0x85D JUMP JUMPDEST SWAP3 POP POP DUP2 SWAP1 SSTORE POP PUSH0 PUSH20 0xFFFFFFFFFFFFFFFFFFFFFFFFFFFFFFFFFFFFFFFF AND DUP3 PUSH20 0xFFFFFFFFFFFFFFFFFFFFFFFFFFFFFFFFFFFFFFFF AND PUSH32 0xDDF252AD1BE2C89B69C2B068FC378DAA952BA7F163C4A11628F55A4DF523B3EF DUP4 PUSH1 0x40 MLOAD PUSH2 0x43B SWAP2 SWAP1 PUSH2 0x674 JUMP JUMPDEST PUSH1 0x40 MLOAD DUP1 SWAP2 SUB SWAP1 LOG3 POP POP JUMP JUMPDEST DUP1 PUSH0 DUP1 CALLER PUSH20 0xFFFFFFFFFFFFFFFFFFFFFFFFFFFFFFFFFFFFFFFF AND PUSH20 0xFFFFFFFFFFFFFFFFFFFFFFFFFFFFFFFFFFFFFFFF AND DUP2 MSTORE PUSH1 0x20 ADD SWAP1 DUP2 MSTORE PUSH1 0x20 ADD PUSH0 KECCAK256 SLOAD LT ISZERO PUSH2 0x4C6 JUMPI PUSH1 0x40 MLOAD PUSH32 0x8C379A000000000000000000000000000000000000000000000000000000000 DUP2 MSTORE PUSH1 0x4 ADD PUSH2 0x4BD SWAP1 PUSH2 0x8DA JUMP JUMPDEST PUSH1 0x40 MLOAD DUP1 SWAP2 SUB SWAP1 REVERT JUMPDEST DUP1 PUSH0 DUP1 CALLER PUSH20 0xFFFFFFFFFFFFFFFFFFFFFFFFFFFFFFFFFFFFFFFF AND PUSH20 0xFFFFFFFFFFFFFFFFFFFFFFFFFFFFFFFFFFFFFFFF AND DUP2 MSTORE PUSH1 0x20 ADD SWAP1 DUP2 MSTORE PUSH1 0x20 ADD PUSH0 KECCAK256 PUSH0 DUP3 DUP3 SLOAD PUSH2 0x511 SWAP2 SWAP1 PUSH2 0x85D JUMP JUMPDEST SWAP3 POP POP DUP2 SWAP1 SSTORE POP DUP1 PUSH0 DUP1 DUP5 PUSH20 0xFFFFFFFFFFFFFFFFFFFFFFFFFFFFFFFFFFFFFFFF AND PUSH20 0xFFFFFFFFFFFFFFFFFFFFFFFFFFFFFFFFFFFFFFFF AND DUP2 MSTORE PUSH1 0x20 ADD SWAP1 DUP2 MSTORE PUSH1 0x20 ADD PUSH0 KECCAK256 PUSH0 DUP3 DUP3 SLOAD PUSH2 0x563 SWAP2 SWAP1 PUSH2 0x7C2 JUMP JUMPDEST SWAP3 POP POP DUP2 SWAP1 SSTORE POP DUP2 PUSH20 0xFFFFFFFFFFFFFFFFFFFFFFFFFFFFFFFFFFFFFFFF AND CALLER PUSH20 0xFFFFFFFFFFFFFFFFFFFFFFFFFFFFFFFFFFFFFFFF AND PUSH32 0xDDF252AD1BE2C89B69C2B068FC378DAA952BA7F163C4A11628F55A4DF523B3EF DUP4 PUSH1 0x40 MLOAD PUSH2 0x5C7 SWAP2 SWAP1 PUSH2 0x674 JUMP JUMPDEST PUSH1 0x40 MLOAD DUP1 SWAP2 SUB SWAP1 LOG3 POP POP JUMP JUMPDEST PUSH0 DUP1 REVERT JUMPDEST PUSH0 PUSH20 0xFFFFFFFFFFFFFFFFFFFFFFFFFFFFFFFFFFFFFFFF DUP3 AND SWAP1 POP SWAP2 SWAP1 POP JUMP JUMPDEST PUSH0 PUSH2 0x600 DUP3 PUSH2 0x5D7 JUMP JUMPDEST SWAP1 POP SWAP2 SWAP1 POP JUMP JUMPDEST PUSH2 0x610 DUP2 PUSH2 0x5F6 JUMP JUMPDEST DUP2 EQ PUSH2 0x61A JUMPI PUSH0 DUP1 REVERT JUMPDEST POP JUMP JUMPDEST PUSH0 DUP2 CALLDATALOAD SWAP1 POP PUSH2 0x62B DUP2 PUSH2 0x607 JUMP JUMPDEST SWAP3 SWAP2 POP POP JUMP JUMPDEST PUSH0 PUSH1 0x20 DUP3 DUP5 SUB SLT ISZERO PUSH2 0x646 JUMPI PUSH2 0x645 PUSH2 0x5D3 JUMP JUMPDEST JUMPDEST PUSH0 PUSH2 0x653 DUP5 DUP3 DUP6 ADD PUSH2 0x61D JUMP JUMPDEST SWAP2 POP POP SWAP3 SWAP2 POP POP JUMP JUMPDEST PUSH0 DUP2 SWAP1 POP SWAP2 SWAP1 POP JUMP JUMPDEST PUSH2 0x66E DUP2 PUSH2 0x65C JUMP JUMPDEST DUP3 MSTORE POP POP JUMP JUMPDEST PUSH0 PUSH1 0x20 DUP3 ADD SWAP1 POP PUSH2 0x687 PUSH0 DUP4 ADD DUP5 PUSH2 0x665 JUMP JUMPDEST SWAP3 SWAP2 POP POP JUMP JUMPDEST PUSH2 0x696 DUP2 PUSH2 0x65C JUMP JUMPDEST DUP2 EQ PUSH2 0x6A0 JUMPI PUSH0 DUP1 REVERT JUMPDEST POP JUMP JUMPDEST PUSH0 DUP2 CALLDATALOAD SWAP1 POP PUSH2 0x6B1 DUP2 PUSH2 0x68D JUMP JUMPDEST SWAP3 SWAP2 POP POP JUMP JUMPDEST PUSH0 DUP1 PUSH1 0x40 DUP4 DUP6 SUB SLT ISZERO PUSH2 0x6CD JUMPI PUSH2 0x6CC PUSH2 0x5D3 JUMP JUMPDEST JUMPDEST PUSH0 PUSH2 0x6DA DUP6 DUP3 DUP7 ADD PUSH2 0x61D JUMP JUMPDEST SWAP3 POP POP PUSH1 0x20 PUSH2 0x6EB DUP6 DUP3 DUP7 ADD PUSH2 0x6A3 JUMP JUMPDEST SWAP2 POP POP SWAP3 POP SWAP3 SWAP1 POP JUMP JUMPDEST PUSH2 0x6FE DUP2 PUSH2 0x5F6 JUMP JUMPDEST DUP3 MSTORE POP POP JUMP JUMPDEST PUSH0 PUSH1 0x20 DUP3 ADD SWAP1 POP PUSH2 0x717 PUSH0 DUP4 ADD DUP5 PUSH2 0x6F5 JUMP JUMPDEST SWAP3 SWAP2 POP POP JUMP JUMPDEST PUSH0 DUP3 DUP3 MSTORE PUSH1 0x20 DUP3 ADD SWAP1 POP SWAP3 SWAP2 POP POP JUMP JUMPDEST PUSH32 0x4E6F7420746865206F776E657221000000000000000000000000000000000000 PUSH0 DUP3 ADD MSTORE POP JUMP JUMPDEST PUSH0 PUSH2 0x761 PUSH1 0xE DUP4 PUSH2 0x71D JUMP JUMPDEST SWAP2 POP PUSH2 0x76C DUP3 PUSH2 0x72D JUMP JUMPDEST PUSH1 0x20 DUP3 ADD SWAP1 POP SWAP2 SWAP1 POP JUMP JUMPDEST PUSH0 PUSH1 0x20 DUP3 ADD SWAP1 POP DUP2 DUP2 SUB PUSH0 DUP4 ADD MSTORE PUSH2 0x78E DUP2 PUSH2 0x755 JUMP JUMPDEST SWAP1 POP SWAP2 SWAP1 POP JUMP JUMPDEST PUSH32 0x4E487B7100000000000000000000000000000000000000000000000000000000 PUSH0 MSTORE PUSH1 0x11 PUSH1 0x4 MSTORE PUSH1 0x24 PUSH0 REVERT JUMPDEST PUSH0 PUSH2 0x7CC DUP3 PUSH2 0x65C JUMP JUMPDEST SWAP2 POP PUSH2 0x7D7 DUP4 PUSH2 0x65C JUMP JUMPDEST SWAP3 POP DUP3 DUP3 ADD SWAP1 POP DUP1 DUP3 GT ISZERO PUSH2 0x7EF JUMPI PUSH2 0x7EE PUSH2 0x795 JUMP JUMPDEST JUMPDEST SWAP3 SWAP2 POP POP JUMP JUMPDEST PUSH32 0x496E73756666696369656E742062616C616E636520746F206275726E00000000 PUSH0 DUP3 ADD MSTORE POP JUMP JUMPDEST PUSH0 PUSH2 0x829 PUSH1 0x1C DUP4 PUSH2 0x71D JUMP JUMPDEST SWAP2 POP PUSH2 0x834 DUP3 PUSH2 0x7F5 JUMP JUMPDEST PUSH1 0x20 DUP3 ADD SWAP1 POP SWAP2 SWAP1 POP JUMP JUMPDEST PUSH0 PUSH1 0x20 DUP3 ADD SWAP1 POP DUP2 DUP2 SUB PUSH0 DUP4 ADD MSTORE PUSH2 0x856 DUP2 PUSH2 0x81D JUMP JUMPDEST SWAP1 POP SWAP2 SWAP1 POP JUMP JUMPDEST PUSH0 PUSH2 0x867 DUP3 PUSH2 0x65C JUMP JUMPDEST SWAP2 POP PUSH2 0x872 DUP4 PUSH2 0x65C JUMP JUMPDEST SWAP3 POP DUP3 DUP3 SUB SWAP1 POP DUP2 DUP2 GT ISZERO PUSH2 0x88A JUMPI PUSH2 0x889 PUSH2 0x795 JUMP JUMPDEST JUMPDEST SWAP3 SWAP2 POP POP JUMP JUMPDEST PUSH32 0x496E73756666696369656E742062616C616E6365000000000000000000000000 PUSH0 DUP3 ADD MSTORE POP JUMP JUMPDEST PUSH0 PUSH2 0x8C4 PUSH1 0x14 DUP4 PUSH2 0x71D JUMP JUMPDEST SWAP2 POP PUSH2 0x8CF DUP3 PUSH2 0x890 JUMP JUMPDEST PUSH1 0x20 DUP3 ADD SWAP1 POP SWAP2 SWAP1 POP JUMP JUMPDEST PUSH0 PUSH1 0x20 DUP3 ADD SWAP1 POP DUP2 DUP2 SUB PUSH0 DUP4 ADD MSTORE PUSH2 0x8F1 DUP2 PUSH2 0x8B8 JUMP JUMPDEST SWAP1 POP SWAP2 SWAP1 POP JUMP INVALID LOG2 PUSH5 0x6970667358 0x22 SLT KECCAK256 DUP6 0xAA PUSH20 0xAAD0F90A1F0412D3AED71A1EB8ED832EE60B1E7F 0xB9 PUSH23 0xC94D69B84D740764736F6C634300081A00330000000000 "
				},
				"gasEstimates": {
					"creation": {
						"codeDepositCost": "470000",
						"executionCost": "24768",
						"totalCost": "494768"
					},
					"external": {
						"balances(address)": "2779",
						"burn(address,uint256)": "infinite",
						"mint(address,uint256)": "infinite",
						"owner()": "2530",
						"transfer(address,uint256)": "infinite"
					}
				},
				"methodIdentifiers": {
					"balances(address)": "27e235e3",
					"burn(address,uint256)": "9dc29fac",
					"mint(address,uint256)": "40c10f19",
					"owner()": "8da5cb5b",
					"transfer(address,uint256)": "a9059cbb"
				}
			},
			"storageLayout": {
				"storage": [
					{
						"astId": 5,
						"contract": "contracts/mappingexample.sol:MyToken",
						"label": "balances",
						"offset": 0,
						"slot": "0",
						"type": "t_mapping(t_address,t_uint256)"
					},
					{
						"astId": 7,
						"contract": "contracts/mappingexample.sol:MyToken",
						"label": "owner",
						"offset": 0,
						"slot": "1",
						"type": "t_address"
					}
				],
				"types": {
					"t_address": {
						"encoding": "inplace",
						"label": "address",
						"numberOfBytes": "20"
					},
					"t_mapping(t_address,t_uint256)": {
						"encoding": "mapping",
						"key": "t_address",
						"label": "mapping(address => uint256)",
						"numberOfBytes": "32",
						"value": "t_uint256"
					},
					"t_uint256": {
						"encoding": "inplace",
						"label": "uint256",
						"numberOfBytes": "32"
					}
				}
			},
			"userdoc": {
				"kind": "user",
				"methods": {},
				"version": 1
			}
		}
	}
}